{"abi":[{"type":"function","name":"dropDurationFromAuctionDurationCalculator","inputs":[{"name":"auctionDuration","type":"uint256","internalType":"uint256"},{"name":"numberOfIntervals","type":"uint256","internalType":"uint256"}],"outputs":[{"name":"","type":"uint256","internalType":"uint256"}],"stateMutability":"pure"},{"type":"function","name":"startPriceFromReserveAndDurationsCalculator","inputs":[{"name":"reservePrice","type":"uint256","internalType":"uint256"},{"name":"auctionDuration","type":"uint256","internalType":"uint256"},{"name":"dropDuration","type":"uint256","internalType":"uint256"},{"name":"dropAmount","type":"uint256","internalType":"uint256"}],"outputs":[{"name":"","type":"uint256","internalType":"uint256"}],"stateMutability":"pure"},{"type":"error","name":"YoyoDutchAuctionLibrary__DropDurationCannotBeZero","inputs":[]},{"type":"error","name":"YoyoDutchAuctionLibrary__NumberOfIntervalsCannotBeZero","inputs":[]}],"bytecode":{"object":"0x61038c61004d600b8282823980515f1a6073146041577f4e487b71000000000000000000000000000000000000000000000000000000005f525f60045260245ffd5b305f52607381538281f3fe730000000000000000000000000000000000000000301460806040526004361061003f575f3560e01c8063349e0e0514610043578063860be23614610073575b5f5ffd5b61005d6004803603810190610058919061018e565b6100a3565b60405161006a91906101db565b60405180910390f35b61008d600480360381019061008891906101f4565b6100f1565b60405161009a91906101db565b60405180910390f35b5f5f82036100dd576040517f4d5fa02a00000000000000000000000000000000000000000000000000000000815260040160405180910390fd5b81836100e991906102b2565b905092915050565b5f5f830361012b576040517f9e3bf98400000000000000000000000000000000000000000000000000000000815260040160405180910390fd5b82828561013891906102e2565b61014291906102b2565b8561014d9190610323565b9050949350505050565b5f5ffd5b5f819050919050565b61016d8161015b565b8114610177575f5ffd5b50565b5f8135905061018881610164565b92915050565b5f5f604083850312156101a4576101a3610157565b5b5f6101b18582860161017a565b92505060206101c28582860161017a565b9150509250929050565b6101d58161015b565b82525050565b5f6020820190506101ee5f8301846101cc565b92915050565b5f5f5f5f6080858703121561020c5761020b610157565b5b5f6102198782880161017a565b945050602061022a8782880161017a565b935050604061023b8782880161017a565b925050606061024c8782880161017a565b91505092959194509250565b7f4e487b71000000000000000000000000000000000000000000000000000000005f52601260045260245ffd5b7f4e487b71000000000000000000000000000000000000000000000000000000005f52601160045260245ffd5b5f6102bc8261015b565b91506102c78361015b565b9250826102d7576102d6610258565b5b828204905092915050565b5f6102ec8261015b565b91506102f78361015b565b92508282026103058161015b565b9150828204841483151761031c5761031b610285565b5b5092915050565b5f61032d8261015b565b91506103388361015b565b92508282019050808211156103505761034f610285565b5b9291505056fea2646970667358221220c960598ef33695fe547ebc54459e6a3fb557bc8290e4cc75340bedb8f2bcdac964736f6c634300081e0033","linkReferences":{}},"methodIdentifiers":{"dropDurationFromAuctionDurationCalculator(uint256,uint256)":"349e0e05","startPriceFromReserveAndDurationsCalculator(uint256,uint256,uint256,uint256)":"860be236"},"id":50}