{
    "abi": [
        {
            "type": "constructor",
            "inputs": [
                {
                    "name": "_params",
                    "type": "tuple",
                    "internalType": "struct ConstructorParams",
                    "components": [
                        {
                            "name": "baseURI",
                            "type": "string",
                            "internalType": "string"
                        },
                        {
                            "name": "auctionContract",
                            "type": "address",
                            "internalType": "address"
                        },
                        {
                            "name": "basicMintPrice",
                            "type": "uint256",
                            "internalType": "uint256"
                        }
                    ]
                }
            ],
            "stateMutability": "nonpayable"
        },
        {
            "type": "fallback",
            "stateMutability": "payable"
        },
        {
            "type": "receive",
            "stateMutability": "payable"
        },
        {
            "type": "function",
            "name": "MAX_NFT_SUPPLY",
            "inputs": [],
            "outputs": [
                {
                    "name": "",
                    "type": "uint256",
                    "internalType": "uint256"
                }
            ],
            "stateMutability": "view"
        },
        {
            "type": "function",
            "name": "approve",
            "inputs": [
                {
                    "name": "to",
                    "type": "address",
                    "internalType": "address"
                },
                {
                    "name": "tokenId",
                    "type": "uint256",
                    "internalType": "uint256"
                }
            ],
            "outputs": [],
            "stateMutability": "nonpayable"
        },
        {
            "type": "function",
            "name": "balanceOf",
            "inputs": [
                {
                    "name": "owner",
                    "type": "address",
                    "internalType": "address"
                }
            ],
            "outputs": [
                {
                    "name": "",
                    "type": "uint256",
                    "internalType": "uint256"
                }
            ],
            "stateMutability": "view"
        },
        {
            "type": "function",
            "name": "deposit",
            "inputs": [],
            "outputs": [],
            "stateMutability": "payable"
        },
        {
            "type": "function",
            "name": "getAccountBalance",
            "inputs": [
                {
                    "name": "_account",
                    "type": "address",
                    "internalType": "address"
                }
            ],
            "outputs": [
                {
                    "name": "",
                    "type": "uint256",
                    "internalType": "uint256"
                }
            ],
            "stateMutability": "view"
        },
        {
            "type": "function",
            "name": "getApproved",
            "inputs": [
                {
                    "name": "tokenId",
                    "type": "uint256",
                    "internalType": "uint256"
                }
            ],
            "outputs": [
                {
                    "name": "",
                    "type": "address",
                    "internalType": "address"
                }
            ],
            "stateMutability": "view"
        },
        {
            "type": "function",
            "name": "getAuctionContract",
            "inputs": [],
            "outputs": [
                {
                    "name": "",
                    "type": "address",
                    "internalType": "address"
                }
            ],
            "stateMutability": "view"
        },
        {
            "type": "function",
            "name": "getBaseURI",
            "inputs": [],
            "outputs": [
                {
                    "name": "",
                    "type": "string",
                    "internalType": "string"
                }
            ],
            "stateMutability": "view"
        },
        {
            "type": "function",
            "name": "getBasicMintPrice",
            "inputs": [],
            "outputs": [
                {
                    "name": "",
                    "type": "uint256",
                    "internalType": "uint256"
                }
            ],
            "stateMutability": "view"
        },
        {
            "type": "function",
            "name": "getIfTokenIdIsMintable",
            "inputs": [
                {
                    "name": "_tokenId",
                    "type": "uint256",
                    "internalType": "uint256"
                }
            ],
            "outputs": [
                {
                    "name": "",
                    "type": "bool",
                    "internalType": "bool"
                }
            ],
            "stateMutability": "view"
        },
        {
            "type": "function",
            "name": "getOwnerFromTokenId",
            "inputs": [
                {
                    "name": "tokenId",
                    "type": "uint256",
                    "internalType": "uint256"
                }
            ],
            "outputs": [
                {
                    "name": "",
                    "type": "address",
                    "internalType": "address"
                }
            ],
            "stateMutability": "view"
        },
        {
            "type": "function",
            "name": "getTotalMinted",
            "inputs": [],
            "outputs": [
                {
                    "name": "",
                    "type": "uint256",
                    "internalType": "uint256"
                }
            ],
            "stateMutability": "view"
        },
        {
            "type": "function",
            "name": "getTotalSupply",
            "inputs": [],
            "outputs": [
                {
                    "name": "",
                    "type": "uint256",
                    "internalType": "uint256"
                }
            ],
            "stateMutability": "pure"
        },
        {
            "type": "function",
            "name": "isApprovedForAll",
            "inputs": [
                {
                    "name": "owner",
                    "type": "address",
                    "internalType": "address"
                },
                {
                    "name": "operator",
                    "type": "address",
                    "internalType": "address"
                }
            ],
            "outputs": [
                {
                    "name": "",
                    "type": "bool",
                    "internalType": "bool"
                }
            ],
            "stateMutability": "view"
        },
        {
            "type": "function",
            "name": "mintNft",
            "inputs": [
                {
                    "name": "_to",
                    "type": "address",
                    "internalType": "address"
                },
                {
                    "name": "_tokenId",
                    "type": "uint256",
                    "internalType": "uint256"
                }
            ],
            "outputs": [],
            "stateMutability": "payable"
        },
        {
            "type": "function",
            "name": "name",
            "inputs": [],
            "outputs": [
                {
                    "name": "",
                    "type": "string",
                    "internalType": "string"
                }
            ],
            "stateMutability": "view"
        },
        {
            "type": "function",
            "name": "owner",
            "inputs": [],
            "outputs": [
                {
                    "name": "",
                    "type": "address",
                    "internalType": "address"
                }
            ],
            "stateMutability": "view"
        },
        {
            "type": "function",
            "name": "ownerOf",
            "inputs": [
                {
                    "name": "tokenId",
                    "type": "uint256",
                    "internalType": "uint256"
                }
            ],
            "outputs": [
                {
                    "name": "",
                    "type": "address",
                    "internalType": "address"
                }
            ],
            "stateMutability": "view"
        },
        {
            "type": "function",
            "name": "renounceOwnership",
            "inputs": [],
            "outputs": [],
            "stateMutability": "nonpayable"
        },
        {
            "type": "function",
            "name": "safeTransferFrom",
            "inputs": [
                {
                    "name": "from",
                    "type": "address",
                    "internalType": "address"
                },
                {
                    "name": "to",
                    "type": "address",
                    "internalType": "address"
                },
                {
                    "name": "tokenId",
                    "type": "uint256",
                    "internalType": "uint256"
                }
            ],
            "outputs": [],
            "stateMutability": "nonpayable"
        },
        {
            "type": "function",
            "name": "safeTransferFrom",
            "inputs": [
                {
                    "name": "from",
                    "type": "address",
                    "internalType": "address"
                },
                {
                    "name": "to",
                    "type": "address",
                    "internalType": "address"
                },
                {
                    "name": "tokenId",
                    "type": "uint256",
                    "internalType": "uint256"
                },
                {
                    "name": "data",
                    "type": "bytes",
                    "internalType": "bytes"
                }
            ],
            "outputs": [],
            "stateMutability": "nonpayable"
        },
        {
            "type": "function",
            "name": "setApprovalForAll",
            "inputs": [
                {
                    "name": "operator",
                    "type": "address",
                    "internalType": "address"
                },
                {
                    "name": "approved",
                    "type": "bool",
                    "internalType": "bool"
                }
            ],
            "outputs": [],
            "stateMutability": "nonpayable"
        },
        {
            "type": "function",
            "name": "setBasicMintPrice",
            "inputs": [
                {
                    "name": "_newBasicPrice",
                    "type": "uint256",
                    "internalType": "uint256"
                }
            ],
            "outputs": [],
            "stateMutability": "nonpayable"
        },
        {
            "type": "function",
            "name": "supportsInterface",
            "inputs": [
                {
                    "name": "interfaceId",
                    "type": "bytes4",
                    "internalType": "bytes4"
                }
            ],
            "outputs": [
                {
                    "name": "",
                    "type": "bool",
                    "internalType": "bool"
                }
            ],
            "stateMutability": "view"
        },
        {
            "type": "function",
            "name": "symbol",
            "inputs": [],
            "outputs": [
                {
                    "name": "",
                    "type": "string",
                    "internalType": "string"
                }
            ],
            "stateMutability": "view"
        },
        {
            "type": "function",
            "name": "tokenURI",
            "inputs": [
                {
                    "name": "_tokenId",
                    "type": "uint256",
                    "internalType": "uint256"
                }
            ],
            "outputs": [
                {
                    "name": "",
                    "type": "string",
                    "internalType": "string"
                }
            ],
            "stateMutability": "view"
        },
        {
            "type": "function",
            "name": "transferFrom",
            "inputs": [
                {
                    "name": "from",
                    "type": "address",
                    "internalType": "address"
                },
                {
                    "name": "to",
                    "type": "address",
                    "internalType": "address"
                },
                {
                    "name": "tokenId",
                    "type": "uint256",
                    "internalType": "uint256"
                }
            ],
            "outputs": [],
            "stateMutability": "nonpayable"
        },
        {
            "type": "function",
            "name": "transferNft",
            "inputs": [
                {
                    "name": "_to",
                    "type": "address",
                    "internalType": "address"
                },
                {
                    "name": "_tokenId",
                    "type": "uint256",
                    "internalType": "uint256"
                }
            ],
            "outputs": [],
            "stateMutability": "nonpayable"
        },
        {
            "type": "function",
            "name": "transferOwnership",
            "inputs": [
                {
                    "name": "newOwner",
                    "type": "address",
                    "internalType": "address"
                }
            ],
            "outputs": [],
            "stateMutability": "nonpayable"
        },
        {
            "type": "function",
            "name": "withdraw",
            "inputs": [],
            "outputs": [],
            "stateMutability": "nonpayable"
        },
        {
            "type": "event",
            "name": "Approval",
            "inputs": [
                {
                    "name": "owner",
                    "type": "address",
                    "indexed": true,
                    "internalType": "address"
                },
                {
                    "name": "approved",
                    "type": "address",
                    "indexed": true,
                    "internalType": "address"
                },
                {
                    "name": "tokenId",
                    "type": "uint256",
                    "indexed": true,
                    "internalType": "uint256"
                }
            ],
            "anonymous": false
        },
        {
            "type": "event",
            "name": "ApprovalForAll",
            "inputs": [
                {
                    "name": "owner",
                    "type": "address",
                    "indexed": true,
                    "internalType": "address"
                },
                {
                    "name": "operator",
                    "type": "address",
                    "indexed": true,
                    "internalType": "address"
                },
                {
                    "name": "approved",
                    "type": "bool",
                    "indexed": false,
                    "internalType": "bool"
                }
            ],
            "anonymous": false
        },
        {
            "type": "event",
            "name": "OwnershipTransferred",
            "inputs": [
                {
                    "name": "previousOwner",
                    "type": "address",
                    "indexed": true,
                    "internalType": "address"
                },
                {
                    "name": "newOwner",
                    "type": "address",
                    "indexed": true,
                    "internalType": "address"
                }
            ],
            "anonymous": false
        },
        {
            "type": "event",
            "name": "Transfer",
            "inputs": [
                {
                    "name": "from",
                    "type": "address",
                    "indexed": true,
                    "internalType": "address"
                },
                {
                    "name": "to",
                    "type": "address",
                    "indexed": true,
                    "internalType": "address"
                },
                {
                    "name": "tokenId",
                    "type": "uint256",
                    "indexed": true,
                    "internalType": "uint256"
                }
            ],
            "anonymous": false
        },
        {
            "type": "event",
            "name": "YoyoNft__DepositCompleted",
            "inputs": [
                {
                    "name": "amount",
                    "type": "uint256",
                    "indexed": false,
                    "internalType": "uint256"
                },
                {
                    "name": "timestamp",
                    "type": "uint256",
                    "indexed": false,
                    "internalType": "uint256"
                }
            ],
            "anonymous": false
        },
        {
            "type": "event",
            "name": "YoyoNft__MintPriceUpdated",
            "inputs": [
                {
                    "name": "newBasicPrice",
                    "type": "uint256",
                    "indexed": false,
                    "internalType": "uint256"
                },
                {
                    "name": "timestamp",
                    "type": "uint256",
                    "indexed": false,
                    "internalType": "uint256"
                }
            ],
            "anonymous": false
        },
        {
            "type": "event",
            "name": "YoyoNft__NftMinted",
            "inputs": [
                {
                    "name": "owner",
                    "type": "address",
                    "indexed": true,
                    "internalType": "address"
                },
                {
                    "name": "tokenId",
                    "type": "uint256",
                    "indexed": true,
                    "internalType": "uint256"
                },
                {
                    "name": "tokenURI",
                    "type": "string",
                    "indexed": false,
                    "internalType": "string"
                },
                {
                    "name": "timestamp",
                    "type": "uint256",
                    "indexed": false,
                    "internalType": "uint256"
                }
            ],
            "anonymous": false
        },
        {
            "type": "event",
            "name": "YoyoNft__WithdrawCompleted",
            "inputs": [
                {
                    "name": "amount",
                    "type": "uint256",
                    "indexed": false,
                    "internalType": "uint256"
                },
                {
                    "name": "timestamp",
                    "type": "uint256",
                    "indexed": false,
                    "internalType": "uint256"
                }
            ],
            "anonymous": false
        },
        {
            "type": "error",
            "name": "ERC721IncorrectOwner",
            "inputs": [
                {
                    "name": "sender",
                    "type": "address",
                    "internalType": "address"
                },
                {
                    "name": "tokenId",
                    "type": "uint256",
                    "internalType": "uint256"
                },
                {
                    "name": "owner",
                    "type": "address",
                    "internalType": "address"
                }
            ]
        },
        {
            "type": "error",
            "name": "ERC721InsufficientApproval",
            "inputs": [
                {
                    "name": "operator",
                    "type": "address",
                    "internalType": "address"
                },
                {
                    "name": "tokenId",
                    "type": "uint256",
                    "internalType": "uint256"
                }
            ]
        },
        {
            "type": "error",
            "name": "ERC721InvalidApprover",
            "inputs": [
                {
                    "name": "approver",
                    "type": "address",
                    "internalType": "address"
                }
            ]
        },
        {
            "type": "error",
            "name": "ERC721InvalidOperator",
            "inputs": [
                {
                    "name": "operator",
                    "type": "address",
                    "internalType": "address"
                }
            ]
        },
        {
            "type": "error",
            "name": "ERC721InvalidOwner",
            "inputs": [
                {
                    "name": "owner",
                    "type": "address",
                    "internalType": "address"
                }
            ]
        },
        {
            "type": "error",
            "name": "ERC721InvalidReceiver",
            "inputs": [
                {
                    "name": "receiver",
                    "type": "address",
                    "internalType": "address"
                }
            ]
        },
        {
            "type": "error",
            "name": "ERC721InvalidSender",
            "inputs": [
                {
                    "name": "sender",
                    "type": "address",
                    "internalType": "address"
                }
            ]
        },
        {
            "type": "error",
            "name": "ERC721NonexistentToken",
            "inputs": [
                {
                    "name": "tokenId",
                    "type": "uint256",
                    "internalType": "uint256"
                }
            ]
        },
        {
            "type": "error",
            "name": "OwnableInvalidOwner",
            "inputs": [
                {
                    "name": "owner",
                    "type": "address",
                    "internalType": "address"
                }
            ]
        },
        {
            "type": "error",
            "name": "OwnableUnauthorizedAccount",
            "inputs": [
                {
                    "name": "account",
                    "type": "address",
                    "internalType": "address"
                }
            ]
        },
        {
            "type": "error",
            "name": "YoyoNft__CallValidFunctionToInteractWithContract",
            "inputs": []
        },
        {
            "type": "error",
            "name": "YoyoNft__ContractBalanceIsZero",
            "inputs": []
        },
        {
            "type": "error",
            "name": "YoyoNft__InvalidAddress",
            "inputs": []
        },
        {
            "type": "error",
            "name": "YoyoNft__NftAlreadyMinted",
            "inputs": []
        },
        {
            "type": "error",
            "name": "YoyoNft__NftMaxSupplyReached",
            "inputs": []
        },
        {
            "type": "error",
            "name": "YoyoNft__NftNotMinted",
            "inputs": []
        },
        {
            "type": "error",
            "name": "YoyoNft__NotAuctionContract",
            "inputs": []
        },
        {
            "type": "error",
            "name": "YoyoNft__NotEnoughEtherSent",
            "inputs": []
        },
        {
            "type": "error",
            "name": "YoyoNft__NotNftOwner",
            "inputs": []
        },
        {
            "type": "error",
            "name": "YoyoNft__ThisContractDoesntAcceptDeposit",
            "inputs": []
        },
        {
            "type": "error",
            "name": "YoyoNft__TokenIdDoesNotExist",
            "inputs": []
        },
        {
            "type": "error",
            "name": "YoyoNft__ValueCantBeZero",
            "inputs": []
        },
        {
            "type": "error",
            "name": "YoyoNft__WithdrawFailed",
            "inputs": []
        }
    ],
    "bytecode": {
        "object": "0x60a060405234801561000f575f5ffd5b5060405161382b38038061382b8339818101604052810190610031919061056a565b336040518060400160405280600f81526020017f596f796f20436f6c6c656374696f6e00000000000000000000000000000000008152506040518060400160405280600481526020017f594f594f00000000000000000000000000000000000000000000000000000000815250815f90816100ac91906107b8565b5080600190816100bc91906107b8565b5050505f73ffffffffffffffffffffffffffffffffffffffff168173ffffffffffffffffffffffffffffffffffffffff160361012f575f6040517f1e4fbdf70000000000000000000000000000000000000000000000000000000081526004016101269190610896565b60405180910390fd5b61013e8161024860201b60201c565b505f815f0151510361017c576040517ff6a9eca700000000000000000000000000000000000000000000000000000000815260040160405180910390fd5b5f73ffffffffffffffffffffffffffffffffffffffff16816020015173ffffffffffffffffffffffffffffffffffffffff16036101e5576040517f3156c01600000000000000000000000000000000000000000000000000000000815260040160405180910390fd5b805f0151600990816101f791906107b8565b505f600781905550806020015173ffffffffffffffffffffffffffffffffffffffff1660808173ffffffffffffffffffffffffffffffffffffffff16815250508060400151600881905550506108af565b5f60065f9054906101000a900473ffffffffffffffffffffffffffffffffffffffff1690508160065f6101000a81548173ffffffffffffffffffffffffffffffffffffffff021916908373ffffffffffffffffffffffffffffffffffffffff1602179055508173ffffffffffffffffffffffffffffffffffffffff168173ffffffffffffffffffffffffffffffffffffffff167f8be0079c531659141344cd1fd0a4f28419497f9722a3daafe3b4186f6b6457e060405160405180910390a35050565b5f604051905090565b5f5ffd5b5f5ffd5b5f5ffd5b5f601f19601f8301169050919050565b7f4e487b71000000000000000000000000000000000000000000000000000000005f52604160045260245ffd5b61036682610320565b810181811067ffffffffffffffff8211171561038557610384610330565b5b80604052505050565b5f61039761030b565b90506103a3828261035d565b919050565b5f5ffd5b5f5ffd5b5f5ffd5b5f67ffffffffffffffff8211156103ce576103cd610330565b5b6103d782610320565b9050602081019050919050565b8281835e5f83830152505050565b5f6104046103ff846103b4565b61038e565b9050828152602081018484840111156104205761041f6103b0565b5b61042b8482856103e4565b509392505050565b5f82601f830112610447576104466103ac565b5b81516104578482602086016103f2565b91505092915050565b5f73ffffffffffffffffffffffffffffffffffffffff82169050919050565b5f61048982610460565b9050919050565b6104998161047f565b81146104a3575f5ffd5b50565b5f815190506104b481610490565b92915050565b5f819050919050565b6104cc816104ba565b81146104d6575f5ffd5b50565b5f815190506104e7816104c3565b92915050565b5f606082840312156105025761050161031c565b5b61050c606061038e565b90505f82015167ffffffffffffffff81111561052b5761052a6103a8565b5b61053784828501610433565b5f83015250602061054a848285016104a6565b602083015250604061055e848285016104d9565b60408301525092915050565b5f6020828403121561057f5761057e610314565b5b5f82015167ffffffffffffffff81111561059c5761059b610318565b5b6105a8848285016104ed565b91505092915050565b5f81519050919050565b7f4e487b71000000000000000000000000000000000000000000000000000000005f52602260045260245ffd5b5f60028204905060018216806105ff57607f821691505b602082108103610612576106116105bb565b5b50919050565b5f819050815f5260205f209050919050565b5f6020601f8301049050919050565b5f82821b905092915050565b5f600883026106747fffffffffffffffffffffffffffffffffffffffffffffffffffffffffffffffff82610639565b61067e8683610639565b95508019841693508086168417925050509392505050565b5f819050919050565b5f6106b96106b46106af846104ba565b610696565b6104ba565b9050919050565b5f819050919050565b6106d28361069f565b6106e66106de826106c0565b848454610645565b825550505050565b5f5f905090565b6106fd6106ee565b6107088184846106c9565b505050565b5b8181101561072b576107205f826106f5565b60018101905061070e565b5050565b601f8211156107705761074181610618565b61074a8461062a565b81016020851015610759578190505b61076d6107658561062a565b83018261070d565b50505b505050565b5f82821c905092915050565b5f6107905f1984600802610775565b1980831691505092915050565b5f6107a88383610781565b9150826002028217905092915050565b6107c1826105b1565b67ffffffffffffffff8111156107da576107d9610330565b5b6107e482546105e8565b6107ef82828561072f565b5f60209050601f831160018114610820575f841561080e578287015190505b610818858261079d565b86555061087f565b601f19841661082e86610618565b5f5b8281101561085557848901518255600182019150602085019450602081019050610830565b86831015610872578489015161086e601f891682610781565b8355505b6001600288020188555050505b505050505050565b6108908161047f565b82525050565b5f6020820190506108a95f830184610887565b92915050565b608051612f566108d55f395f8181610a5801528181610bcb01526111990152612f565ff3fe6080604052600436106101d0575f3560e01c8063715018a6116100f6578063b5077f4411610094578063d0e30db011610063578063d0e30db0146106d7578063d1194e2b146106e1578063e985e9c5146106fd578063f2fde38b1461073957610207565b8063b5077f441461061f578063b88d4fde14610649578063c4e41b2214610671578063c87b56dd1461069b57610207565b806393423e9c116100d057806393423e9c1461055557806395d89b4114610591578063a22cb465146105bb578063aac571e7146105e357610207565b8063715018a6146104eb578063754ea159146105015780638da5cb5b1461052b57610207565b806336c157f41161016e57806360cc11211161013d57806360cc1121146104215780636352211e1461044957806370a0823114610485578063714c5398146104c157610207565b806336c157f4146103915780633ccfd60b146103bb57806342842e0e146103d157806352dfd785146103f957610207565b8063095ea7b3116101aa578063095ea7b3146102db5780630ca1c5c9146103035780632168509e1461032d57806323b872dd1461036957610207565b806301ffc9a71461023957806306fdde0314610275578063081812fc1461029f57610207565b36610207576040517fba2b62bf00000000000000000000000000000000000000000000000000000000815260040160405180910390fd5b6040517f596ab9b500000000000000000000000000000000000000000000000000000000815260040160405180910390fd5b348015610244575f5ffd5b5061025f600480360381019061025a91906125bb565b610761565b60405161026c9190612600565b60405180910390f35b348015610280575f5ffd5b50610289610842565b6040516102969190612689565b60405180910390f35b3480156102aa575f5ffd5b506102c560048036038101906102c091906126dc565b6108d1565b6040516102d29190612746565b60405180910390f35b3480156102e6575f5ffd5b5061030160048036038101906102fc9190612789565b6108ec565b005b34801561030e575f5ffd5b50610317610902565b60405161032491906127d6565b60405180910390f35b348015610338575f5ffd5b50610353600480360381019061034e91906126dc565b61090b565b6040516103609190612600565b60405180910390f35b348015610374575f5ffd5b5061038f600480360381019061038a91906127ef565b610956565b005b34801561039c575f5ffd5b506103a5610a55565b6040516103b29190612746565b60405180910390f35b3480156103c6575f5ffd5b506103cf610a7c565b005b3480156103dc575f5ffd5b506103f760048036038101906103f291906127ef565b610baa565b005b348015610404575f5ffd5b5061041f600480360381019061041a91906126dc565b610bc9565b005b34801561042c575f5ffd5b5061044760048036038101906104429190612789565b610cca565b005b348015610454575f5ffd5b5061046f600480360381019061046a91906126dc565b610dab565b60405161047c9190612746565b60405180910390f35b348015610490575f5ffd5b506104ab60048036038101906104a6919061283f565b610dbc565b6040516104b891906127d6565b60405180910390f35b3480156104cc575f5ffd5b506104d5610e72565b6040516104e29190612689565b60405180910390f35b3480156104f6575f5ffd5b506104ff610f02565b005b34801561050c575f5ffd5b50610515610f15565b60405161052291906127d6565b60405180910390f35b348015610536575f5ffd5b5061053f610f1e565b60405161054c9190612746565b60405180910390f35b348015610560575f5ffd5b5061057b6004803603810190610576919061283f565b610f46565b60405161058891906127d6565b60405180910390f35b34801561059c575f5ffd5b506105a5610f57565b6040516105b29190612689565b60405180910390f35b3480156105c6575f5ffd5b506105e160048036038101906105dc9190612894565b610fe7565b005b3480156105ee575f5ffd5b50610609600480360381019061060491906126dc565b610ffd565b6040516106169190612746565b60405180910390f35b34801561062a575f5ffd5b5061063361100e565b60405161064091906127d6565b60405180910390f35b348015610654575f5ffd5b5061066f600480360381019061066a91906129fe565b611013565b005b34801561067c575f5ffd5b50610685611038565b60405161069291906127d6565b60405180910390f35b3480156106a6575f5ffd5b506106c160048036038101906106bc91906126dc565b611040565b6040516106ce9190612689565b60405180910390f35b6106df61111b565b005b6106fb60048036038101906106f69190612789565b611197565b005b348015610708575f5ffd5b50610723600480360381019061071e9190612a7e565b611423565b6040516107309190612600565b60405180910390f35b348015610744575f5ffd5b5061075f600480360381019061075a919061283f565b6114b1565b005b5f7f80ac58cd000000000000000000000000000000000000000000000000000000007bffffffffffffffffffffffffffffffffffffffffffffffffffffffff1916827bffffffffffffffffffffffffffffffffffffffffffffffffffffffff1916148061082b57507f5b5e139f000000000000000000000000000000000000000000000000000000007bffffffffffffffffffffffffffffffffffffffffffffffffffffffff1916827bffffffffffffffffffffffffffffffffffffffffffffffffffffffff1916145b8061083b575061083a82611535565b5b9050919050565b60605f805461085090612ae9565b80601f016020809104026020016040519081016040528092919081815260200182805461087c90612ae9565b80156108c75780601f1061089e576101008083540402835291602001916108c7565b820191905f5260205f20905b8154815290600101906020018083116108aa57829003601f168201915b5050505050905090565b5f6108db8261159e565b506108e582611624565b9050919050565b6108fe82826108f961165d565b611664565b5050565b5f600754905090565b5f5f73ffffffffffffffffffffffffffffffffffffffff1661092c83611676565b73ffffffffffffffffffffffffffffffffffffffff1614801561094f5750601482105b9050919050565b5f73ffffffffffffffffffffffffffffffffffffffff168273ffffffffffffffffffffffffffffffffffffffff16036109c6575f6040517f64a0ae920000000000000000000000000000000000000000000000000000000081526004016109bd9190612746565b60405180910390fd5b5f6109d983836109d461165d565b6116af565b90508373ffffffffffffffffffffffffffffffffffffffff168173ffffffffffffffffffffffffffffffffffffffff1614610a4f578382826040517f64283d7b000000000000000000000000000000000000000000000000000000008152600401610a4693929190612b19565b60405180910390fd5b50505050565b5f7f0000000000000000000000000000000000000000000000000000000000000000905090565b610a846118ba565b5f4790505f8103610ac1576040517f1f9e6f6100000000000000000000000000000000000000000000000000000000815260040160405180910390fd5b5f610aca610f1e565b73ffffffffffffffffffffffffffffffffffffffff1682604051610aed90612b7b565b5f6040518083038185875af1925050503d805f8114610b27576040519150601f19603f3d011682016040523d82523d5f602084013e610b2c565b606091505b505090508015610b74577f244133ae393249b50158fcee03b2f90e952c950991943cfa0e921214ce225b528242604051610b67929190612b8f565b60405180910390a1610ba6565b6040517f38665e5700000000000000000000000000000000000000000000000000000000815260040160405180910390fd5b5050565b610bc483838360405180602001604052805f815250611013565b505050565b7f000000000000000000000000000000000000000000000000000000000000000073ffffffffffffffffffffffffffffffffffffffff163373ffffffffffffffffffffffffffffffffffffffff1614610c4e576040517fcd91621f00000000000000000000000000000000000000000000000000000000815260040160405180910390fd5b5f8103610c87576040517ff6a9eca700000000000000000000000000000000000000000000000000000000815260040160405180910390fd5b806008819055507f215fe26219f74f3af55712f111a1aed308c1eba8f9e7e6383a2e66396ae4b2c48142604051610cbf929190612b8f565b60405180910390a150565b5f73ffffffffffffffffffffffffffffffffffffffff168273ffffffffffffffffffffffffffffffffffffffff1603610d2f576040517f3156c01600000000000000000000000000000000000000000000000000000000815260040160405180910390fd5b3373ffffffffffffffffffffffffffffffffffffffff16610d4f82610dab565b73ffffffffffffffffffffffffffffffffffffffff1614610d9c576040517fcbf649cf00000000000000000000000000000000000000000000000000000000815260040160405180910390fd5b610da7338383611941565b5050565b5f610db58261159e565b9050919050565b5f5f73ffffffffffffffffffffffffffffffffffffffff168273ffffffffffffffffffffffffffffffffffffffff1603610e2d575f6040517f89c62b64000000000000000000000000000000000000000000000000000000008152600401610e249190612746565b60405180910390fd5b60035f8373ffffffffffffffffffffffffffffffffffffffff1673ffffffffffffffffffffffffffffffffffffffff1681526020019081526020015f20549050919050565b606060098054610e8190612ae9565b80601f0160208091040260200160405190810160405280929190818152602001828054610ead90612ae9565b8015610ef85780601f10610ecf57610100808354040283529160200191610ef8565b820191905f5260205f20905b815481529060010190602001808311610edb57829003601f168201915b5050505050905090565b610f0a6118ba565b610f135f611960565b565b5f600854905090565b5f60065f9054906101000a900473ffffffffffffffffffffffffffffffffffffffff16905090565b5f610f5082610dbc565b9050919050565b606060018054610f6690612ae9565b80601f0160208091040260200160405190810160405280929190818152602001828054610f9290612ae9565b8015610fdd5780601f10610fb457610100808354040283529160200191610fdd565b820191905f5260205f20905b815481529060010190602001808311610fc057829003601f168201915b5050505050905090565b610ff9610ff261165d565b8383611a23565b5050565b5f61100782610dab565b9050919050565b601481565b61101e848484610956565b61103261102961165d565b85858585611b8c565b50505050565b5f6014905090565b60606014821061107c576040517fb7e0afa800000000000000000000000000000000000000000000000000000000815260040160405180910390fd5b5f73ffffffffffffffffffffffffffffffffffffffff1661109c83611676565b73ffffffffffffffffffffffffffffffffffffffff16036110e9576040517f20bd981e00000000000000000000000000000000000000000000000000000000815260040160405180910390fd5b60096110f483611d38565b604051602001611105929190612d16565b6040516020818303038152906040529050919050565b6111236118ba565b5f340361115c576040517ff6a9eca700000000000000000000000000000000000000000000000000000000815260040160405180910390fd5b7f7a9c845e9b89fb956712c5767475769f83e1839c0f96d6b42d4920954199b441344260405161118d929190612b8f565b60405180910390a1565b7f000000000000000000000000000000000000000000000000000000000000000073ffffffffffffffffffffffffffffffffffffffff163373ffffffffffffffffffffffffffffffffffffffff161461121c576040517fcd91621f00000000000000000000000000000000000000000000000000000000815260040160405180910390fd5b601460075403611258576040517fef11336c00000000000000000000000000000000000000000000000000000000815260040160405180910390fd5b5f73ffffffffffffffffffffffffffffffffffffffff1661127882611676565b73ffffffffffffffffffffffffffffffffffffffff16146112c5576040517f2d2101f700000000000000000000000000000000000000000000000000000000815260040160405180910390fd5b601481106112ff576040517fb7e0afa800000000000000000000000000000000000000000000000000000000815260040160405180910390fd5b60085434101561133b576040517fb2e0353400000000000000000000000000000000000000000000000000000000815260040160405180910390fd5b5f73ffffffffffffffffffffffffffffffffffffffff168273ffffffffffffffffffffffffffffffffffffffff16036113a0576040517f3156c01600000000000000000000000000000000000000000000000000000000815260040160405180910390fd5b6113aa8282611e02565b5f6113b482611040565b905060075f8154809291906113c890612d7c565b9190505550818373ffffffffffffffffffffffffffffffffffffffff167fc26dcb63abbc06b32028a4124cebae9d3b28c43409e6831c99972c4fee8e25f38342604051611416929190612dc3565b60405180910390a3505050565b5f60055f8473ffffffffffffffffffffffffffffffffffffffff1673ffffffffffffffffffffffffffffffffffffffff1681526020019081526020015f205f8373ffffffffffffffffffffffffffffffffffffffff1673ffffffffffffffffffffffffffffffffffffffff1681526020019081526020015f205f9054906101000a900460ff16905092915050565b6114b96118ba565b5f73ffffffffffffffffffffffffffffffffffffffff168173ffffffffffffffffffffffffffffffffffffffff1603611529575f6040517f1e4fbdf70000000000000000000000000000000000000000000000000000000081526004016115209190612746565b60405180910390fd5b61153281611960565b50565b5f7f01ffc9a7000000000000000000000000000000000000000000000000000000007bffffffffffffffffffffffffffffffffffffffffffffffffffffffff1916827bffffffffffffffffffffffffffffffffffffffffffffffffffffffff1916149050919050565b5f5f6115a983611676565b90505f73ffffffffffffffffffffffffffffffffffffffff168173ffffffffffffffffffffffffffffffffffffffff160361161b57826040517f7e27328900000000000000000000000000000000000000000000000000000000815260040161161291906127d6565b60405180910390fd5b80915050919050565b5f60045f8381526020019081526020015f205f9054906101000a900473ffffffffffffffffffffffffffffffffffffffff169050919050565b5f33905090565b6116718383836001611e1f565b505050565b5f60025f8381526020019081526020015f205f9054906101000a900473ffffffffffffffffffffffffffffffffffffffff169050919050565b5f5f6116ba84611676565b90505f73ffffffffffffffffffffffffffffffffffffffff168373ffffffffffffffffffffffffffffffffffffffff16146116fb576116fa818486611fde565b5b5f73ffffffffffffffffffffffffffffffffffffffff168173ffffffffffffffffffffffffffffffffffffffff16146117865761173a5f855f5f611e1f565b600160035f8373ffffffffffffffffffffffffffffffffffffffff1673ffffffffffffffffffffffffffffffffffffffff1681526020019081526020015f205f82825403925050819055505b5f73ffffffffffffffffffffffffffffffffffffffff168573ffffffffffffffffffffffffffffffffffffffff161461180557600160035f8773ffffffffffffffffffffffffffffffffffffffff1673ffffffffffffffffffffffffffffffffffffffff1681526020019081526020015f205f82825401925050819055505b8460025f8681526020019081526020015f205f6101000a81548173ffffffffffffffffffffffffffffffffffffffff021916908373ffffffffffffffffffffffffffffffffffffffff160217905550838573ffffffffffffffffffffffffffffffffffffffff168273ffffffffffffffffffffffffffffffffffffffff167fddf252ad1be2c89b69c2b068fc378daa952ba7f163c4a11628f55a4df523b3ef60405160405180910390a4809150509392505050565b6118c261165d565b73ffffffffffffffffffffffffffffffffffffffff166118e0610f1e565b73ffffffffffffffffffffffffffffffffffffffff161461193f5761190361165d565b6040517f118cdaa70000000000000000000000000000000000000000000000000000000081526004016119369190612746565b60405180910390fd5b565b61195b83838360405180602001604052805f8152506120a1565b505050565b5f60065f9054906101000a900473ffffffffffffffffffffffffffffffffffffffff1690508160065f6101000a81548173ffffffffffffffffffffffffffffffffffffffff021916908373ffffffffffffffffffffffffffffffffffffffff1602179055508173ffffffffffffffffffffffffffffffffffffffff168173ffffffffffffffffffffffffffffffffffffffff167f8be0079c531659141344cd1fd0a4f28419497f9722a3daafe3b4186f6b6457e060405160405180910390a35050565b5f73ffffffffffffffffffffffffffffffffffffffff168273ffffffffffffffffffffffffffffffffffffffff1603611a9357816040517f5b08ba18000000000000000000000000000000000000000000000000000000008152600401611a8a9190612746565b60405180910390fd5b8060055f8573ffffffffffffffffffffffffffffffffffffffff1673ffffffffffffffffffffffffffffffffffffffff1681526020019081526020015f205f8473ffffffffffffffffffffffffffffffffffffffff1673ffffffffffffffffffffffffffffffffffffffff1681526020019081526020015f205f6101000a81548160ff0219169083151502179055508173ffffffffffffffffffffffffffffffffffffffff168373ffffffffffffffffffffffffffffffffffffffff167f17307eab39ab6107e8899845ad3d59bd9653f200f220920489ca2b5937696c3183604051611b7f9190612600565b60405180910390a3505050565b5f8373ffffffffffffffffffffffffffffffffffffffff163b1115611d31578273ffffffffffffffffffffffffffffffffffffffff1663150b7a02868685856040518563ffffffff1660e01b8152600401611bea9493929190612e43565b6020604051808303815f875af1925050508015611c2557506040513d601f19601f82011682018060405250810190611c229190612ea1565b60015b611ca6573d805f8114611c53576040519150601f19603f3d011682016040523d82523d5f602084013e611c58565b606091505b505f815103611c9e57836040517f64a0ae92000000000000000000000000000000000000000000000000000000008152600401611c959190612746565b60405180910390fd5b805181602001fd5b63150b7a0260e01b7bffffffffffffffffffffffffffffffffffffffffffffffffffffffff1916817bffffffffffffffffffffffffffffffffffffffffffffffffffffffff191614611d2f57836040517f64a0ae92000000000000000000000000000000000000000000000000000000008152600401611d269190612746565b60405180910390fd5b505b5050505050565b60605f6001611d46846120c6565b0190505f8167ffffffffffffffff811115611d6457611d636128da565b5b6040519080825280601f01601f191660200182016040528015611d965781602001600182028036833780820191505090505b5090505f82602001820190505b600115611df7578080600190039150507f3031323334353637383961626364656600000000000000000000000000000000600a86061a8153600a8581611dec57611deb612ecc565b5b0494505f8503611da3575b819350505050919050565b611e1b828260405180602001604052805f815250612217565b5050565b8080611e5757505f73ffffffffffffffffffffffffffffffffffffffff168273ffffffffffffffffffffffffffffffffffffffff1614155b15611f89575f611e668461159e565b90505f73ffffffffffffffffffffffffffffffffffffffff168373ffffffffffffffffffffffffffffffffffffffff1614158015611ed057508273ffffffffffffffffffffffffffffffffffffffff168173ffffffffffffffffffffffffffffffffffffffff1614155b8015611ee35750611ee18184611423565b155b15611f2557826040517fa9fbf51f000000000000000000000000000000000000000000000000000000008152600401611f1c9190612746565b60405180910390fd5b8115611f8757838573ffffffffffffffffffffffffffffffffffffffff168273ffffffffffffffffffffffffffffffffffffffff167f8c5be1e5ebec7d5bd14f71427d1e84f3dd0314c0f7b2291e5b200ac8c7c3b92560405160405180910390a45b505b8360045f8581526020019081526020015f205f6101000a81548173ffffffffffffffffffffffffffffffffffffffff021916908373ffffffffffffffffffffffffffffffffffffffff16021790555050505050565b611fe983838361223a565b61209c575f73ffffffffffffffffffffffffffffffffffffffff168373ffffffffffffffffffffffffffffffffffffffff160361205d57806040517f7e27328900000000000000000000000000000000000000000000000000000000815260040161205491906127d6565b60405180910390fd5b81816040517f177e802f000000000000000000000000000000000000000000000000000000008152600401612093929190612ef9565b60405180910390fd5b505050565b6120ac8484846122fa565b6120c06120b761165d565b85858585611b8c565b50505050565b5f5f5f90507a184f03e93ff9f4daa797ed6e38ed64bf6a1f0100000000000000008310612122577a184f03e93ff9f4daa797ed6e38ed64bf6a1f010000000000000000838161211857612117612ecc565b5b0492506040810190505b6d04ee2d6d415b85acef8100000000831061215f576d04ee2d6d415b85acef8100000000838161215557612154612ecc565b5b0492506020810190505b662386f26fc10000831061218e57662386f26fc10000838161218457612183612ecc565b5b0492506010810190505b6305f5e10083106121b7576305f5e10083816121ad576121ac612ecc565b5b0492506008810190505b61271083106121dc5761271083816121d2576121d1612ecc565b5b0492506004810190505b606483106121ff57606483816121f5576121f4612ecc565b5b0492506002810190505b600a831061220e576001810190505b80915050919050565b6122218383612462565b61223561222c61165d565b5f858585611b8c565b505050565b5f5f73ffffffffffffffffffffffffffffffffffffffff168373ffffffffffffffffffffffffffffffffffffffff16141580156122f157508273ffffffffffffffffffffffffffffffffffffffff168473ffffffffffffffffffffffffffffffffffffffff1614806122b257506122b18484611423565b5b806122f057508273ffffffffffffffffffffffffffffffffffffffff166122d883611624565b73ffffffffffffffffffffffffffffffffffffffff16145b5b90509392505050565b5f73ffffffffffffffffffffffffffffffffffffffff168273ffffffffffffffffffffffffffffffffffffffff160361236a575f6040517f64a0ae920000000000000000000000000000000000000000000000000000000081526004016123619190612746565b60405180910390fd5b5f61237683835f6116af565b90505f73ffffffffffffffffffffffffffffffffffffffff168173ffffffffffffffffffffffffffffffffffffffff16036123e857816040517f7e2732890000000000000000000000000000000000000000000000000000000081526004016123df91906127d6565b60405180910390fd5b8373ffffffffffffffffffffffffffffffffffffffff168173ffffffffffffffffffffffffffffffffffffffff161461245c578382826040517f64283d7b00000000000000000000000000000000000000000000000000000000815260040161245393929190612b19565b60405180910390fd5b50505050565b5f73ffffffffffffffffffffffffffffffffffffffff168273ffffffffffffffffffffffffffffffffffffffff16036124d2575f6040517f64a0ae920000000000000000000000000000000000000000000000000000000081526004016124c99190612746565b60405180910390fd5b5f6124de83835f6116af565b90505f73ffffffffffffffffffffffffffffffffffffffff168173ffffffffffffffffffffffffffffffffffffffff1614612550575f6040517f73c6ac6e0000000000000000000000000000000000000000000000000000000081526004016125479190612746565b60405180910390fd5b505050565b5f604051905090565b5f5ffd5b5f5ffd5b5f7fffffffff0000000000000000000000000000000000000000000000000000000082169050919050565b61259a81612566565b81146125a4575f5ffd5b50565b5f813590506125b581612591565b92915050565b5f602082840312156125d0576125cf61255e565b5b5f6125dd848285016125a7565b91505092915050565b5f8115159050919050565b6125fa816125e6565b82525050565b5f6020820190506126135f8301846125f1565b92915050565b5f81519050919050565b5f82825260208201905092915050565b8281835e5f83830152505050565b5f601f19601f8301169050919050565b5f61265b82612619565b6126658185612623565b9350612675818560208601612633565b61267e81612641565b840191505092915050565b5f6020820190508181035f8301526126a18184612651565b905092915050565b5f819050919050565b6126bb816126a9565b81146126c5575f5ffd5b50565b5f813590506126d6816126b2565b92915050565b5f602082840312156126f1576126f061255e565b5b5f6126fe848285016126c8565b91505092915050565b5f73ffffffffffffffffffffffffffffffffffffffff82169050919050565b5f61273082612707565b9050919050565b61274081612726565b82525050565b5f6020820190506127595f830184612737565b92915050565b61276881612726565b8114612772575f5ffd5b50565b5f813590506127838161275f565b92915050565b5f5f6040838503121561279f5761279e61255e565b5b5f6127ac85828601612775565b92505060206127bd858286016126c8565b9150509250929050565b6127d0816126a9565b82525050565b5f6020820190506127e95f8301846127c7565b92915050565b5f5f5f606084860312156128065761280561255e565b5b5f61281386828701612775565b935050602061282486828701612775565b9250506040612835868287016126c8565b9150509250925092565b5f602082840312156128545761285361255e565b5b5f61286184828501612775565b91505092915050565b612873816125e6565b811461287d575f5ffd5b50565b5f8135905061288e8161286a565b92915050565b5f5f604083850312156128aa576128a961255e565b5b5f6128b785828601612775565b92505060206128c885828601612880565b9150509250929050565b5f5ffd5b5f5ffd5b7f4e487b71000000000000000000000000000000000000000000000000000000005f52604160045260245ffd5b61291082612641565b810181811067ffffffffffffffff8211171561292f5761292e6128da565b5b80604052505050565b5f612941612555565b905061294d8282612907565b919050565b5f67ffffffffffffffff82111561296c5761296b6128da565b5b61297582612641565b9050602081019050919050565b828183375f83830152505050565b5f6129a261299d84612952565b612938565b9050828152602081018484840111156129be576129bd6128d6565b5b6129c9848285612982565b509392505050565b5f82601f8301126129e5576129e46128d2565b5b81356129f5848260208601612990565b91505092915050565b5f5f5f5f60808587031215612a1657612a1561255e565b5b5f612a2387828801612775565b9450506020612a3487828801612775565b9350506040612a45878288016126c8565b925050606085013567ffffffffffffffff811115612a6657612a65612562565b5b612a72878288016129d1565b91505092959194509250565b5f5f60408385031215612a9457612a9361255e565b5b5f612aa185828601612775565b9250506020612ab285828601612775565b9150509250929050565b7f4e487b71000000000000000000000000000000000000000000000000000000005f52602260045260245ffd5b5f6002820490506001821680612b0057607f821691505b602082108103612b1357612b12612abc565b5b50919050565b5f606082019050612b2c5f830186612737565b612b3960208301856127c7565b612b466040830184612737565b949350505050565b5f81905092915050565b50565b5f612b665f83612b4e565b9150612b7182612b58565b5f82019050919050565b5f612b8582612b5b565b9150819050919050565b5f604082019050612ba25f8301856127c7565b612baf60208301846127c7565b9392505050565b5f81905092915050565b5f819050815f5260205f209050919050565b5f8154612bde81612ae9565b612be88186612bb6565b9450600182165f8114612c025760018114612c1757612c49565b60ff1983168652811515820286019350612c49565b612c2085612bc0565b5f5b83811015612c4157815481890152600182019150602081019050612c22565b838801955050505b50505092915050565b7f2f000000000000000000000000000000000000000000000000000000000000005f82015250565b5f612c86600183612bb6565b9150612c9182612c52565b600182019050919050565b5f612ca682612619565b612cb08185612bb6565b9350612cc0818560208601612633565b80840191505092915050565b7f2e6a736f6e0000000000000000000000000000000000000000000000000000005f82015250565b5f612d00600583612bb6565b9150612d0b82612ccc565b600582019050919050565b5f612d218285612bd2565b9150612d2c82612c7a565b9150612d388284612c9c565b9150612d4382612cf4565b91508190509392505050565b7f4e487b71000000000000000000000000000000000000000000000000000000005f52601160045260245ffd5b5f612d86826126a9565b91507fffffffffffffffffffffffffffffffffffffffffffffffffffffffffffffffff8203612db857612db7612d4f565b5b600182019050919050565b5f6040820190508181035f830152612ddb8185612651565b9050612dea60208301846127c7565b9392505050565b5f81519050919050565b5f82825260208201905092915050565b5f612e1582612df1565b612e1f8185612dfb565b9350612e2f818560208601612633565b612e3881612641565b840191505092915050565b5f608082019050612e565f830187612737565b612e636020830186612737565b612e7060408301856127c7565b8181036060830152612e828184612e0b565b905095945050505050565b5f81519050612e9b81612591565b92915050565b5f60208284031215612eb657612eb561255e565b5b5f612ec384828501612e8d565b91505092915050565b7f4e487b71000000000000000000000000000000000000000000000000000000005f52601260045260245ffd5b5f604082019050612f0c5f830185612737565b612f1960208301846127c7565b939250505056fea2646970667358221220446d53422b51cbcac5632f947e1d3abd09e11aaa89be37601db70abbbdc64f5764736f6c634300081e0033",
        "linkReferences": {}
    },
    "methodIdentifiers": {
        "MAX_NFT_SUPPLY()": "b5077f44",
        "approve(address,uint256)": "095ea7b3",
        "balanceOf(address)": "70a08231",
        "deposit()": "d0e30db0",
        "getAccountBalance(address)": "93423e9c",
        "getApproved(uint256)": "081812fc",
        "getAuctionContract()": "36c157f4",
        "getBaseURI()": "714c5398",
        "getBasicMintPrice()": "754ea159",
        "getIfTokenIdIsMintable(uint256)": "2168509e",
        "getOwnerFromTokenId(uint256)": "aac571e7",
        "getTotalMinted()": "0ca1c5c9",
        "getTotalSupply()": "c4e41b22",
        "isApprovedForAll(address,address)": "e985e9c5",
        "mintNft(address,uint256)": "d1194e2b",
        "name()": "06fdde03",
        "owner()": "8da5cb5b",
        "ownerOf(uint256)": "6352211e",
        "renounceOwnership()": "715018a6",
        "safeTransferFrom(address,address,uint256)": "42842e0e",
        "safeTransferFrom(address,address,uint256,bytes)": "b88d4fde",
        "setApprovalForAll(address,bool)": "a22cb465",
        "setBasicMintPrice(uint256)": "52dfd785",
        "supportsInterface(bytes4)": "01ffc9a7",
        "symbol()": "95d89b41",
        "tokenURI(uint256)": "c87b56dd",
        "transferFrom(address,address,uint256)": "23b872dd",
        "transferNft(address,uint256)": "60cc1121",
        "transferOwnership(address)": "f2fde38b",
        "withdraw()": "3ccfd60b"
    },
    "id": 52
}