{"abi":[{"type":"constructor","inputs":[{"name":"_params","type":"tuple","internalType":"struct ConstructorParams","components":[{"name":"baseURI","type":"string","internalType":"string"},{"name":"auctionContract","type":"address","internalType":"address"},{"name":"basicMintPrice","type":"uint256","internalType":"uint256"}]}],"stateMutability":"nonpayable"},{"type":"receive","stateMutability":"payable"},{"type":"function","name":"callWithdrawFromNftContract","inputs":[{"name":"yoyoNftContract","type":"address","internalType":"address payable"}],"outputs":[],"stateMutability":"nonpayable"},{"type":"function","name":"getNftContract","inputs":[],"outputs":[{"name":"","type":"address","internalType":"contract YoyoNft"}],"stateMutability":"view"},{"type":"function","name":"nftContract","inputs":[],"outputs":[{"name":"","type":"address","internalType":"contract YoyoNft"}],"stateMutability":"view"},{"type":"function","name":"payAuctionContract","inputs":[{"name":"yoyoAuctionContract","type":"address","internalType":"address payable"},{"name":"auctionId","type":"uint256","internalType":"uint256"}],"outputs":[],"stateMutability":"payable"},{"type":"error","name":"RevertOnReceiverMock__ThisContractDoesntAcceptDeposit","inputs":[]}],"bytecode":{"object":"0x608060405234801561000f575f5ffd5b5060405161402738038061402783398181016040528101906100319190610312565b8060405161003e906100a6565b6100489190610416565b604051809103905ff080158015610061573d5f5f3e3d5ffd5b505f5f6101000a81548173ffffffffffffffffffffffffffffffffffffffff021916908373ffffffffffffffffffffffffffffffffffffffff16021790555050610436565b6137ee8061083983390190565b5f604051905090565b5f5ffd5b5f5ffd5b5f5ffd5b5f601f19601f8301169050919050565b7f4e487b71000000000000000000000000000000000000000000000000000000005f52604160045260245ffd5b61010e826100c8565b810181811067ffffffffffffffff8211171561012d5761012c6100d8565b5b80604052505050565b5f61013f6100b3565b905061014b8282610105565b919050565b5f5ffd5b5f5ffd5b5f5ffd5b5f67ffffffffffffffff821115610176576101756100d8565b5b61017f826100c8565b9050602081019050919050565b8281835e5f83830152505050565b5f6101ac6101a78461015c565b610136565b9050828152602081018484840111156101c8576101c7610158565b5b6101d384828561018c565b509392505050565b5f82601f8301126101ef576101ee610154565b5b81516101ff84826020860161019a565b91505092915050565b5f73ffffffffffffffffffffffffffffffffffffffff82169050919050565b5f61023182610208565b9050919050565b61024181610227565b811461024b575f5ffd5b50565b5f8151905061025c81610238565b92915050565b5f819050919050565b61027481610262565b811461027e575f5ffd5b50565b5f8151905061028f8161026b565b92915050565b5f606082840312156102aa576102a96100c4565b5b6102b46060610136565b90505f82015167ffffffffffffffff8111156102d3576102d2610150565b5b6102df848285016101db565b5f8301525060206102f28482850161024e565b602083015250604061030684828501610281565b60408301525092915050565b5f60208284031215610327576103266100bc565b5b5f82015167ffffffffffffffff811115610344576103436100c0565b5b61035084828501610295565b91505092915050565b5f81519050919050565b5f82825260208201905092915050565b5f61037d82610359565b6103878185610363565b935061039781856020860161018c565b6103a0816100c8565b840191505092915050565b6103b481610227565b82525050565b6103c381610262565b82525050565b5f606083015f8301518482035f8601526103e38282610373565b91505060208301516103f860208601826103ab565b50604083015161040b60408601826103ba565b508091505092915050565b5f6020820190508181035f83015261042e81846103c9565b905092915050565b6103f6806104435f395ff3fe608060405260043610610042575f3560e01c806346359ab61461007d578063667c99de146100a55780637f255f59146100cf578063d56d229d146100eb57610079565b36610079576040517f5b9c5db900000000000000000000000000000000000000000000000000000000815260040160405180910390fd5b5f5ffd5b348015610088575f5ffd5b506100a3600480360381019061009e9190610288565b610115565b005b3480156100b0575f5ffd5b506100b9610173565b6040516100c6919061030e565b60405180910390f35b6100e960048036038101906100e4919061035a565b61019a565b005b3480156100f6575f5ffd5b506100ff610206565b60405161010c919061030e565b60405180910390f35b8073ffffffffffffffffffffffffffffffffffffffff16633ccfd60b6040518163ffffffff1660e01b81526004015f604051808303815f87803b15801561015a575f5ffd5b505af115801561016c573d5f5f3e3d5ffd5b5050505050565b5f5f5f9054906101000a900473ffffffffffffffffffffffffffffffffffffffff16905090565b8173ffffffffffffffffffffffffffffffffffffffff1663aadd577e34836040518363ffffffff1660e01b81526004016101d491906103a7565b5f604051808303818588803b1580156101eb575f5ffd5b505af11580156101fd573d5f5f3e3d5ffd5b50505050505050565b5f5f9054906101000a900473ffffffffffffffffffffffffffffffffffffffff1681565b5f5ffd5b5f73ffffffffffffffffffffffffffffffffffffffff82169050919050565b5f6102578261022e565b9050919050565b6102678161024d565b8114610271575f5ffd5b50565b5f813590506102828161025e565b92915050565b5f6020828403121561029d5761029c61022a565b5b5f6102aa84828501610274565b91505092915050565b5f819050919050565b5f6102d66102d16102cc8461022e565b6102b3565b61022e565b9050919050565b5f6102e7826102bc565b9050919050565b5f6102f8826102dd565b9050919050565b610308816102ee565b82525050565b5f6020820190506103215f8301846102ff565b92915050565b5f819050919050565b61033981610327565b8114610343575f5ffd5b50565b5f8135905061035481610330565b92915050565b5f5f604083850312156103705761036f61022a565b5b5f61037d85828601610274565b925050602061038e85828601610346565b9150509250929050565b6103a181610327565b82525050565b5f6020820190506103ba5f830184610398565b9291505056fea2646970667358221220500e6c6435c3572f2a4633b4a08408a538867eccc6cf802f3178346d0f2964a964736f6c634300081e003360a060405234801561000f575f5ffd5b506040516137ee3803806137ee8339818101604052810190610031919061056a565b336040518060400160405280600f81526020017f596f796f20436f6c6c656374696f6e00000000000000000000000000000000008152506040518060400160405280600481526020017f594f594f00000000000000000000000000000000000000000000000000000000815250815f90816100ac91906107b8565b5080600190816100bc91906107b8565b5050505f73ffffffffffffffffffffffffffffffffffffffff168173ffffffffffffffffffffffffffffffffffffffff160361012f575f6040517f1e4fbdf70000000000000000000000000000000000000000000000000000000081526004016101269190610896565b60405180910390fd5b61013e8161024860201b60201c565b505f815f0151510361017c576040517ff6a9eca700000000000000000000000000000000000000000000000000000000815260040160405180910390fd5b5f73ffffffffffffffffffffffffffffffffffffffff16816020015173ffffffffffffffffffffffffffffffffffffffff16036101e5576040517f3156c01600000000000000000000000000000000000000000000000000000000815260040160405180910390fd5b805f0151600990816101f791906107b8565b505f600781905550806020015173ffffffffffffffffffffffffffffffffffffffff1660808173ffffffffffffffffffffffffffffffffffffffff16815250508060400151600881905550506108af565b5f60065f9054906101000a900473ffffffffffffffffffffffffffffffffffffffff1690508160065f6101000a81548173ffffffffffffffffffffffffffffffffffffffff021916908373ffffffffffffffffffffffffffffffffffffffff1602179055508173ffffffffffffffffffffffffffffffffffffffff168173ffffffffffffffffffffffffffffffffffffffff167f8be0079c531659141344cd1fd0a4f28419497f9722a3daafe3b4186f6b6457e060405160405180910390a35050565b5f604051905090565b5f5ffd5b5f5ffd5b5f5ffd5b5f601f19601f8301169050919050565b7f4e487b71000000000000000000000000000000000000000000000000000000005f52604160045260245ffd5b61036682610320565b810181811067ffffffffffffffff8211171561038557610384610330565b5b80604052505050565b5f61039761030b565b90506103a3828261035d565b919050565b5f5ffd5b5f5ffd5b5f5ffd5b5f67ffffffffffffffff8211156103ce576103cd610330565b5b6103d782610320565b9050602081019050919050565b8281835e5f83830152505050565b5f6104046103ff846103b4565b61038e565b9050828152602081018484840111156104205761041f6103b0565b5b61042b8482856103e4565b509392505050565b5f82601f830112610447576104466103ac565b5b81516104578482602086016103f2565b91505092915050565b5f73ffffffffffffffffffffffffffffffffffffffff82169050919050565b5f61048982610460565b9050919050565b6104998161047f565b81146104a3575f5ffd5b50565b5f815190506104b481610490565b92915050565b5f819050919050565b6104cc816104ba565b81146104d6575f5ffd5b50565b5f815190506104e7816104c3565b92915050565b5f606082840312156105025761050161031c565b5b61050c606061038e565b90505f82015167ffffffffffffffff81111561052b5761052a6103a8565b5b61053784828501610433565b5f83015250602061054a848285016104a6565b602083015250604061055e848285016104d9565b60408301525092915050565b5f6020828403121561057f5761057e610314565b5b5f82015167ffffffffffffffff81111561059c5761059b610318565b5b6105a8848285016104ed565b91505092915050565b5f81519050919050565b7f4e487b71000000000000000000000000000000000000000000000000000000005f52602260045260245ffd5b5f60028204905060018216806105ff57607f821691505b602082108103610612576106116105bb565b5b50919050565b5f819050815f5260205f209050919050565b5f6020601f8301049050919050565b5f82821b905092915050565b5f600883026106747fffffffffffffffffffffffffffffffffffffffffffffffffffffffffffffffff82610639565b61067e8683610639565b95508019841693508086168417925050509392505050565b5f819050919050565b5f6106b96106b46106af846104ba565b610696565b6104ba565b9050919050565b5f819050919050565b6106d28361069f565b6106e66106de826106c0565b848454610645565b825550505050565b5f5f905090565b6106fd6106ee565b6107088184846106c9565b505050565b5b8181101561072b576107205f826106f5565b60018101905061070e565b5050565b601f8211156107705761074181610618565b61074a8461062a565b81016020851015610759578190505b61076d6107658561062a565b83018261070d565b50505b505050565b5f82821c905092915050565b5f6107905f1984600802610775565b1980831691505092915050565b5f6107a88383610781565b9150826002028217905092915050565b6107c1826105b1565b67ffffffffffffffff8111156107da576107d9610330565b5b6107e482546105e8565b6107ef82828561072f565b5f60209050601f831160018114610820575f841561080e578287015190505b610818858261079d565b86555061087f565b601f19841661082e86610618565b5f5b8281101561085557848901518255600182019150602085019450602081019050610830565b86831015610872578489015161086e601f891682610781565b8355505b6001600288020188555050505b505050505050565b6108908161047f565b82525050565b5f6020820190506108a95f830184610887565b92915050565b608051612f196108d55f395f8181610a2301528181610b96015261115c0152612f195ff3fe6080604052600436106101c5575f3560e01c8063714c5398116100f6578063aac571e711610094578063d0e30db011610063578063d0e30db0146106a2578063d1194e2b146106ac578063e985e9c5146106c8578063f2fde38b14610704576101fc565b8063aac571e7146105d8578063b5077f4414610614578063b88d4fde1461063e578063c87b56dd14610666576101fc565b80638da5cb5b116100d05780638da5cb5b1461052057806393423e9c1461054a57806395d89b4114610586578063a22cb465146105b0576101fc565b8063714c5398146104b6578063715018a6146104e0578063754ea159146104f6576101fc565b806336c157f41161016357806352dfd7851161013d57806352dfd785146103ee57806360cc1121146104165780636352211e1461043e57806370a082311461047a576101fc565b806336c157f4146103865780633ccfd60b146103b057806342842e0e146103c6576101fc565b8063095ea7b31161019f578063095ea7b3146102d05780630ca1c5c9146102f85780632168509e1461032257806323b872dd1461035e576101fc565b806301ffc9a71461022e57806306fdde031461026a578063081812fc14610294576101fc565b366101fc576040517fba2b62bf00000000000000000000000000000000000000000000000000000000815260040160405180910390fd5b6040517f596ab9b500000000000000000000000000000000000000000000000000000000815260040160405180910390fd5b348015610239575f5ffd5b50610254600480360381019061024f919061257e565b61072c565b60405161026191906125c3565b60405180910390f35b348015610275575f5ffd5b5061027e61080d565b60405161028b919061264c565b60405180910390f35b34801561029f575f5ffd5b506102ba60048036038101906102b5919061269f565b61089c565b6040516102c79190612709565b60405180910390f35b3480156102db575f5ffd5b506102f660048036038101906102f1919061274c565b6108b7565b005b348015610303575f5ffd5b5061030c6108cd565b6040516103199190612799565b60405180910390f35b34801561032d575f5ffd5b506103486004803603810190610343919061269f565b6108d6565b60405161035591906125c3565b60405180910390f35b348015610369575f5ffd5b50610384600480360381019061037f91906127b2565b610921565b005b348015610391575f5ffd5b5061039a610a20565b6040516103a79190612709565b60405180910390f35b3480156103bb575f5ffd5b506103c4610a47565b005b3480156103d1575f5ffd5b506103ec60048036038101906103e791906127b2565b610b75565b005b3480156103f9575f5ffd5b50610414600480360381019061040f919061269f565b610b94565b005b348015610421575f5ffd5b5061043c6004803603810190610437919061274c565b610c95565b005b348015610449575f5ffd5b50610464600480360381019061045f919061269f565b610d76565b6040516104719190612709565b60405180910390f35b348015610485575f5ffd5b506104a0600480360381019061049b9190612802565b610d87565b6040516104ad9190612799565b60405180910390f35b3480156104c1575f5ffd5b506104ca610e3d565b6040516104d7919061264c565b60405180910390f35b3480156104eb575f5ffd5b506104f4610ecd565b005b348015610501575f5ffd5b5061050a610ee0565b6040516105179190612799565b60405180910390f35b34801561052b575f5ffd5b50610534610ee9565b6040516105419190612709565b60405180910390f35b348015610555575f5ffd5b50610570600480360381019061056b9190612802565b610f11565b60405161057d9190612799565b60405180910390f35b348015610591575f5ffd5b5061059a610f22565b6040516105a7919061264c565b60405180910390f35b3480156105bb575f5ffd5b506105d660048036038101906105d19190612857565b610fb2565b005b3480156105e3575f5ffd5b506105fe60048036038101906105f9919061269f565b610fc8565b60405161060b9190612709565b60405180910390f35b34801561061f575f5ffd5b50610628610fd9565b6040516106359190612799565b60405180910390f35b348015610649575f5ffd5b50610664600480360381019061065f91906129c1565b610fde565b005b348015610671575f5ffd5b5061068c6004803603810190610687919061269f565b611003565b604051610699919061264c565b60405180910390f35b6106aa6110de565b005b6106c660048036038101906106c1919061274c565b61115a565b005b3480156106d3575f5ffd5b506106ee60048036038101906106e99190612a41565b6113e6565b6040516106fb91906125c3565b60405180910390f35b34801561070f575f5ffd5b5061072a60048036038101906107259190612802565b611474565b005b5f7f80ac58cd000000000000000000000000000000000000000000000000000000007bffffffffffffffffffffffffffffffffffffffffffffffffffffffff1916827bffffffffffffffffffffffffffffffffffffffffffffffffffffffff191614806107f657507f5b5e139f000000000000000000000000000000000000000000000000000000007bffffffffffffffffffffffffffffffffffffffffffffffffffffffff1916827bffffffffffffffffffffffffffffffffffffffffffffffffffffffff1916145b806108065750610805826114f8565b5b9050919050565b60605f805461081b90612aac565b80601f016020809104026020016040519081016040528092919081815260200182805461084790612aac565b80156108925780601f1061086957610100808354040283529160200191610892565b820191905f5260205f20905b81548152906001019060200180831161087557829003601f168201915b5050505050905090565b5f6108a682611561565b506108b0826115e7565b9050919050565b6108c982826108c4611620565b611627565b5050565b5f600754905090565b5f5f73ffffffffffffffffffffffffffffffffffffffff166108f783611639565b73ffffffffffffffffffffffffffffffffffffffff1614801561091a5750601482105b9050919050565b5f73ffffffffffffffffffffffffffffffffffffffff168273ffffffffffffffffffffffffffffffffffffffff1603610991575f6040517f64a0ae920000000000000000000000000000000000000000000000000000000081526004016109889190612709565b60405180910390fd5b5f6109a4838361099f611620565b611672565b90508373ffffffffffffffffffffffffffffffffffffffff168173ffffffffffffffffffffffffffffffffffffffff1614610a1a578382826040517f64283d7b000000000000000000000000000000000000000000000000000000008152600401610a1193929190612adc565b60405180910390fd5b50505050565b5f7f0000000000000000000000000000000000000000000000000000000000000000905090565b610a4f61187d565b5f4790505f8103610a8c576040517f1f9e6f6100000000000000000000000000000000000000000000000000000000815260040160405180910390fd5b5f610a95610ee9565b73ffffffffffffffffffffffffffffffffffffffff1682604051610ab890612b3e565b5f6040518083038185875af1925050503d805f8114610af2576040519150601f19603f3d011682016040523d82523d5f602084013e610af7565b606091505b505090508015610b3f577f244133ae393249b50158fcee03b2f90e952c950991943cfa0e921214ce225b528242604051610b32929190612b52565b60405180910390a1610b71565b6040517f38665e5700000000000000000000000000000000000000000000000000000000815260040160405180910390fd5b5050565b610b8f83838360405180602001604052805f815250610fde565b505050565b7f000000000000000000000000000000000000000000000000000000000000000073ffffffffffffffffffffffffffffffffffffffff163373ffffffffffffffffffffffffffffffffffffffff1614610c19576040517fcd91621f00000000000000000000000000000000000000000000000000000000815260040160405180910390fd5b5f8103610c52576040517ff6a9eca700000000000000000000000000000000000000000000000000000000815260040160405180910390fd5b806008819055507f215fe26219f74f3af55712f111a1aed308c1eba8f9e7e6383a2e66396ae4b2c48142604051610c8a929190612b52565b60405180910390a150565b5f73ffffffffffffffffffffffffffffffffffffffff168273ffffffffffffffffffffffffffffffffffffffff1603610cfa576040517f3156c01600000000000000000000000000000000000000000000000000000000815260040160405180910390fd5b3373ffffffffffffffffffffffffffffffffffffffff16610d1a82610d76565b73ffffffffffffffffffffffffffffffffffffffff1614610d67576040517fcbf649cf00000000000000000000000000000000000000000000000000000000815260040160405180910390fd5b610d72338383611904565b5050565b5f610d8082611561565b9050919050565b5f5f73ffffffffffffffffffffffffffffffffffffffff168273ffffffffffffffffffffffffffffffffffffffff1603610df8575f6040517f89c62b64000000000000000000000000000000000000000000000000000000008152600401610def9190612709565b60405180910390fd5b60035f8373ffffffffffffffffffffffffffffffffffffffff1673ffffffffffffffffffffffffffffffffffffffff1681526020019081526020015f20549050919050565b606060098054610e4c90612aac565b80601f0160208091040260200160405190810160405280929190818152602001828054610e7890612aac565b8015610ec35780601f10610e9a57610100808354040283529160200191610ec3565b820191905f5260205f20905b815481529060010190602001808311610ea657829003601f168201915b5050505050905090565b610ed561187d565b610ede5f611923565b565b5f600854905090565b5f60065f9054906101000a900473ffffffffffffffffffffffffffffffffffffffff16905090565b5f610f1b82610d87565b9050919050565b606060018054610f3190612aac565b80601f0160208091040260200160405190810160405280929190818152602001828054610f5d90612aac565b8015610fa85780601f10610f7f57610100808354040283529160200191610fa8565b820191905f5260205f20905b815481529060010190602001808311610f8b57829003601f168201915b5050505050905090565b610fc4610fbd611620565b83836119e6565b5050565b5f610fd282610d76565b9050919050565b601481565b610fe9848484610921565b610ffd610ff4611620565b85858585611b4f565b50505050565b60606014821061103f576040517fb7e0afa800000000000000000000000000000000000000000000000000000000815260040160405180910390fd5b5f73ffffffffffffffffffffffffffffffffffffffff1661105f83611639565b73ffffffffffffffffffffffffffffffffffffffff16036110ac576040517f20bd981e00000000000000000000000000000000000000000000000000000000815260040160405180910390fd5b60096110b783611cfb565b6040516020016110c8929190612cd9565b6040516020818303038152906040529050919050565b6110e661187d565b5f340361111f576040517ff6a9eca700000000000000000000000000000000000000000000000000000000815260040160405180910390fd5b7f7a9c845e9b89fb956712c5767475769f83e1839c0f96d6b42d4920954199b4413442604051611150929190612b52565b60405180910390a1565b7f000000000000000000000000000000000000000000000000000000000000000073ffffffffffffffffffffffffffffffffffffffff163373ffffffffffffffffffffffffffffffffffffffff16146111df576040517fcd91621f00000000000000000000000000000000000000000000000000000000815260040160405180910390fd5b60146007540361121b576040517fef11336c00000000000000000000000000000000000000000000000000000000815260040160405180910390fd5b5f73ffffffffffffffffffffffffffffffffffffffff1661123b82611639565b73ffffffffffffffffffffffffffffffffffffffff1614611288576040517f2d2101f700000000000000000000000000000000000000000000000000000000815260040160405180910390fd5b601481106112c2576040517fb7e0afa800000000000000000000000000000000000000000000000000000000815260040160405180910390fd5b6008543410156112fe576040517fb2e0353400000000000000000000000000000000000000000000000000000000815260040160405180910390fd5b5f73ffffffffffffffffffffffffffffffffffffffff168273ffffffffffffffffffffffffffffffffffffffff1603611363576040517f3156c01600000000000000000000000000000000000000000000000000000000815260040160405180910390fd5b61136d8282611dc5565b5f61137782611003565b905060075f81548092919061138b90612d3f565b9190505550818373ffffffffffffffffffffffffffffffffffffffff167fc26dcb63abbc06b32028a4124cebae9d3b28c43409e6831c99972c4fee8e25f383426040516113d9929190612d86565b60405180910390a3505050565b5f60055f8473ffffffffffffffffffffffffffffffffffffffff1673ffffffffffffffffffffffffffffffffffffffff1681526020019081526020015f205f8373ffffffffffffffffffffffffffffffffffffffff1673ffffffffffffffffffffffffffffffffffffffff1681526020019081526020015f205f9054906101000a900460ff16905092915050565b61147c61187d565b5f73ffffffffffffffffffffffffffffffffffffffff168173ffffffffffffffffffffffffffffffffffffffff16036114ec575f6040517f1e4fbdf70000000000000000000000000000000000000000000000000000000081526004016114e39190612709565b60405180910390fd5b6114f581611923565b50565b5f7f01ffc9a7000000000000000000000000000000000000000000000000000000007bffffffffffffffffffffffffffffffffffffffffffffffffffffffff1916827bffffffffffffffffffffffffffffffffffffffffffffffffffffffff1916149050919050565b5f5f61156c83611639565b90505f73ffffffffffffffffffffffffffffffffffffffff168173ffffffffffffffffffffffffffffffffffffffff16036115de57826040517f7e2732890000000000000000000000000000000000000000000000000000000081526004016115d59190612799565b60405180910390fd5b80915050919050565b5f60045f8381526020019081526020015f205f9054906101000a900473ffffffffffffffffffffffffffffffffffffffff169050919050565b5f33905090565b6116348383836001611de2565b505050565b5f60025f8381526020019081526020015f205f9054906101000a900473ffffffffffffffffffffffffffffffffffffffff169050919050565b5f5f61167d84611639565b90505f73ffffffffffffffffffffffffffffffffffffffff168373ffffffffffffffffffffffffffffffffffffffff16146116be576116bd818486611fa1565b5b5f73ffffffffffffffffffffffffffffffffffffffff168173ffffffffffffffffffffffffffffffffffffffff1614611749576116fd5f855f5f611de2565b600160035f8373ffffffffffffffffffffffffffffffffffffffff1673ffffffffffffffffffffffffffffffffffffffff1681526020019081526020015f205f82825403925050819055505b5f73ffffffffffffffffffffffffffffffffffffffff168573ffffffffffffffffffffffffffffffffffffffff16146117c857600160035f8773ffffffffffffffffffffffffffffffffffffffff1673ffffffffffffffffffffffffffffffffffffffff1681526020019081526020015f205f82825401925050819055505b8460025f8681526020019081526020015f205f6101000a81548173ffffffffffffffffffffffffffffffffffffffff021916908373ffffffffffffffffffffffffffffffffffffffff160217905550838573ffffffffffffffffffffffffffffffffffffffff168273ffffffffffffffffffffffffffffffffffffffff167fddf252ad1be2c89b69c2b068fc378daa952ba7f163c4a11628f55a4df523b3ef60405160405180910390a4809150509392505050565b611885611620565b73ffffffffffffffffffffffffffffffffffffffff166118a3610ee9565b73ffffffffffffffffffffffffffffffffffffffff1614611902576118c6611620565b6040517f118cdaa70000000000000000000000000000000000000000000000000000000081526004016118f99190612709565b60405180910390fd5b565b61191e83838360405180602001604052805f815250612064565b505050565b5f60065f9054906101000a900473ffffffffffffffffffffffffffffffffffffffff1690508160065f6101000a81548173ffffffffffffffffffffffffffffffffffffffff021916908373ffffffffffffffffffffffffffffffffffffffff1602179055508173ffffffffffffffffffffffffffffffffffffffff168173ffffffffffffffffffffffffffffffffffffffff167f8be0079c531659141344cd1fd0a4f28419497f9722a3daafe3b4186f6b6457e060405160405180910390a35050565b5f73ffffffffffffffffffffffffffffffffffffffff168273ffffffffffffffffffffffffffffffffffffffff1603611a5657816040517f5b08ba18000000000000000000000000000000000000000000000000000000008152600401611a4d9190612709565b60405180910390fd5b8060055f8573ffffffffffffffffffffffffffffffffffffffff1673ffffffffffffffffffffffffffffffffffffffff1681526020019081526020015f205f8473ffffffffffffffffffffffffffffffffffffffff1673ffffffffffffffffffffffffffffffffffffffff1681526020019081526020015f205f6101000a81548160ff0219169083151502179055508173ffffffffffffffffffffffffffffffffffffffff168373ffffffffffffffffffffffffffffffffffffffff167f17307eab39ab6107e8899845ad3d59bd9653f200f220920489ca2b5937696c3183604051611b4291906125c3565b60405180910390a3505050565b5f8373ffffffffffffffffffffffffffffffffffffffff163b1115611cf4578273ffffffffffffffffffffffffffffffffffffffff1663150b7a02868685856040518563ffffffff1660e01b8152600401611bad9493929190612e06565b6020604051808303815f875af1925050508015611be857506040513d601f19601f82011682018060405250810190611be59190612e64565b60015b611c69573d805f8114611c16576040519150601f19603f3d011682016040523d82523d5f602084013e611c1b565b606091505b505f815103611c6157836040517f64a0ae92000000000000000000000000000000000000000000000000000000008152600401611c589190612709565b60405180910390fd5b805181602001fd5b63150b7a0260e01b7bffffffffffffffffffffffffffffffffffffffffffffffffffffffff1916817bffffffffffffffffffffffffffffffffffffffffffffffffffffffff191614611cf257836040517f64a0ae92000000000000000000000000000000000000000000000000000000008152600401611ce99190612709565b60405180910390fd5b505b5050505050565b60605f6001611d0984612089565b0190505f8167ffffffffffffffff811115611d2757611d2661289d565b5b6040519080825280601f01601f191660200182016040528015611d595781602001600182028036833780820191505090505b5090505f82602001820190505b600115611dba578080600190039150507f3031323334353637383961626364656600000000000000000000000000000000600a86061a8153600a8581611daf57611dae612e8f565b5b0494505f8503611d66575b819350505050919050565b611dde828260405180602001604052805f8152506121da565b5050565b8080611e1a57505f73ffffffffffffffffffffffffffffffffffffffff168273ffffffffffffffffffffffffffffffffffffffff1614155b15611f4c575f611e2984611561565b90505f73ffffffffffffffffffffffffffffffffffffffff168373ffffffffffffffffffffffffffffffffffffffff1614158015611e9357508273ffffffffffffffffffffffffffffffffffffffff168173ffffffffffffffffffffffffffffffffffffffff1614155b8015611ea65750611ea481846113e6565b155b15611ee857826040517fa9fbf51f000000000000000000000000000000000000000000000000000000008152600401611edf9190612709565b60405180910390fd5b8115611f4a57838573ffffffffffffffffffffffffffffffffffffffff168273ffffffffffffffffffffffffffffffffffffffff167f8c5be1e5ebec7d5bd14f71427d1e84f3dd0314c0f7b2291e5b200ac8c7c3b92560405160405180910390a45b505b8360045f8581526020019081526020015f205f6101000a81548173ffffffffffffffffffffffffffffffffffffffff021916908373ffffffffffffffffffffffffffffffffffffffff16021790555050505050565b611fac8383836121fd565b61205f575f73ffffffffffffffffffffffffffffffffffffffff168373ffffffffffffffffffffffffffffffffffffffff160361202057806040517f7e2732890000000000000000000000000000000000000000000000000000000081526004016120179190612799565b60405180910390fd5b81816040517f177e802f000000000000000000000000000000000000000000000000000000008152600401612056929190612ebc565b60405180910390fd5b505050565b61206f8484846122bd565b61208361207a611620565b85858585611b4f565b50505050565b5f5f5f90507a184f03e93ff9f4daa797ed6e38ed64bf6a1f01000000000000000083106120e5577a184f03e93ff9f4daa797ed6e38ed64bf6a1f01000000000000000083816120db576120da612e8f565b5b0492506040810190505b6d04ee2d6d415b85acef81000000008310612122576d04ee2d6d415b85acef8100000000838161211857612117612e8f565b5b0492506020810190505b662386f26fc10000831061215157662386f26fc10000838161214757612146612e8f565b5b0492506010810190505b6305f5e100831061217a576305f5e10083816121705761216f612e8f565b5b0492506008810190505b612710831061219f57612710838161219557612194612e8f565b5b0492506004810190505b606483106121c257606483816121b8576121b7612e8f565b5b0492506002810190505b600a83106121d1576001810190505b80915050919050565b6121e48383612425565b6121f86121ef611620565b5f858585611b4f565b505050565b5f5f73ffffffffffffffffffffffffffffffffffffffff168373ffffffffffffffffffffffffffffffffffffffff16141580156122b457508273ffffffffffffffffffffffffffffffffffffffff168473ffffffffffffffffffffffffffffffffffffffff161480612275575061227484846113e6565b5b806122b357508273ffffffffffffffffffffffffffffffffffffffff1661229b836115e7565b73ffffffffffffffffffffffffffffffffffffffff16145b5b90509392505050565b5f73ffffffffffffffffffffffffffffffffffffffff168273ffffffffffffffffffffffffffffffffffffffff160361232d575f6040517f64a0ae920000000000000000000000000000000000000000000000000000000081526004016123249190612709565b60405180910390fd5b5f61233983835f611672565b90505f73ffffffffffffffffffffffffffffffffffffffff168173ffffffffffffffffffffffffffffffffffffffff16036123ab57816040517f7e2732890000000000000000000000000000000000000000000000000000000081526004016123a29190612799565b60405180910390fd5b8373ffffffffffffffffffffffffffffffffffffffff168173ffffffffffffffffffffffffffffffffffffffff161461241f578382826040517f64283d7b00000000000000000000000000000000000000000000000000000000815260040161241693929190612adc565b60405180910390fd5b50505050565b5f73ffffffffffffffffffffffffffffffffffffffff168273ffffffffffffffffffffffffffffffffffffffff1603612495575f6040517f64a0ae9200000000000000000000000000000000000000000000000000000000815260040161248c9190612709565b60405180910390fd5b5f6124a183835f611672565b90505f73ffffffffffffffffffffffffffffffffffffffff168173ffffffffffffffffffffffffffffffffffffffff1614612513575f6040517f73c6ac6e00000000000000000000000000000000000000000000000000000000815260040161250a9190612709565b60405180910390fd5b505050565b5f604051905090565b5f5ffd5b5f5ffd5b5f7fffffffff0000000000000000000000000000000000000000000000000000000082169050919050565b61255d81612529565b8114612567575f5ffd5b50565b5f8135905061257881612554565b92915050565b5f6020828403121561259357612592612521565b5b5f6125a08482850161256a565b91505092915050565b5f8115159050919050565b6125bd816125a9565b82525050565b5f6020820190506125d65f8301846125b4565b92915050565b5f81519050919050565b5f82825260208201905092915050565b8281835e5f83830152505050565b5f601f19601f8301169050919050565b5f61261e826125dc565b61262881856125e6565b93506126388185602086016125f6565b61264181612604565b840191505092915050565b5f6020820190508181035f8301526126648184612614565b905092915050565b5f819050919050565b61267e8161266c565b8114612688575f5ffd5b50565b5f8135905061269981612675565b92915050565b5f602082840312156126b4576126b3612521565b5b5f6126c18482850161268b565b91505092915050565b5f73ffffffffffffffffffffffffffffffffffffffff82169050919050565b5f6126f3826126ca565b9050919050565b612703816126e9565b82525050565b5f60208201905061271c5f8301846126fa565b92915050565b61272b816126e9565b8114612735575f5ffd5b50565b5f8135905061274681612722565b92915050565b5f5f6040838503121561276257612761612521565b5b5f61276f85828601612738565b92505060206127808582860161268b565b9150509250929050565b6127938161266c565b82525050565b5f6020820190506127ac5f83018461278a565b92915050565b5f5f5f606084860312156127c9576127c8612521565b5b5f6127d686828701612738565b93505060206127e786828701612738565b92505060406127f88682870161268b565b9150509250925092565b5f6020828403121561281757612816612521565b5b5f61282484828501612738565b91505092915050565b612836816125a9565b8114612840575f5ffd5b50565b5f813590506128518161282d565b92915050565b5f5f6040838503121561286d5761286c612521565b5b5f61287a85828601612738565b925050602061288b85828601612843565b9150509250929050565b5f5ffd5b5f5ffd5b7f4e487b71000000000000000000000000000000000000000000000000000000005f52604160045260245ffd5b6128d382612604565b810181811067ffffffffffffffff821117156128f2576128f161289d565b5b80604052505050565b5f612904612518565b905061291082826128ca565b919050565b5f67ffffffffffffffff82111561292f5761292e61289d565b5b61293882612604565b9050602081019050919050565b828183375f83830152505050565b5f61296561296084612915565b6128fb565b90508281526020810184848401111561298157612980612899565b5b61298c848285612945565b509392505050565b5f82601f8301126129a8576129a7612895565b5b81356129b8848260208601612953565b91505092915050565b5f5f5f5f608085870312156129d9576129d8612521565b5b5f6129e687828801612738565b94505060206129f787828801612738565b9350506040612a088782880161268b565b925050606085013567ffffffffffffffff811115612a2957612a28612525565b5b612a3587828801612994565b91505092959194509250565b5f5f60408385031215612a5757612a56612521565b5b5f612a6485828601612738565b9250506020612a7585828601612738565b9150509250929050565b7f4e487b71000000000000000000000000000000000000000000000000000000005f52602260045260245ffd5b5f6002820490506001821680612ac357607f821691505b602082108103612ad657612ad5612a7f565b5b50919050565b5f606082019050612aef5f8301866126fa565b612afc602083018561278a565b612b0960408301846126fa565b949350505050565b5f81905092915050565b50565b5f612b295f83612b11565b9150612b3482612b1b565b5f82019050919050565b5f612b4882612b1e565b9150819050919050565b5f604082019050612b655f83018561278a565b612b72602083018461278a565b9392505050565b5f81905092915050565b5f819050815f5260205f209050919050565b5f8154612ba181612aac565b612bab8186612b79565b9450600182165f8114612bc55760018114612bda57612c0c565b60ff1983168652811515820286019350612c0c565b612be385612b83565b5f5b83811015612c0457815481890152600182019150602081019050612be5565b838801955050505b50505092915050565b7f2f000000000000000000000000000000000000000000000000000000000000005f82015250565b5f612c49600183612b79565b9150612c5482612c15565b600182019050919050565b5f612c69826125dc565b612c738185612b79565b9350612c838185602086016125f6565b80840191505092915050565b7f2e6a736f6e0000000000000000000000000000000000000000000000000000005f82015250565b5f612cc3600583612b79565b9150612cce82612c8f565b600582019050919050565b5f612ce48285612b95565b9150612cef82612c3d565b9150612cfb8284612c5f565b9150612d0682612cb7565b91508190509392505050565b7f4e487b71000000000000000000000000000000000000000000000000000000005f52601160045260245ffd5b5f612d498261266c565b91507fffffffffffffffffffffffffffffffffffffffffffffffffffffffffffffffff8203612d7b57612d7a612d12565b5b600182019050919050565b5f6040820190508181035f830152612d9e8185612614565b9050612dad602083018461278a565b9392505050565b5f81519050919050565b5f82825260208201905092915050565b5f612dd882612db4565b612de28185612dbe565b9350612df28185602086016125f6565b612dfb81612604565b840191505092915050565b5f608082019050612e195f8301876126fa565b612e2660208301866126fa565b612e33604083018561278a565b8181036060830152612e458184612dce565b905095945050505050565b5f81519050612e5e81612554565b92915050565b5f60208284031215612e7957612e78612521565b5b5f612e8684828501612e50565b91505092915050565b7f4e487b71000000000000000000000000000000000000000000000000000000005f52601260045260245ffd5b5f604082019050612ecf5f8301856126fa565b612edc602083018461278a565b939250505056fea26469706673582212207e36f7c7eccdcbed8dc0ec3e0124b9085eb9a724d235b187224fcdaa4413b5c964736f6c634300081e0033","linkReferences":{}},"methodIdentifiers":{"callWithdrawFromNftContract(address)":"46359ab6","getNftContract()":"667c99de","nftContract()":"d56d229d","payAuctionContract(address,uint256)":"7f255f59"},"id":57}