{"abi":[{"type":"constructor","inputs":[],"stateMutability":"nonpayable"},{"type":"function","name":"basicMintPrice","inputs":[],"outputs":[{"name":"","type":"uint256","internalType":"uint256"}],"stateMutability":"view"},{"type":"function","name":"failureReason","inputs":[],"outputs":[{"name":"","type":"string","internalType":"string"}],"stateMutability":"view"},{"type":"function","name":"getBasicMintPrice","inputs":[],"outputs":[{"name":"","type":"uint256","internalType":"uint256"}],"stateMutability":"view"},{"type":"function","name":"getIfTokenIdIsMintable","inputs":[{"name":"tokenId","type":"uint256","internalType":"uint256"}],"outputs":[{"name":"","type":"bool","internalType":"bool"}],"stateMutability":"view"},{"type":"function","name":"mintNft","inputs":[{"name":"to","type":"address","internalType":"address"},{"name":"tokenId","type":"uint256","internalType":"uint256"}],"outputs":[],"stateMutability":"payable"},{"type":"function","name":"resetToken","inputs":[{"name":"tokenId","type":"uint256","internalType":"uint256"}],"outputs":[],"stateMutability":"nonpayable"},{"type":"function","name":"setShouldFailMint","inputs":[{"name":"_shouldFail","type":"bool","internalType":"bool"},{"name":"_reason","type":"string","internalType":"string"}],"outputs":[],"stateMutability":"nonpayable"},{"type":"function","name":"setShouldPanic","inputs":[{"name":"_shouldPanic","type":"bool","internalType":"bool"}],"outputs":[],"stateMutability":"nonpayable"},{"type":"function","name":"shouldFailMint","inputs":[],"outputs":[{"name":"","type":"bool","internalType":"bool"}],"stateMutability":"view"},{"type":"function","name":"shouldPanic","inputs":[],"outputs":[{"name":"","type":"bool","internalType":"bool"}],"stateMutability":"view"},{"type":"function","name":"tokenMintable","inputs":[{"name":"","type":"uint256","internalType":"uint256"}],"outputs":[{"name":"","type":"bool","internalType":"bool"}],"stateMutability":"view"},{"type":"function","name":"tokenOwner","inputs":[{"name":"","type":"uint256","internalType":"uint256"}],"outputs":[{"name":"","type":"address","internalType":"address"}],"stateMutability":"view"}],"bytecode":{"object":"0x60806040525f5f5f6101000a81548160ff0219169083151502179055505f5f60016101000a81548160ff02191690831515021790555060405180602001604052805f8152506001908161005291906102f7565b50662386f26fc10000600255348015610069575f5ffd5b505f600190505b606481116100b457600160035f8381526020019081526020015f205f6101000a81548160ff02191690831515021790555080806100ac906103f3565b915050610070565b5061043a565b5f81519050919050565b7f4e487b71000000000000000000000000000000000000000000000000000000005f52604160045260245ffd5b7f4e487b71000000000000000000000000000000000000000000000000000000005f52602260045260245ffd5b5f600282049050600182168061013557607f821691505b602082108103610148576101476100f1565b5b50919050565b5f819050815f5260205f209050919050565b5f6020601f8301049050919050565b5f82821b905092915050565b5f600883026101aa7fffffffffffffffffffffffffffffffffffffffffffffffffffffffffffffffff8261016f565b6101b4868361016f565b95508019841693508086168417925050509392505050565b5f819050919050565b5f819050919050565b5f6101f86101f36101ee846101cc565b6101d5565b6101cc565b9050919050565b5f819050919050565b610211836101de565b61022561021d826101ff565b84845461017b565b825550505050565b5f5f905090565b61023c61022d565b610247818484610208565b505050565b5b8181101561026a5761025f5f82610234565b60018101905061024d565b5050565b601f8211156102af576102808161014e565b61028984610160565b81016020851015610298578190505b6102ac6102a485610160565b83018261024c565b50505b505050565b5f82821c905092915050565b5f6102cf5f19846008026102b4565b1980831691505092915050565b5f6102e783836102c0565b9150826002028217905092915050565b610300826100ba565b67ffffffffffffffff811115610319576103186100c4565b5b610323825461011e565b61032e82828561026e565b5f60209050601f83116001811461035f575f841561034d578287015190505b61035785826102dc565b8655506103be565b601f19841661036d8661014e565b5f5b828110156103945784890151825560018201915060208501945060208101905061036f565b868310156103b157848901516103ad601f8916826102c0565b8355505b6001600288020188555050505b505050505050565b7f4e487b71000000000000000000000000000000000000000000000000000000005f52601160045260245ffd5b5f6103fd826101cc565b91507fffffffffffffffffffffffffffffffffffffffffffffffffffffffffffffffff820361042f5761042e6103c6565b5b600182019050919050565b610e27806104475f395ff3fe6080604052600436106100a5575f3560e01c8063754ea15911610063578063754ea159146101c757806377d19f7b146101f1578063b9302d921461022d578063d1194e2b14610255578063eac61dc614610271578063fd8d02e81461029b576100a5565b806258eff0146100a95780631caaa487146100d15780632168509e1461010d57806337ce517d146101495780634f9522a414610173578063606af2181461019d575b5f5ffd5b3480156100b4575f5ffd5b506100cf60048036038101906100ca91906107a9565b6102c3565b005b3480156100dc575f5ffd5b506100f760048036038101906100f29190610836565b610308565b60405161010491906108a0565b60405180910390f35b348015610118575f5ffd5b50610133600480360381019061012e9190610836565b610338565b60405161014091906108c8565b60405180910390f35b348015610154575f5ffd5b5061015d61035e565b60405161016a91906108f0565b60405180910390f35b34801561017e575f5ffd5b50610187610364565b6040516101949190610969565b60405180910390f35b3480156101a8575f5ffd5b506101b16103f0565b6040516101be91906108c8565b60405180910390f35b3480156101d2575f5ffd5b506101db610402565b6040516101e891906108f0565b60405180910390f35b3480156101fc575f5ffd5b5061021760048036038101906102129190610836565b61040b565b60405161022491906108c8565b60405180910390f35b348015610238575f5ffd5b50610253600480360381019061024e9190610836565b610428565b005b61026f600480360381019061026a91906109b3565b6104a3565b005b34801561027c575f5ffd5b506102856105e2565b60405161029291906108c8565b60405180910390f35b3480156102a6575f5ffd5b506102c160048036038101906102bc91906109f1565b6105f3565b005b815f5f6101000a81548160ff02191690831515021790555080600190816102ea9190610c19565b505f5f60016101000a81548160ff0219169083151502179055505050565b6004602052805f5260405f205f915054906101000a900473ffffffffffffffffffffffffffffffffffffffff1681565b5f60035f8381526020019081526020015f205f9054906101000a900460ff169050919050565b60025481565b6001805461037190610a49565b80601f016020809104026020016040519081016040528092919081815260200182805461039d90610a49565b80156103e85780601f106103bf576101008083540402835291602001916103e8565b820191905f5260205f20905b8154815290600101906020018083116103cb57829003601f168201915b505050505081565b5f60019054906101000a900460ff1681565b5f600254905090565b6003602052805f5260405f205f915054906101000a900460ff1681565b600160035f8381526020019081526020015f205f6101000a81548160ff0219169083151502179055505f60045f8381526020019081526020015f205f6101000a81548173ffffffffffffffffffffffffffffffffffffffff021916908373ffffffffffffffffffffffffffffffffffffffff16021790555050565b5f60019054906101000a900460ff16156104b957fe5b5f5f9054906101000a900460ff161561050a5760016040517f08c379a00000000000000000000000000000000000000000000000000000000081526004016105019190610d69565b60405180910390fd5b60035f8281526020019081526020015f205f9054906101000a900460ff16610567576040517f08c379a000000000000000000000000000000000000000000000000000000000815260040161055e90610dd3565b60405180910390fd5b5f60035f8381526020019081526020015f205f6101000a81548160ff0219169083151502179055508160045f8381526020019081526020015f205f6101000a81548173ffffffffffffffffffffffffffffffffffffffff021916908373ffffffffffffffffffffffffffffffffffffffff1602179055505050565b5f5f9054906101000a900460ff1681565b805f60016101000a81548160ff0219169083151502179055505f5f5f6101000a81548160ff02191690831515021790555050565b5f604051905090565b5f5ffd5b5f5ffd5b5f8115159050919050565b61064c81610638565b8114610656575f5ffd5b50565b5f8135905061066781610643565b92915050565b5f5ffd5b5f5ffd5b5f601f19601f8301169050919050565b7f4e487b71000000000000000000000000000000000000000000000000000000005f52604160045260245ffd5b6106bb82610675565b810181811067ffffffffffffffff821117156106da576106d9610685565b5b80604052505050565b5f6106ec610627565b90506106f882826106b2565b919050565b5f67ffffffffffffffff82111561071757610716610685565b5b61072082610675565b9050602081019050919050565b828183375f83830152505050565b5f61074d610748846106fd565b6106e3565b90508281526020810184848401111561076957610768610671565b5b61077484828561072d565b509392505050565b5f82601f8301126107905761078f61066d565b5b81356107a084826020860161073b565b91505092915050565b5f5f604083850312156107bf576107be610630565b5b5f6107cc85828601610659565b925050602083013567ffffffffffffffff8111156107ed576107ec610634565b5b6107f98582860161077c565b9150509250929050565b5f819050919050565b61081581610803565b811461081f575f5ffd5b50565b5f813590506108308161080c565b92915050565b5f6020828403121561084b5761084a610630565b5b5f61085884828501610822565b91505092915050565b5f73ffffffffffffffffffffffffffffffffffffffff82169050919050565b5f61088a82610861565b9050919050565b61089a81610880565b82525050565b5f6020820190506108b35f830184610891565b92915050565b6108c281610638565b82525050565b5f6020820190506108db5f8301846108b9565b92915050565b6108ea81610803565b82525050565b5f6020820190506109035f8301846108e1565b92915050565b5f81519050919050565b5f82825260208201905092915050565b8281835e5f83830152505050565b5f61093b82610909565b6109458185610913565b9350610955818560208601610923565b61095e81610675565b840191505092915050565b5f6020820190508181035f8301526109818184610931565b905092915050565b61099281610880565b811461099c575f5ffd5b50565b5f813590506109ad81610989565b92915050565b5f5f604083850312156109c9576109c8610630565b5b5f6109d68582860161099f565b92505060206109e785828601610822565b9150509250929050565b5f60208284031215610a0657610a05610630565b5b5f610a1384828501610659565b91505092915050565b7f4e487b71000000000000000000000000000000000000000000000000000000005f52602260045260245ffd5b5f6002820490506001821680610a6057607f821691505b602082108103610a7357610a72610a1c565b5b50919050565b5f819050815f5260205f209050919050565b5f6020601f8301049050919050565b5f82821b905092915050565b5f60088302610ad57fffffffffffffffffffffffffffffffffffffffffffffffffffffffffffffffff82610a9a565b610adf8683610a9a565b95508019841693508086168417925050509392505050565b5f819050919050565b5f610b1a610b15610b1084610803565b610af7565b610803565b9050919050565b5f819050919050565b610b3383610b00565b610b47610b3f82610b21565b848454610aa6565b825550505050565b5f5f905090565b610b5e610b4f565b610b69818484610b2a565b505050565b5b81811015610b8c57610b815f82610b56565b600181019050610b6f565b5050565b601f821115610bd157610ba281610a79565b610bab84610a8b565b81016020851015610bba578190505b610bce610bc685610a8b565b830182610b6e565b50505b505050565b5f82821c905092915050565b5f610bf15f1984600802610bd6565b1980831691505092915050565b5f610c098383610be2565b9150826002028217905092915050565b610c2282610909565b67ffffffffffffffff811115610c3b57610c3a610685565b5b610c458254610a49565b610c50828285610b90565b5f60209050601f831160018114610c81575f8415610c6f578287015190505b610c798582610bfe565b865550610ce0565b601f198416610c8f86610a79565b5f5b82811015610cb657848901518255600182019150602085019450602081019050610c91565b86831015610cd35784890151610ccf601f891682610be2565b8355505b6001600288020188555050505b505050505050565b5f8154610cf481610a49565b610cfe8186610913565b9450600182165f8114610d185760018114610d2e57610d60565b60ff198316865281151560200286019350610d60565b610d3785610a79565b5f5b83811015610d5857815481890152600182019150602081019050610d39565b808801955050505b50505092915050565b5f6020820190508181035f830152610d818184610ce8565b905092915050565b7f546f6b656e206e6f74206d696e7461626c6500000000000000000000000000005f82015250565b5f610dbd601283610913565b9150610dc882610d89565b602082019050919050565b5f6020820190508181035f830152610dea81610db1565b905091905056fea26469706673582212201768c979d2c235e97f2013768fdc98ceba0ed07558f29f2a254f20af079df5f664736f6c634300081e0033","linkReferences":{}},"methodIdentifiers":{"basicMintPrice()":"37ce517d","failureReason()":"4f9522a4","getBasicMintPrice()":"754ea159","getIfTokenIdIsMintable(uint256)":"2168509e","mintNft(address,uint256)":"d1194e2b","resetToken(uint256)":"b9302d92","setShouldFailMint(bool,string)":"0058eff0","setShouldPanic(bool)":"fd8d02e8","shouldFailMint()":"eac61dc6","shouldPanic()":"606af218","tokenMintable(uint256)":"77d19f7b","tokenOwner(uint256)":"1caaa487"},"id":55}