{
    "abi": [
        {
            "type": "constructor",
            "inputs": [],
            "stateMutability": "nonpayable"
        },
        {
            "type": "fallback",
            "stateMutability": "payable"
        },
        {
            "type": "receive",
            "stateMutability": "payable"
        },
        {
            "type": "function",
            "name": "changeMintPrice",
            "inputs": [
                {
                    "name": "_newPrice",
                    "type": "uint256",
                    "internalType": "uint256"
                }
            ],
            "outputs": [],
            "stateMutability": "nonpayable"
        },
        {
            "type": "function",
            "name": "checkUpkeep",
            "inputs": [
                {
                    "name": "",
                    "type": "bytes",
                    "internalType": "bytes"
                }
            ],
            "outputs": [
                {
                    "name": "upkeepNeeded",
                    "type": "bool",
                    "internalType": "bool"
                },
                {
                    "name": "performData",
                    "type": "bytes",
                    "internalType": "bytes"
                }
            ],
            "stateMutability": "view"
        },
        {
            "type": "function",
            "name": "claimFailedRefunds",
            "inputs": [],
            "outputs": [],
            "stateMutability": "nonpayable"
        },
        {
            "type": "function",
            "name": "claimNftForWinner",
            "inputs": [
                {
                    "name": "_auctionId",
                    "type": "uint256",
                    "internalType": "uint256"
                }
            ],
            "outputs": [],
            "stateMutability": "nonpayable"
        },
        {
            "type": "function",
            "name": "getAuctionCounter",
            "inputs": [],
            "outputs": [
                {
                    "name": "",
                    "type": "uint256",
                    "internalType": "uint256"
                }
            ],
            "stateMutability": "view"
        },
        {
            "type": "function",
            "name": "getAuctionDuration",
            "inputs": [],
            "outputs": [
                {
                    "name": "",
                    "type": "uint256",
                    "internalType": "uint256"
                }
            ],
            "stateMutability": "pure"
        },
        {
            "type": "function",
            "name": "getAuctionFromAuctionId",
            "inputs": [
                {
                    "name": "_auctionId",
                    "type": "uint256",
                    "internalType": "uint256"
                }
            ],
            "outputs": [
                {
                    "name": "",
                    "type": "tuple",
                    "internalType": "struct AuctionStruct",
                    "components": [
                        {
                            "name": "auctionId",
                            "type": "uint256",
                            "internalType": "uint256"
                        },
                        {
                            "name": "tokenId",
                            "type": "uint256",
                            "internalType": "uint256"
                        },
                        {
                            "name": "nftOwner",
                            "type": "address",
                            "internalType": "address"
                        },
                        {
                            "name": "state",
                            "type": "uint8",
                            "internalType": "enum AuctionState"
                        },
                        {
                            "name": "auctionType",
                            "type": "uint8",
                            "internalType": "enum AuctionType"
                        },
                        {
                            "name": "startPrice",
                            "type": "uint256",
                            "internalType": "uint256"
                        },
                        {
                            "name": "startTime",
                            "type": "uint256",
                            "internalType": "uint256"
                        },
                        {
                            "name": "endTime",
                            "type": "uint256",
                            "internalType": "uint256"
                        },
                        {
                            "name": "higherBidder",
                            "type": "address",
                            "internalType": "address"
                        },
                        {
                            "name": "higherBid",
                            "type": "uint256",
                            "internalType": "uint256"
                        },
                        {
                            "name": "minimumBidChangeAmount",
                            "type": "uint256",
                            "internalType": "uint256"
                        }
                    ]
                }
            ],
            "stateMutability": "view"
        },
        {
            "type": "function",
            "name": "getChainlinkForwarderAddress",
            "inputs": [],
            "outputs": [
                {
                    "name": "",
                    "type": "address",
                    "internalType": "address"
                }
            ],
            "stateMutability": "view"
        },
        {
            "type": "function",
            "name": "getCurrentAuction",
            "inputs": [],
            "outputs": [
                {
                    "name": "",
                    "type": "tuple",
                    "internalType": "struct AuctionStruct",
                    "components": [
                        {
                            "name": "auctionId",
                            "type": "uint256",
                            "internalType": "uint256"
                        },
                        {
                            "name": "tokenId",
                            "type": "uint256",
                            "internalType": "uint256"
                        },
                        {
                            "name": "nftOwner",
                            "type": "address",
                            "internalType": "address"
                        },
                        {
                            "name": "state",
                            "type": "uint8",
                            "internalType": "enum AuctionState"
                        },
                        {
                            "name": "auctionType",
                            "type": "uint8",
                            "internalType": "enum AuctionType"
                        },
                        {
                            "name": "startPrice",
                            "type": "uint256",
                            "internalType": "uint256"
                        },
                        {
                            "name": "startTime",
                            "type": "uint256",
                            "internalType": "uint256"
                        },
                        {
                            "name": "endTime",
                            "type": "uint256",
                            "internalType": "uint256"
                        },
                        {
                            "name": "higherBidder",
                            "type": "address",
                            "internalType": "address"
                        },
                        {
                            "name": "higherBid",
                            "type": "uint256",
                            "internalType": "uint256"
                        },
                        {
                            "name": "minimumBidChangeAmount",
                            "type": "uint256",
                            "internalType": "uint256"
                        }
                    ]
                }
            ],
            "stateMutability": "view"
        },
        {
            "type": "function",
            "name": "getCurrentAuctionPrice",
            "inputs": [],
            "outputs": [
                {
                    "name": "",
                    "type": "uint256",
                    "internalType": "uint256"
                }
            ],
            "stateMutability": "view"
        },
        {
            "type": "function",
            "name": "getDutchAuctionNumberOfIntervals",
            "inputs": [],
            "outputs": [
                {
                    "name": "",
                    "type": "uint256",
                    "internalType": "uint256"
                }
            ],
            "stateMutability": "pure"
        },
        {
            "type": "function",
            "name": "getDutchAuctionStartPriceMultiplier",
            "inputs": [],
            "outputs": [
                {
                    "name": "",
                    "type": "uint256",
                    "internalType": "uint256"
                }
            ],
            "stateMutability": "pure"
        },
        {
            "type": "function",
            "name": "getElegibilityForClaimingNft",
            "inputs": [
                {
                    "name": "_auctionId",
                    "type": "uint256",
                    "internalType": "uint256"
                },
                {
                    "name": "_claimer",
                    "type": "address",
                    "internalType": "address"
                }
            ],
            "outputs": [
                {
                    "name": "eligible",
                    "type": "bool",
                    "internalType": "bool"
                }
            ],
            "stateMutability": "view"
        },
        {
            "type": "function",
            "name": "getFailedRefundAmount",
            "inputs": [
                {
                    "name": "_bidder",
                    "type": "address",
                    "internalType": "address"
                }
            ],
            "outputs": [
                {
                    "name": "",
                    "type": "uint256",
                    "internalType": "uint256"
                }
            ],
            "stateMutability": "view"
        },
        {
            "type": "function",
            "name": "getGracePeriod",
            "inputs": [],
            "outputs": [
                {
                    "name": "",
                    "type": "uint256",
                    "internalType": "uint256"
                }
            ],
            "stateMutability": "pure"
        },
        {
            "type": "function",
            "name": "getMinimumBidChangeAmount",
            "inputs": [],
            "outputs": [
                {
                    "name": "",
                    "type": "uint256",
                    "internalType": "uint256"
                }
            ],
            "stateMutability": "view"
        },
        {
            "type": "function",
            "name": "getMinimumBidChangePercentage",
            "inputs": [],
            "outputs": [
                {
                    "name": "",
                    "type": "uint256",
                    "internalType": "uint256"
                }
            ],
            "stateMutability": "pure"
        },
        {
            "type": "function",
            "name": "getMinimumPossibleMintPrice",
            "inputs": [],
            "outputs": [
                {
                    "name": "",
                    "type": "uint256",
                    "internalType": "uint256"
                }
            ],
            "stateMutability": "pure"
        },
        {
            "type": "function",
            "name": "getNftContract",
            "inputs": [],
            "outputs": [
                {
                    "name": "",
                    "type": "address",
                    "internalType": "address"
                }
            ],
            "stateMutability": "view"
        },
        {
            "type": "function",
            "name": "getPercentageDenominator",
            "inputs": [],
            "outputs": [
                {
                    "name": "",
                    "type": "uint256",
                    "internalType": "uint256"
                }
            ],
            "stateMutability": "pure"
        },
        {
            "type": "function",
            "name": "getUpkeepId",
            "inputs": [],
            "outputs": [
                {
                    "name": "",
                    "type": "uint256",
                    "internalType": "uint256"
                }
            ],
            "stateMutability": "view"
        },
        {
            "type": "function",
            "name": "onERC721Received",
            "inputs": [
                {
                    "name": "operator",
                    "type": "address",
                    "internalType": "address"
                },
                {
                    "name": "from",
                    "type": "address",
                    "internalType": "address"
                },
                {
                    "name": "tokenId",
                    "type": "uint256",
                    "internalType": "uint256"
                },
                {
                    "name": "data",
                    "type": "bytes",
                    "internalType": "bytes"
                }
            ],
            "outputs": [
                {
                    "name": "",
                    "type": "bytes4",
                    "internalType": "bytes4"
                }
            ],
            "stateMutability": "pure"
        },
        {
            "type": "function",
            "name": "openNewAuction",
            "inputs": [
                {
                    "name": "_tokenId",
                    "type": "uint256",
                    "internalType": "uint256"
                },
                {
                    "name": "_auctionType",
                    "type": "uint8",
                    "internalType": "enum AuctionType"
                }
            ],
            "outputs": [
                {
                    "name": "auctionId",
                    "type": "uint256",
                    "internalType": "uint256"
                }
            ],
            "stateMutability": "nonpayable"
        },
        {
            "type": "function",
            "name": "owner",
            "inputs": [],
            "outputs": [
                {
                    "name": "",
                    "type": "address",
                    "internalType": "address"
                }
            ],
            "stateMutability": "view"
        },
        {
            "type": "function",
            "name": "performUpkeep",
            "inputs": [
                {
                    "name": "performData",
                    "type": "bytes",
                    "internalType": "bytes"
                }
            ],
            "outputs": [],
            "stateMutability": "nonpayable"
        },
        {
            "type": "function",
            "name": "placeBidOnAuction",
            "inputs": [
                {
                    "name": "_auctionId",
                    "type": "uint256",
                    "internalType": "uint256"
                }
            ],
            "outputs": [],
            "stateMutability": "payable"
        },
        {
            "type": "function",
            "name": "renounceOwnership",
            "inputs": [],
            "outputs": [],
            "stateMutability": "nonpayable"
        },
        {
            "type": "function",
            "name": "setChainlinkForwarder",
            "inputs": [
                {
                    "name": "_chainlinkForwarder",
                    "type": "address",
                    "internalType": "address"
                }
            ],
            "outputs": [],
            "stateMutability": "nonpayable"
        },
        {
            "type": "function",
            "name": "setNftContract",
            "inputs": [
                {
                    "name": "_yoyoNftAddress",
                    "type": "address",
                    "internalType": "address"
                }
            ],
            "outputs": [],
            "stateMutability": "nonpayable"
        },
        {
            "type": "function",
            "name": "setUpkeepId",
            "inputs": [
                {
                    "name": "_upkeepId",
                    "type": "uint256",
                    "internalType": "uint256"
                }
            ],
            "outputs": [],
            "stateMutability": "nonpayable"
        },
        {
            "type": "function",
            "name": "transferOwnership",
            "inputs": [
                {
                    "name": "newOwner",
                    "type": "address",
                    "internalType": "address"
                }
            ],
            "outputs": [],
            "stateMutability": "nonpayable"
        },
        {
            "type": "event",
            "name": "OwnershipTransferred",
            "inputs": [
                {
                    "name": "previousOwner",
                    "type": "address",
                    "indexed": true,
                    "internalType": "address"
                },
                {
                    "name": "newOwner",
                    "type": "address",
                    "indexed": true,
                    "internalType": "address"
                }
            ],
            "anonymous": false
        },
        {
            "type": "event",
            "name": "YoyoAuction__AuctionClosed",
            "inputs": [
                {
                    "name": "auctionId",
                    "type": "uint256",
                    "indexed": true,
                    "internalType": "uint256"
                },
                {
                    "name": "tokenId",
                    "type": "uint256",
                    "indexed": true,
                    "internalType": "uint256"
                },
                {
                    "name": "startPrice",
                    "type": "uint256",
                    "indexed": false,
                    "internalType": "uint256"
                },
                {
                    "name": "startTime",
                    "type": "uint256",
                    "indexed": false,
                    "internalType": "uint256"
                },
                {
                    "name": "endTime",
                    "type": "uint256",
                    "indexed": false,
                    "internalType": "uint256"
                },
                {
                    "name": "winner",
                    "type": "address",
                    "indexed": false,
                    "internalType": "address"
                },
                {
                    "name": "higherBid",
                    "type": "uint256",
                    "indexed": true,
                    "internalType": "uint256"
                }
            ],
            "anonymous": false
        },
        {
            "type": "event",
            "name": "YoyoAuction__AuctionFinalized",
            "inputs": [
                {
                    "name": "auctionId",
                    "type": "uint256",
                    "indexed": true,
                    "internalType": "uint256"
                },
                {
                    "name": "tokenId",
                    "type": "uint256",
                    "indexed": true,
                    "internalType": "uint256"
                },
                {
                    "name": "nftOwner",
                    "type": "address",
                    "indexed": true,
                    "internalType": "address"
                }
            ],
            "anonymous": false
        },
        {
            "type": "event",
            "name": "YoyoAuction__AuctionOpened",
            "inputs": [
                {
                    "name": "auctionId",
                    "type": "uint256",
                    "indexed": true,
                    "internalType": "uint256"
                },
                {
                    "name": "tokenId",
                    "type": "uint256",
                    "indexed": true,
                    "internalType": "uint256"
                },
                {
                    "name": "auctionType",
                    "type": "uint8",
                    "indexed": false,
                    "internalType": "enum AuctionType"
                },
                {
                    "name": "startPrice",
                    "type": "uint256",
                    "indexed": false,
                    "internalType": "uint256"
                },
                {
                    "name": "startTime",
                    "type": "uint256",
                    "indexed": false,
                    "internalType": "uint256"
                },
                {
                    "name": "endTime",
                    "type": "uint256",
                    "indexed": false,
                    "internalType": "uint256"
                },
                {
                    "name": "minimumBidIncrement",
                    "type": "uint256",
                    "indexed": false,
                    "internalType": "uint256"
                }
            ],
            "anonymous": false
        },
        {
            "type": "event",
            "name": "YoyoAuction__AuctionRestarted",
            "inputs": [
                {
                    "name": "auctionId",
                    "type": "uint256",
                    "indexed": true,
                    "internalType": "uint256"
                },
                {
                    "name": "tokenId",
                    "type": "uint256",
                    "indexed": true,
                    "internalType": "uint256"
                },
                {
                    "name": "newStartTime",
                    "type": "uint256",
                    "indexed": false,
                    "internalType": "uint256"
                },
                {
                    "name": "newStartPrice",
                    "type": "uint256",
                    "indexed": false,
                    "internalType": "uint256"
                },
                {
                    "name": "newEndTime",
                    "type": "uint256",
                    "indexed": false,
                    "internalType": "uint256"
                },
                {
                    "name": "minimumBidIncrement",
                    "type": "uint256",
                    "indexed": false,
                    "internalType": "uint256"
                }
            ],
            "anonymous": false
        },
        {
            "type": "event",
            "name": "YoyoAuction__BidPlaced",
            "inputs": [
                {
                    "name": "auctionId",
                    "type": "uint256",
                    "indexed": true,
                    "internalType": "uint256"
                },
                {
                    "name": "bidder",
                    "type": "address",
                    "indexed": true,
                    "internalType": "address"
                },
                {
                    "name": "bidAmount",
                    "type": "uint256",
                    "indexed": false,
                    "internalType": "uint256"
                },
                {
                    "name": "auctionType",
                    "type": "uint8",
                    "indexed": false,
                    "internalType": "enum AuctionType"
                }
            ],
            "anonymous": false
        },
        {
            "type": "event",
            "name": "YoyoAuction__BidderRefundFailed",
            "inputs": [
                {
                    "name": "prevBidderAddress",
                    "type": "address",
                    "indexed": true,
                    "internalType": "address"
                },
                {
                    "name": "bidAmount",
                    "type": "uint256",
                    "indexed": false,
                    "internalType": "uint256"
                }
            ],
            "anonymous": false
        },
        {
            "type": "event",
            "name": "YoyoAuction__BidderRefunded",
            "inputs": [
                {
                    "name": "prevBidderAddress",
                    "type": "address",
                    "indexed": true,
                    "internalType": "address"
                },
                {
                    "name": "bidAmount",
                    "type": "uint256",
                    "indexed": false,
                    "internalType": "uint256"
                }
            ],
            "anonymous": false
        },
        {
            "type": "event",
            "name": "YoyoAuction__ManualUpkeepExecuted",
            "inputs": [
                {
                    "name": "auctionId",
                    "type": "uint256",
                    "indexed": true,
                    "internalType": "uint256"
                },
                {
                    "name": "executor",
                    "type": "address",
                    "indexed": true,
                    "internalType": "address"
                },
                {
                    "name": "timestamp",
                    "type": "uint256",
                    "indexed": false,
                    "internalType": "uint256"
                }
            ],
            "anonymous": false
        },
        {
            "type": "event",
            "name": "YoyoAuction__MintFailed",
            "inputs": [
                {
                    "name": "auctionId",
                    "type": "uint256",
                    "indexed": true,
                    "internalType": "uint256"
                },
                {
                    "name": "tokenId",
                    "type": "uint256",
                    "indexed": true,
                    "internalType": "uint256"
                },
                {
                    "name": "bidder",
                    "type": "address",
                    "indexed": true,
                    "internalType": "address"
                },
                {
                    "name": "reason",
                    "type": "string",
                    "indexed": false,
                    "internalType": "string"
                }
            ],
            "anonymous": false
        },
        {
            "type": "error",
            "name": "OwnableInvalidOwner",
            "inputs": [
                {
                    "name": "owner",
                    "type": "address",
                    "internalType": "address"
                }
            ]
        },
        {
            "type": "error",
            "name": "OwnableUnauthorizedAccount",
            "inputs": [
                {
                    "name": "account",
                    "type": "address",
                    "internalType": "address"
                }
            ]
        },
        {
            "type": "error",
            "name": "ReentrancyGuardReentrantCall",
            "inputs": []
        },
        {
            "type": "error",
            "name": "YoyoAuction__AuctionAlreadyEnded",
            "inputs": []
        },
        {
            "type": "error",
            "name": "YoyoAuction__AuctionDoesNotExist",
            "inputs": []
        },
        {
            "type": "error",
            "name": "YoyoAuction__AuctionNotOpen",
            "inputs": []
        },
        {
            "type": "error",
            "name": "YoyoAuction__AuctionStillOpen",
            "inputs": []
        },
        {
            "type": "error",
            "name": "YoyoAuction__BidTooLow",
            "inputs": []
        },
        {
            "type": "error",
            "name": "YoyoAuction__CallValidFunctionToInteractWithContract",
            "inputs": []
        },
        {
            "type": "error",
            "name": "YoyoAuction__CannotChangeMintPriceDuringOpenAuction",
            "inputs": []
        },
        {
            "type": "error",
            "name": "YoyoAuction__ChainlinkForwarderAddressAlreadySet",
            "inputs": []
        },
        {
            "type": "error",
            "name": "YoyoAuction__ChainlinkUpkeepIdAlreadySet",
            "inputs": []
        },
        {
            "type": "error",
            "name": "YoyoAuction__InvalidTokenId",
            "inputs": []
        },
        {
            "type": "error",
            "name": "YoyoAuction__InvalidValue",
            "inputs": []
        },
        {
            "type": "error",
            "name": "YoyoAuction__NftContractAlreadySet",
            "inputs": []
        },
        {
            "type": "error",
            "name": "YoyoAuction__NftContractNotSet",
            "inputs": []
        },
        {
            "type": "error",
            "name": "YoyoAuction__NoFailedRefundsToClaim",
            "inputs": []
        },
        {
            "type": "error",
            "name": "YoyoAuction__NoTokenToClaim",
            "inputs": []
        },
        {
            "type": "error",
            "name": "YoyoAuction__OnlyChainlinkAutomationOrOwner",
            "inputs": []
        },
        {
            "type": "error",
            "name": "YoyoAuction__PreviousBidderRefundFailed",
            "inputs": []
        },
        {
            "type": "error",
            "name": "YoyoAuction__ThisContractDoesntAcceptDeposit",
            "inputs": []
        },
        {
            "type": "error",
            "name": "YoyoAuction__UpkeepNotNeeded",
            "inputs": []
        },
        {
            "type": "error",
            "name": "YoyoAuction__WinnerHasUnclaimedToken",
            "inputs": []
        }
    ],
    "bytecode": {
        "object": "0x608060405234801561000f575f5ffd5b503360015f819055505f73ffffffffffffffffffffffffffffffffffffffff168173ffffffffffffffffffffffffffffffffffffffff1603610088575f6040517f1e4fbdf700000000000000000000000000000000000000000000000000000000815260040161007f91906101a6565b60405180910390fd5b610097816100a460201b60201c565b505f6006819055506101bf565b5f60015f9054906101000a900473ffffffffffffffffffffffffffffffffffffffff1690508160015f6101000a81548173ffffffffffffffffffffffffffffffffffffffff021916908373ffffffffffffffffffffffffffffffffffffffff1602179055508173ffffffffffffffffffffffffffffffffffffffff168173ffffffffffffffffffffffffffffffffffffffff167f8be0079c531659141344cd1fd0a4f28419497f9722a3daafe3b4186f6b6457e060405160405180910390a35050565b5f73ffffffffffffffffffffffffffffffffffffffff82169050919050565b5f61019082610167565b9050919050565b6101a081610186565b82525050565b5f6020820190506101b95f830184610197565b92915050565b614cdf806101cc5f395ff3fe6080604052600436106101db575f3560e01c8063667c99de11610101578063aadd577e11610094578063dbd1838811610063578063dbd18388146106cb578063dcb66f12146106f5578063eb8460e51461071f578063f2fde38b1461075b57610212565b8063aadd577e14610635578063beb1a54014610651578063cbfbbbc21461068d578063d02c21b1146106a357610212565b80637fb20304116100d05780637fb203041461058d57806381137634146105b75780638da5cb5b146105e157806396dcfac41461060b57610212565b8063667c99de146104e65780636e04ff0d14610510578063715018a61461054d57806378cb51af1461056357610212565b8063237c9552116101795780634a8efd08116101485780634a8efd081461042e5780634b9c4ae11461046a57806351c7115b1461049457806352f5ad77146104be57610212565b8063237c955214610378578063346fcf09146103b45780633fd17366146103de5780634585e33b1461040657610212565b8063106f1f23116101b5578063106f1f23146102c0578063150b7a02146102ea5780631bcc3540146103265780631cf67e8b1461034e57610212565b806302ba5a1a146102445780630bbba2481461026e5780630eb1f3b91461029857610212565b36610212576040517fad34dd2400000000000000000000000000000000000000000000000000000000815260040160405180910390fd5b6040517f7c1cfd8c00000000000000000000000000000000000000000000000000000000815260040160405180910390fd5b34801561024f575f5ffd5b50610258610783565b6040516102659190614129565b60405180910390f35b348015610279575f5ffd5b50610282610798565b60405161028f9190614129565b60405180910390f35b3480156102a3575f5ffd5b506102be60048036038101906102b9919061417d565b6107a1565b005b3480156102cb575f5ffd5b506102d461087d565b6040516102e19190614129565b60405180910390f35b3480156102f5575f5ffd5b50610310600480360381019061030b9190614263565b610886565b60405161031d9190614321565b60405180910390f35b348015610331575f5ffd5b5061034c6004803603810190610347919061417d565b61089a565b005b348015610359575f5ffd5b506103626108e7565b60405161036f9190614129565b60405180910390f35b348015610383575f5ffd5b5061039e6004803603810190610399919061417d565b6108f0565b6040516103ab91906144f0565b60405180910390f35b3480156103bf575f5ffd5b506103c8610a81565b6040516103d59190614129565b60405180910390f35b3480156103e9575f5ffd5b5061040460048036038101906103ff919061417d565b610a8a565b005b348015610411575f5ffd5b5061042c6004803603810190610427919061450a565b610e27565b005b348015610439575f5ffd5b50610454600480360381019061044f9190614578565b61121a565b6040516104619190614129565b60405180910390f35b348015610475575f5ffd5b5061047e6117d7565b60405161048b9190614129565b60405180910390f35b34801561049f575f5ffd5b506104a86117df565b6040516104b59190614129565b60405180910390f35b3480156104c9575f5ffd5b506104e460048036038101906104df91906145b6565b611b95565b005b3480156104f1575f5ffd5b506104fa611d13565b60405161050791906145f0565b60405180910390f35b34801561051b575f5ffd5b506105366004803603810190610531919061450a565b611d3b565b604051610544929190614693565b60405180910390f35b348015610558575f5ffd5b50610561611f4a565b005b34801561056e575f5ffd5b50610577611f5d565b6040516105849190614129565b60405180910390f35b348015610598575f5ffd5b506105a1611f67565b6040516105ae9190614129565b60405180910390f35b3480156105c2575f5ffd5b506105cb611f6f565b6040516105d891906145f0565b60405180910390f35b3480156105ec575f5ffd5b506105f5611f97565b60405161060291906145f0565b60405180910390f35b348015610616575f5ffd5b5061061f611fbf565b60405161062c9190614129565b60405180910390f35b61064f600480360381019061064a919061417d565b611fc7565b005b34801561065c575f5ffd5b50610677600480360381019061067291906145b6565b612329565b6040516106849190614129565b60405180910390f35b348015610698575f5ffd5b506106a161236f565b005b3480156106ae575f5ffd5b506106c960048036038101906106c491906145b6565b612569565b005b3480156106d6575f5ffd5b506106df61263a565b6040516106ec9190614129565b60405180910390f35b348015610700575f5ffd5b50610709612643565b60405161071691906144f0565b60405180910390f35b34801561072a575f5ffd5b50610745600480360381019061074091906146c1565b6127d4565b60405161075291906146ff565b60405180910390f35b348015610766575f5ffd5b50610781600480360381019061077c91906145b6565b612836565b005b5f60196103e86107939190614772565b905090565b5f600654905090565b6107a96128ba565b5f6107b482336127d4565b9050801561083f573073ffffffffffffffffffffffffffffffffffffffff1660075f8481526020019081526020015f206002015f9054906101000a900473ffffffffffffffffffffffffffffffffffffffff1673ffffffffffffffffffffffffffffffffffffffff16036108305761082b826128fe565b61083a565b61083982612b07565b5b610871565b6040517f9da9153100000000000000000000000000000000000000000000000000000000815260040160405180910390fd5b5061087a612d62565b50565b5f6103e8905090565b5f63150b7a0260e01b905095945050505050565b6108a2612d6b565b5f600454146108dd576040517f94223db300000000000000000000000000000000000000000000000000000000815260040160405180910390fd5b8060048190555050565b5f600454905090565b6108f8614072565b60075f8381526020019081526020015f20604051806101600160405290815f820154815260200160018201548152602001600282015f9054906101000a900473ffffffffffffffffffffffffffffffffffffffff1673ffffffffffffffffffffffffffffffffffffffff1673ffffffffffffffffffffffffffffffffffffffff1681526020016002820160149054906101000a900460ff1660038111156109a2576109a1614358565b5b60038111156109b4576109b3614358565b5b81526020016002820160159054906101000a900460ff1660018111156109dd576109dc614358565b5b60018111156109ef576109ee614358565b5b8152602001600382015481526020016004820154815260200160058201548152602001600682015f9054906101000a900473ffffffffffffffffffffffffffffffffffffffff1673ffffffffffffffffffffffffffffffffffffffff1673ffffffffffffffffffffffffffffffffffffffff168152602001600782015481526020016008820154815250509050919050565b5f600554905090565b610a92612d6b565b5f73ffffffffffffffffffffffffffffffffffffffff1660025f9054906101000a900473ffffffffffffffffffffffffffffffffffffffff1673ffffffffffffffffffffffffffffffffffffffff1603610b18576040517ffbec69b100000000000000000000000000000000000000000000000000000000815260040160405180910390fd5b60196103e8610b279190614772565b8111610b5f576040517f29e2d24700000000000000000000000000000000000000000000000000000000815260040160405180910390fd5b5f60075f60065481526020019081526020015f20604051806101600160405290815f820154815260200160018201548152602001600282015f9054906101000a900473ffffffffffffffffffffffffffffffffffffffff1673ffffffffffffffffffffffffffffffffffffffff1673ffffffffffffffffffffffffffffffffffffffff1681526020016002820160149054906101000a900460ff166003811115610c0c57610c0b614358565b5b6003811115610c1e57610c1d614358565b5b81526020016002820160159054906101000a900460ff166001811115610c4757610c46614358565b5b6001811115610c5957610c58614358565b5b8152602001600382015481526020016004820154815260200160058201548152602001600682015f9054906101000a900473ffffffffffffffffffffffffffffffffffffffff1673ffffffffffffffffffffffffffffffffffffffff1673ffffffffffffffffffffffffffffffffffffffff16815260200160078201548152602001600882015481525050905060016003811115610cfa57610cf9614358565b5b81606001516003811115610d1157610d10614358565b5b1480610d45575060026003811115610d2c57610d2b614358565b5b81606001516003811115610d4357610d42614358565b5b145b15610d7c576040517f7849319c00000000000000000000000000000000000000000000000000000000815260040160405180910390fd5b60025f9054906101000a900473ffffffffffffffffffffffffffffffffffffffff1673ffffffffffffffffffffffffffffffffffffffff166352dfd785836040518263ffffffff1660e01b8152600401610dd69190614129565b5f604051808303815f87803b158015610ded575f5ffd5b505af1158015610dff573d5f5f3e3d5ffd5b505050506103e8601983610e1391906147a2565b610e1d9190614772565b6005819055505050565b5f5f8383810190610e3891906147e3565b915091505f61546082610e4b9190614821565b421090508015610ee05760035f9054906101000a900473ffffffffffffffffffffffffffffffffffffffff1673ffffffffffffffffffffffffffffffffffffffff163373ffffffffffffffffffffffffffffffffffffffff1614610edb576040517f22db66e000000000000000000000000000000000000000000000000000000000815260040160405180910390fd5b610ff7565b60035f9054906101000a900473ffffffffffffffffffffffffffffffffffffffff1673ffffffffffffffffffffffffffffffffffffffff163373ffffffffffffffffffffffffffffffffffffffff1614158015610f705750610f40611f97565b73ffffffffffffffffffffffffffffffffffffffff163373ffffffffffffffffffffffffffffffffffffffff1614155b15610fa7576040517f22db66e000000000000000000000000000000000000000000000000000000000815260040160405180910390fd5b3373ffffffffffffffffffffffffffffffffffffffff16837fd71fa9a1d35ee65d578e9aca551098035719e6d88b903fad32620bc8f178cdd242604051610fee9190614129565b60405180910390a35b5f6110028686611d3b565b5090508061103c576040517fdfd5114900000000000000000000000000000000000000000000000000000000815260040160405180910390fd5b5f60075f8681526020019081526020015f20604051806101600160405290815f820154815260200160018201548152602001600282015f9054906101000a900473ffffffffffffffffffffffffffffffffffffffff1673ffffffffffffffffffffffffffffffffffffffff1673ffffffffffffffffffffffffffffffffffffffff1681526020016002820160149054906101000a900460ff1660038111156110e7576110e6614358565b5b60038111156110f9576110f8614358565b5b81526020016002820160159054906101000a900460ff16600181111561112257611121614358565b5b600181111561113457611133614358565b5b8152602001600382015481526020016004820154815260200160058201548152602001600682015f9054906101000a900473ffffffffffffffffffffffffffffffffffffffff1673ffffffffffffffffffffffffffffffffffffffff1673ffffffffffffffffffffffffffffffffffffffff1681526020016007820154815260200160088201548152505090505f73ffffffffffffffffffffffffffffffffffffffff1681610100015173ffffffffffffffffffffffffffffffffffffffff16146112075761120285612df2565b611211565b611210856132b8565b5b50505050505050565b5f611223612d6b565b5f73ffffffffffffffffffffffffffffffffffffffff1660025f9054906101000a900473ffffffffffffffffffffffffffffffffffffffff1673ffffffffffffffffffffffffffffffffffffffff16036112a9576040517ffbec69b100000000000000000000000000000000000000000000000000000000815260040160405180910390fd5b600115155f151560025f9054906101000a900473ffffffffffffffffffffffffffffffffffffffff1673ffffffffffffffffffffffffffffffffffffffff16632168509e866040518263ffffffff1660e01b815260040161130a9190614129565b602060405180830381865afa158015611325573d5f5f3e3d5ffd5b505050506040513d601f19601f82011682018060405250810190611349919061487e565b15151480611371575060095f8581526020019081526020015f205f9054906101000a900460ff165b1515036113aa576040517f78ba56a200000000000000000000000000000000000000000000000000000000815260040160405180910390fd5b5f60075f60065481526020019081526020015f20604051806101600160405290815f820154815260200160018201548152602001600282015f9054906101000a900473ffffffffffffffffffffffffffffffffffffffff1673ffffffffffffffffffffffffffffffffffffffff1673ffffffffffffffffffffffffffffffffffffffff1681526020016002820160149054906101000a900460ff16600381111561145757611456614358565b5b600381111561146957611468614358565b5b81526020016002820160159054906101000a900460ff16600181111561149257611491614358565b5b60018111156114a4576114a3614358565b5b8152602001600382015481526020016004820154815260200160058201548152602001600682015f9054906101000a900473ffffffffffffffffffffffffffffffffffffffff1673ffffffffffffffffffffffffffffffffffffffff1673ffffffffffffffffffffffffffffffffffffffff1681526020016007820154815260200160088201548152505090506001600381111561154557611544614358565b5b8160600151600381111561155c5761155b614358565b5b03611593576040517fb2e9541c00000000000000000000000000000000000000000000000000000000815260040160405180910390fd5b5f5f60065f8154600101919050819055915062015180420190506115b5614072565b5f60018111156115c8576115c7614358565b5b8660018111156115db576115da614358565b5b036115f2576115eb878484613515565b905061162c565b60018081111561160557611604614358565b5b86600181111561161857611617614358565b5b0361162b5761162887848461365c565b90505b5b8060075f8581526020019081526020015f205f820151815f0155602082015181600101556040820151816002015f6101000a81548173ffffffffffffffffffffffffffffffffffffffff021916908373ffffffffffffffffffffffffffffffffffffffff16021790555060608201518160020160146101000a81548160ff021916908360038111156116c1576116c0614358565b5b021790555060808201518160020160156101000a81548160ff021916908360018111156116f1576116f0614358565b5b021790555060a0820151816003015560c0820151816004015560e08201518160050155610100820151816006015f6101000a81548173ffffffffffffffffffffffffffffffffffffffff021916908373ffffffffffffffffffffffffffffffffffffffff1602179055506101208201518160070155610140820151816008015590505086837fa7b3bd331693243ead7b41ec889f10d72d7d760de7f087a8fa21f182bf11c8ee83608001518460a001518560c001518660e001518761014001516040516117c29594939291906148b8565b60405180910390a38294505050505092915050565b5f6030905090565b5f5f60075f60065481526020019081526020015f20604051806101600160405290815f820154815260200160018201548152602001600282015f9054906101000a900473ffffffffffffffffffffffffffffffffffffffff1673ffffffffffffffffffffffffffffffffffffffff1673ffffffffffffffffffffffffffffffffffffffff1681526020016002820160149054906101000a900460ff16600381111561188d5761188c614358565b5b600381111561189f5761189e614358565b5b81526020016002820160159054906101000a900460ff1660018111156118c8576118c7614358565b5b60018111156118da576118d9614358565b5b8152602001600382015481526020016004820154815260200160058201548152602001600682015f9054906101000a900473ffffffffffffffffffffffffffffffffffffffff1673ffffffffffffffffffffffffffffffffffffffff1673ffffffffffffffffffffffffffffffffffffffff1681526020016007820154815260200160088201548152505090505f6001600381111561197c5761197b614358565b5b8260600151600381111561199357611992614358565b5b146119ca576040517fb4f98e2400000000000000000000000000000000000000000000000000000000815260040160405180910390fd5b5f60018111156119dd576119dc614358565b5b826080015160018111156119f4576119f3614358565b5b03611a1257816101400151826101200151611a0f9190614821565b90505b600180811115611a2557611a24614358565b5b82608001516001811115611a3c57611a3b614358565b5b03611b8d575f611adf60025f9054906101000a900473ffffffffffffffffffffffffffffffffffffffff1673ffffffffffffffffffffffffffffffffffffffff1663754ea1596040518163ffffffff1660e01b8152600401602060405180830381865afa158015611aaf573d5f5f3e3d5ffd5b505050506040513d601f19601f82011682018060405250810190611ad3919061491d565b8460a00151603061384a565b9050611b898360a0015160025f9054906101000a900473ffffffffffffffffffffffffffffffffffffffff1673ffffffffffffffffffffffffffffffffffffffff1663754ea1596040518163ffffffff1660e01b8152600401602060405180830381865afa158015611b53573d5f5f3e3d5ffd5b505050506040513d601f19601f82011682018060405250810190611b77919061491d565b838660c001518760e001516030613870565b9150505b809250505090565b611b9d612d6b565b5f73ffffffffffffffffffffffffffffffffffffffff1660025f9054906101000a900473ffffffffffffffffffffffffffffffffffffffff1673ffffffffffffffffffffffffffffffffffffffff1614611c23576040517fd79c1e9100000000000000000000000000000000000000000000000000000000815260040160405180910390fd5b8060025f6101000a81548173ffffffffffffffffffffffffffffffffffffffff021916908373ffffffffffffffffffffffffffffffffffffffff1602179055506103e8601960025f9054906101000a900473ffffffffffffffffffffffffffffffffffffffff1673ffffffffffffffffffffffffffffffffffffffff1663754ea1596040518163ffffffff1660e01b8152600401602060405180830381865afa158015611cd2573d5f5f3e3d5ffd5b505050506040513d601f19601f82011682018060405250810190611cf6919061491d565b611d0091906147a2565b611d0a9190614772565b60058190555050565b5f60025f9054906101000a900473ffffffffffffffffffffffffffffffffffffffff16905090565b5f60605f60075f60065481526020019081526020015f20604051806101600160405290815f820154815260200160018201548152602001600282015f9054906101000a900473ffffffffffffffffffffffffffffffffffffffff1673ffffffffffffffffffffffffffffffffffffffff1673ffffffffffffffffffffffffffffffffffffffff1681526020016002820160149054906101000a900460ff166003811115611deb57611dea614358565b5b6003811115611dfd57611dfc614358565b5b81526020016002820160159054906101000a900460ff166001811115611e2657611e25614358565b5b6001811115611e3857611e37614358565b5b8152602001600382015481526020016004820154815260200160058201548152602001600682015f9054906101000a900473ffffffffffffffffffffffffffffffffffffffff1673ffffffffffffffffffffffffffffffffffffffff1673ffffffffffffffffffffffffffffffffffffffff1681526020016007820154815260200160088201548152505090505f60016003811115611eda57611ed9614358565b5b82606001516003811115611ef157611ef0614358565b5b1490505f8260e0015142101590505f835f015190505f8460e001519050828015611f185750835b96508181604051602001611f2d929190614948565b604051602081830303815290604052955050505050509250929050565b611f52612d6b565b611f5b5f61390b565b565b5f62015180905090565b5f6019905090565b5f60035f9054906101000a900473ffffffffffffffffffffffffffffffffffffffff16905090565b5f60015f9054906101000a900473ffffffffffffffffffffffffffffffffffffffff16905090565b5f600d905090565b611fcf6128ba565b5f60075f8381526020019081526020015f20604051806101600160405290815f820154815260200160018201548152602001600282015f9054906101000a900473ffffffffffffffffffffffffffffffffffffffff1673ffffffffffffffffffffffffffffffffffffffff1673ffffffffffffffffffffffffffffffffffffffff1681526020016002820160149054906101000a900460ff16600381111561207a57612079614358565b5b600381111561208c5761208b614358565b5b81526020016002820160159054906101000a900460ff1660018111156120b5576120b4614358565b5b60018111156120c7576120c6614358565b5b8152602001600382015481526020016004820154815260200160058201548152602001600682015f9054906101000a900473ffffffffffffffffffffffffffffffffffffffff1673ffffffffffffffffffffffffffffffffffffffff1673ffffffffffffffffffffffffffffffffffffffff1681526020016007820154815260200160088201548152505090505f8160c0015103612191576040517fcb921d6600000000000000000000000000000000000000000000000000000000815260040160405180910390fd5b600160038111156121a5576121a4614358565b5b816060015160038111156121bc576121bb614358565b5b146121f3576040517fb4f98e2400000000000000000000000000000000000000000000000000000000815260040160405180910390fd5b8060e001514210612230576040517f692eb1fb00000000000000000000000000000000000000000000000000000000815260040160405180910390fd5b5f60085f3373ffffffffffffffffffffffffffffffffffffffff1673ffffffffffffffffffffffffffffffffffffffff1681526020019081526020015f2054146122a6576040517f317a05a200000000000000000000000000000000000000000000000000000000815260040160405180910390fd5b6001808111156122b9576122b8614358565b5b816080015160018111156122d0576122cf614358565b5b036122e3576122de826139ce565b61231d565b5f60018111156122f6576122f5614358565b5b8160800151600181111561230d5761230c614358565b5b0361231c5761231b82613a20565b5b5b50612326612d62565b50565b5f600a5f8373ffffffffffffffffffffffffffffffffffffffff1673ffffffffffffffffffffffffffffffffffffffff1681526020019081526020015f20549050919050565b6123776128ba565b5f600a5f3373ffffffffffffffffffffffffffffffffffffffff1673ffffffffffffffffffffffffffffffffffffffff1681526020019081526020015f2054036123ed576040517f04f3adb300000000000000000000000000000000000000000000000000000000815260040160405180910390fd5b5f600a5f3373ffffffffffffffffffffffffffffffffffffffff1673ffffffffffffffffffffffffffffffffffffffff1681526020019081526020015f205490505f600a5f3373ffffffffffffffffffffffffffffffffffffffff1673ffffffffffffffffffffffffffffffffffffffff1681526020019081526020015f20819055505f3373ffffffffffffffffffffffffffffffffffffffff16826040516124959061499c565b5f6040518083038185875af1925050503d805f81146124cf576040519150601f19603f3d011682016040523d82523d5f602084013e6124d4565b606091505b505090508061250f576040517f39fcf91400000000000000000000000000000000000000000000000000000000815260040160405180910390fd5b3373ffffffffffffffffffffffffffffffffffffffff167fd13141e5c5c7e8b2f4ec471dae31f1adcea462a1df9ff7e32eca07dd7f13feeb836040516125559190614129565b60405180910390a25050612567612d62565b565b612571612d6b565b5f73ffffffffffffffffffffffffffffffffffffffff1660035f9054906101000a900473ffffffffffffffffffffffffffffffffffffffff1673ffffffffffffffffffffffffffffffffffffffff16146125f7576040517fc54f0a8400000000000000000000000000000000000000000000000000000000815260040160405180910390fd5b8060035f6101000a81548173ffffffffffffffffffffffffffffffffffffffff021916908373ffffffffffffffffffffffffffffffffffffffff16021790555050565b5f615460905090565b61264b614072565b60075f60065481526020019081526020015f20604051806101600160405290815f820154815260200160018201548152602001600282015f9054906101000a900473ffffffffffffffffffffffffffffffffffffffff1673ffffffffffffffffffffffffffffffffffffffff1673ffffffffffffffffffffffffffffffffffffffff1681526020016002820160149054906101000a900460ff1660038111156126f7576126f6614358565b5b600381111561270957612708614358565b5b81526020016002820160159054906101000a900460ff16600181111561273257612731614358565b5b600181111561274457612743614358565b5b8152602001600382015481526020016004820154815260200160058201548152602001600682015f9054906101000a900473ffffffffffffffffffffffffffffffffffffffff1673ffffffffffffffffffffffffffffffffffffffff1673ffffffffffffffffffffffffffffffffffffffff16815260200160078201548152602001600882015481525050905090565b5f5f60075f8581526020019081526020015f206001015490508060085f8573ffffffffffffffffffffffffffffffffffffffff1673ffffffffffffffffffffffffffffffffffffffff1681526020019081526020015f20541491505092915050565b61283e612d6b565b5f73ffffffffffffffffffffffffffffffffffffffff168173ffffffffffffffffffffffffffffffffffffffff16036128ae575f6040517f1e4fbdf70000000000000000000000000000000000000000000000000000000081526004016128a591906145f0565b60405180910390fd5b6128b78161390b565b50565b60025f54036128f5576040517f3ee5aeb500000000000000000000000000000000000000000000000000000000815260040160405180910390fd5b60025f81905550565b5f60075f8381526020019081526020015f20905060038160020160146101000a81548160ff0219169083600381111561293a57612939614358565b5b0217905550806006015f9054906101000a900473ffffffffffffffffffffffffffffffffffffffff16816002015f6101000a81548173ffffffffffffffffffffffffffffffffffffffff021916908373ffffffffffffffffffffffffffffffffffffffff16021790555060085f826006015f9054906101000a900473ffffffffffffffffffffffffffffffffffffffff1673ffffffffffffffffffffffffffffffffffffffff1673ffffffffffffffffffffffffffffffffffffffff1681526020019081526020015f205f905560025f9054906101000a900473ffffffffffffffffffffffffffffffffffffffff1673ffffffffffffffffffffffffffffffffffffffff166360cc11213383600101546040518363ffffffff1660e01b8152600401612a679291906149b0565b5f604051808303815f87803b158015612a7e575f5ffd5b505af1158015612a90573d5f5f3e3d5ffd5b50505050806006015f9054906101000a900473ffffffffffffffffffffffffffffffffffffffff1673ffffffffffffffffffffffffffffffffffffffff168160010154825f01547f16e5c1affde92023bf324080d04fc310238eebe34589628e1646098a20283c1260405160405180910390a45050565b5f60075f8381526020019081526020015f2090505f8160070154905060085f836006015f9054906101000a900473ffffffffffffffffffffffffffffffffffffffff1673ffffffffffffffffffffffffffffffffffffffff1673ffffffffffffffffffffffffffffffffffffffff1681526020019081526020015f205f905560095f836001015481526020019081526020015f205f6101000a81549060ff021916905560038260020160146101000a81548160ff02191690836003811115612bd257612bd1614358565b5b0217905550816006015f9054906101000a900473ffffffffffffffffffffffffffffffffffffffff16826002015f6101000a81548173ffffffffffffffffffffffffffffffffffffffff021916908373ffffffffffffffffffffffffffffffffffffffff16021790555060025f9054906101000a900473ffffffffffffffffffffffffffffffffffffffff1673ffffffffffffffffffffffffffffffffffffffff1663d1194e2b82846006015f9054906101000a900473ffffffffffffffffffffffffffffffffffffffff1685600101546040518463ffffffff1660e01b8152600401612cc09291906149b0565b5f604051808303818588803b158015612cd7575f5ffd5b505af1158015612ce9573d5f5f3e3d5ffd5b5050505050816006015f9054906101000a900473ffffffffffffffffffffffffffffffffffffffff1673ffffffffffffffffffffffffffffffffffffffff168260010154835f01547f16e5c1affde92023bf324080d04fc310238eebe34589628e1646098a20283c1260405160405180910390a4505050565b60015f81905550565b612d73613ba1565b73ffffffffffffffffffffffffffffffffffffffff16612d91611f97565b73ffffffffffffffffffffffffffffffffffffffff1614612df057612db4613ba1565b6040517f118cdaa7000000000000000000000000000000000000000000000000000000008152600401612de791906145f0565b60405180910390fd5b565b5f60075f8381526020019081526020015f20905060016003811115612e1a57612e19614358565b5b8160020160149054906101000a900460ff166003811115612e3e57612e3d614358565b5b03612e715760028160020160146101000a81548160ff02191690836003811115612e6b57612e6a614358565b5b02179055505b600180811115612e8457612e83614358565b5b8160020160159054906101000a900460ff166001811115612ea857612ea7614358565b5b03612f025742816005018190555033816006015f6101000a81548173ffffffffffffffffffffffffffffffffffffffff021916908373ffffffffffffffffffffffffffffffffffffffff1602179055503481600701819055505b80600701548160010154825f01547f7e8fe1e1c20bf39024ab2717ab0307b33cd32f5a749b0b34750bd02eb8338019846003015485600401548660050154876006015f9054906101000a900473ffffffffffffffffffffffffffffffffffffffff16604051612f7494939291906149d7565b60405180910390a460025f9054906101000a900473ffffffffffffffffffffffffffffffffffffffff1673ffffffffffffffffffffffffffffffffffffffff1663d1194e2b8260070154836006015f9054906101000a900473ffffffffffffffffffffffffffffffffffffffff1684600101546040518463ffffffff1660e01b81526004016130049291906149b0565b5f604051808303818588803b15801561301b575f5ffd5b505af19350505050801561302d575060015b6131b257613039614a26565b806308c379a0036130d1575061304d614aa3565b8061305857506130d3565b816001015460085f846006015f9054906101000a900473ffffffffffffffffffffffffffffffffffffffff1673ffffffffffffffffffffffffffffffffffffffff1673ffffffffffffffffffffffffffffffffffffffff1681526020019081526020015f20819055506130cb8282613ba8565b506131ad565b505b3d805f81146130fd576040519150601f19603f3d011682016040523d82523d5f602084013e613102565b606091505b50816001015460085f846006015f9054906101000a900473ffffffffffffffffffffffffffffffffffffffff1673ffffffffffffffffffffffffffffffffffffffff1673ffffffffffffffffffffffffffffffffffffffff1681526020019081526020015f20819055506131ab826040518060400160405280601681526020017f4c6f772d6c6576656c206d696e74206661696c75726500000000000000000000815250613ba8565b505b6132b4565b60038160020160146101000a81548160ff021916908360038111156131da576131d9614358565b5b0217905550806006015f9054906101000a900473ffffffffffffffffffffffffffffffffffffffff16816002015f6101000a81548173ffffffffffffffffffffffffffffffffffffffff021916908373ffffffffffffffffffffffffffffffffffffffff160217905550806006015f9054906101000a900473ffffffffffffffffffffffffffffffffffffffff1673ffffffffffffffffffffffffffffffffffffffff168160010154825f01547f16e5c1affde92023bf324080d04fc310238eebe34589628e1646098a20283c1260405160405180910390a45b5050565b5f60075f8381526020019081526020015f2090505f5f60018111156132e0576132df614358565b5b8260020160159054906101000a900460ff16600181111561330457613303614358565b5b0361339e5760025f9054906101000a900473ffffffffffffffffffffffffffffffffffffffff1673ffffffffffffffffffffffffffffffffffffffff1663754ea1596040518163ffffffff1660e01b8152600401602060405180830381865afa158015613373573d5f5f3e3d5ffd5b505050506040513d601f19601f82011682018060405250810190613397919061491d565b9050613478565b6001808111156133b1576133b0614358565b5b8260020160159054906101000a900460ff1660018111156133d5576133d4614358565b5b036134775761347460025f9054906101000a900473ffffffffffffffffffffffffffffffffffffffff1673ffffffffffffffffffffffffffffffffffffffff1663754ea1596040518163ffffffff1660e01b8152600401602060405180830381865afa158015613447573d5f5f3e3d5ffd5b505050506040513d601f19601f8201168201806040525081019061346b919061491d565b600d6001613ea9565b90505b5b5f62015180426134889190614821565b905042836004018190555080836005018190555081836003018190555081836007018190555060055483600801819055508260010154835f01547fbadf3450a6eb654cc6a8c810a4751236c100fb6244181271c81bdffa845745ea85600401548660030154876005015488600801546040516135079493929190614b32565b60405180910390a350505050565b61351d614072565b5f60025f9054906101000a900473ffffffffffffffffffffffffffffffffffffffff1673ffffffffffffffffffffffffffffffffffffffff1663754ea1596040518163ffffffff1660e01b8152600401602060405180830381865afa158015613588573d5f5f3e3d5ffd5b505050506040513d601f19601f820116820180604052508101906135ac919061491d565b90505f6040518061016001604052808681526020018781526020015f73ffffffffffffffffffffffffffffffffffffffff168152602001600160038111156135f7576135f6614358565b5b81526020015f600181111561360f5761360e614358565b5b81526020018381526020014281526020018581526020015f73ffffffffffffffffffffffffffffffffffffffff168152602001838152602001600554815250905080925050509392505050565b613664614072565b5f600d60025f9054906101000a900473ffffffffffffffffffffffffffffffffffffffff1673ffffffffffffffffffffffffffffffffffffffff1663754ea1596040518163ffffffff1660e01b8152600401602060405180830381865afa1580156136d1573d5f5f3e3d5ffd5b505050506040513d601f19601f820116820180604052508101906136f5919061491d565b6136ff91906147a2565b90505f61379b60025f9054906101000a900473ffffffffffffffffffffffffffffffffffffffff1673ffffffffffffffffffffffffffffffffffffffff1663754ea1596040518163ffffffff1660e01b8152600401602060405180830381865afa15801561376f573d5f5f3e3d5ffd5b505050506040513d601f19601f82011682018060405250810190613793919061491d565b83603061384a565b90505f6040518061016001604052808781526020018881526020015f73ffffffffffffffffffffffffffffffffffffffff168152602001600160038111156137e6576137e5614358565b5b81526020016001808111156137fe576137fd614358565b5b81526020018481526020014281526020018681526020015f73ffffffffffffffffffffffffffffffffffffffff1681526020018481526020018381525090508093505050509392505050565b5f5f8285856138599190614b75565b6138639190614772565b9050809150509392505050565b5f82421061388057859050613901565b5f848461388d9190614b75565b90505f838261389c9190614772565b90505f86426138ab9190614b75565b90505f82826138ba9190614772565b90505f89826138c991906147a2565b90505f818d116138d9578b6138e6565b818d6138e59190614b75565b5b90508b8110156138f6578b6138f8565b805b96505050505050505b9695505050505050565b5f60015f9054906101000a900473ffffffffffffffffffffffffffffffffffffffff1690508160015f6101000a81548173ffffffffffffffffffffffffffffffffffffffff021916908373ffffffffffffffffffffffffffffffffffffffff1602179055508173ffffffffffffffffffffffffffffffffffffffff168173ffffffffffffffffffffffffffffffffffffffff167f8be0079c531659141344cd1fd0a4f28419497f9722a3daafe3b4186f6b6457e060405160405180910390a35050565b5f6139d76117df565b905080341015613a13576040517f5d25348d00000000000000000000000000000000000000000000000000000000815260040160405180910390fd5b613a1c82612df2565b5050565b5f60075f8381526020019081526020015f20905080600801548160070154613a489190614821565b341015613a81576040517f5d25348d00000000000000000000000000000000000000000000000000000000815260040160405180910390fd5b5f816007015490505f826006015f9054906101000a900473ffffffffffffffffffffffffffffffffffffffff16905033836006015f6101000a81548173ffffffffffffffffffffffffffffffffffffffff021916908373ffffffffffffffffffffffffffffffffffffffff1602179055503483600701819055505f73ffffffffffffffffffffffffffffffffffffffff168173ffffffffffffffffffffffffffffffffffffffff1614613b3957613b388282613eca565b5b3373ffffffffffffffffffffffffffffffffffffffff16847f21b5f527253429bd48dc9786eee7c45f9a257836ac5fed55d882f31f501aa3c8348660020160159054906101000a900460ff16604051613b93929190614ba8565b60405180910390a350505050565b5f33905090565b60025f9054906101000a900473ffffffffffffffffffffffffffffffffffffffff1673ffffffffffffffffffffffffffffffffffffffff1663d1194e2b83600701543085600101546040518463ffffffff1660e01b8152600401613c0d9291906149b0565b5f604051808303818588803b158015613c24575f5ffd5b505af193505050508015613c36575060015b613dbb57613c42614a26565b806308c379a003613d0e5750613c56614aa3565b80613c615750613d10565b600160095f856001015481526020019081526020015f205f6101000a81548160ff021916908315150217905550826006015f9054906101000a900473ffffffffffffffffffffffffffffffffffffffff1673ffffffffffffffffffffffffffffffffffffffff168360010154845f01547fdf299bd07f5cddda0f5398ba4059d7d8dd59f41becc8ba3ec7cee789dbec3e9784604051613d009190614c21565b60405180910390a450613db6565b505b600160095f846001015481526020019081526020015f205f6101000a81548160ff021916908315150217905550816006015f9054906101000a900473ffffffffffffffffffffffffffffffffffffffff1673ffffffffffffffffffffffffffffffffffffffff168260010154835f01547fdf299bd07f5cddda0f5398ba4059d7d8dd59f41becc8ba3ec7cee789dbec3e97604051613dad90614c8b565b60405180910390a45b613ea5565b60028260020160146101000a81548160ff02191690836003811115613de357613de2614358565b5b021790555030826002015f6101000a81548173ffffffffffffffffffffffffffffffffffffffff021916908373ffffffffffffffffffffffffffffffffffffffff160217905550816006015f9054906101000a900473ffffffffffffffffffffffffffffffffffffffff1673ffffffffffffffffffffffffffffffffffffffff168260010154835f01547fdf299bd07f5cddda0f5398ba4059d7d8dd59f41becc8ba3ec7cee789dbec3e9784604051613e9c9190614c21565b60405180910390a45b5050565b5f818385613eb791906147a2565b613ec19190614772565b90509392505050565b5f73ffffffffffffffffffffffffffffffffffffffff168173ffffffffffffffffffffffffffffffffffffffff1614158015613f0557505f82115b1561406e575f8173ffffffffffffffffffffffffffffffffffffffff1683604051613f2f9061499c565b5f6040518083038185875af1925050503d805f8114613f69576040519150601f19603f3d011682016040523d82523d5f602084013e613f6e565b606091505b505090508061401d5782600a5f8473ffffffffffffffffffffffffffffffffffffffff1673ffffffffffffffffffffffffffffffffffffffff1681526020019081526020015f205f828254613fc39190614821565b925050819055508173ffffffffffffffffffffffffffffffffffffffff167f9a148d6710d9cc9f278d68790f92cb6236c6933d7f5732d5eb213fd15b1ddfe6846040516140109190614129565b60405180910390a261406c565b8173ffffffffffffffffffffffffffffffffffffffff167fd13141e5c5c7e8b2f4ec471dae31f1adcea462a1df9ff7e32eca07dd7f13feeb846040516140639190614129565b60405180910390a25b505b5050565b6040518061016001604052805f81526020015f81526020015f73ffffffffffffffffffffffffffffffffffffffff1681526020015f60038111156140b9576140b8614358565b5b81526020015f60018111156140d1576140d0614358565b5b81526020015f81526020015f81526020015f81526020015f73ffffffffffffffffffffffffffffffffffffffff1681526020015f81526020015f81525090565b5f819050919050565b61412381614111565b82525050565b5f60208201905061413c5f83018461411a565b92915050565b5f604051905090565b5f5ffd5b5f5ffd5b61415c81614111565b8114614166575f5ffd5b50565b5f8135905061417781614153565b92915050565b5f602082840312156141925761419161414b565b5b5f61419f84828501614169565b91505092915050565b5f73ffffffffffffffffffffffffffffffffffffffff82169050919050565b5f6141d1826141a8565b9050919050565b6141e1816141c7565b81146141eb575f5ffd5b50565b5f813590506141fc816141d8565b92915050565b5f5ffd5b5f5ffd5b5f5ffd5b5f5f83601f84011261422357614222614202565b5b8235905067ffffffffffffffff8111156142405761423f614206565b5b60208301915083600182028301111561425c5761425b61420a565b5b9250929050565b5f5f5f5f5f6080868803121561427c5761427b61414b565b5b5f614289888289016141ee565b955050602061429a888289016141ee565b94505060406142ab88828901614169565b935050606086013567ffffffffffffffff8111156142cc576142cb61414f565b5b6142d88882890161420e565b92509250509295509295909350565b5f7fffffffff0000000000000000000000000000000000000000000000000000000082169050919050565b61431b816142e7565b82525050565b5f6020820190506143345f830184614312565b92915050565b61434381614111565b82525050565b614352816141c7565b82525050565b7f4e487b71000000000000000000000000000000000000000000000000000000005f52602160045260245ffd5b6004811061439657614395614358565b5b50565b5f8190506143a682614385565b919050565b5f6143b582614399565b9050919050565b6143c5816143ab565b82525050565b600281106143dc576143db614358565b5b50565b5f8190506143ec826143cb565b919050565b5f6143fb826143df565b9050919050565b61440b816143f1565b82525050565b61016082015f8201516144265f85018261433a565b506020820151614439602085018261433a565b50604082015161444c6040850182614349565b50606082015161445f60608501826143bc565b5060808201516144726080850182614402565b5060a082015161448560a085018261433a565b5060c082015161449860c085018261433a565b5060e08201516144ab60e085018261433a565b506101008201516144c0610100850182614349565b506101208201516144d561012085018261433a565b506101408201516144ea61014085018261433a565b50505050565b5f610160820190506145045f830184614411565b92915050565b5f5f602083850312156145205761451f61414b565b5b5f83013567ffffffffffffffff81111561453d5761453c61414f565b5b6145498582860161420e565b92509250509250929050565b60028110614561575f5ffd5b50565b5f8135905061457281614555565b92915050565b5f5f6040838503121561458e5761458d61414b565b5b5f61459b85828601614169565b92505060206145ac85828601614564565b9150509250929050565b5f602082840312156145cb576145ca61414b565b5b5f6145d8848285016141ee565b91505092915050565b6145ea816141c7565b82525050565b5f6020820190506146035f8301846145e1565b92915050565b5f8115159050919050565b61461d81614609565b82525050565b5f81519050919050565b5f82825260208201905092915050565b8281835e5f83830152505050565b5f601f19601f8301169050919050565b5f61466582614623565b61466f818561462d565b935061467f81856020860161463d565b6146888161464b565b840191505092915050565b5f6040820190506146a65f830185614614565b81810360208301526146b8818461465b565b90509392505050565b5f5f604083850312156146d7576146d661414b565b5b5f6146e485828601614169565b92505060206146f5858286016141ee565b9150509250929050565b5f6020820190506147125f830184614614565b92915050565b7f4e487b71000000000000000000000000000000000000000000000000000000005f52601260045260245ffd5b7f4e487b71000000000000000000000000000000000000000000000000000000005f52601160045260245ffd5b5f61477c82614111565b915061478783614111565b92508261479757614796614718565b5b828204905092915050565b5f6147ac82614111565b91506147b783614111565b92508282026147c581614111565b915082820484148315176147dc576147db614745565b5b5092915050565b5f5f604083850312156147f9576147f861414b565b5b5f61480685828601614169565b925050602061481785828601614169565b9150509250929050565b5f61482b82614111565b915061483683614111565b925082820190508082111561484e5761484d614745565b5b92915050565b61485d81614609565b8114614867575f5ffd5b50565b5f8151905061487881614854565b92915050565b5f602082840312156148935761489261414b565b5b5f6148a08482850161486a565b91505092915050565b6148b2816143f1565b82525050565b5f60a0820190506148cb5f8301886148a9565b6148d8602083018761411a565b6148e5604083018661411a565b6148f2606083018561411a565b6148ff608083018461411a565b9695505050505050565b5f8151905061491781614153565b92915050565b5f602082840312156149325761493161414b565b5b5f61493f84828501614909565b91505092915050565b5f60408201905061495b5f83018561411a565b614968602083018461411a565b9392505050565b5f81905092915050565b50565b5f6149875f8361496f565b915061499282614979565b5f82019050919050565b5f6149a68261497c565b9150819050919050565b5f6040820190506149c35f8301856145e1565b6149d0602083018461411a565b9392505050565b5f6080820190506149ea5f83018761411a565b6149f7602083018661411a565b614a04604083018561411a565b614a1160608301846145e1565b95945050505050565b5f8160e01c9050919050565b5f60033d1115614a425760045f5f3e614a3f5f51614a1a565b90505b90565b7f4e487b71000000000000000000000000000000000000000000000000000000005f52604160045260245ffd5b614a7b8261464b565b810181811067ffffffffffffffff82111715614a9a57614a99614a45565b5b80604052505050565b5f60443d10614b2f57614ab4614142565b60043d036004823e80513d602482011167ffffffffffffffff82111715614adc575050614b2f565b808201805167ffffffffffffffff811115614afa5750505050614b2f565b80602083010160043d038501811115614b17575050505050614b2f565b614b2682602001850186614a72565b82955050505050505b90565b5f608082019050614b455f83018761411a565b614b52602083018661411a565b614b5f604083018561411a565b614b6c606083018461411a565b95945050505050565b5f614b7f82614111565b9150614b8a83614111565b9250828203905081811115614ba257614ba1614745565b5b92915050565b5f604082019050614bbb5f83018561411a565b614bc860208301846148a9565b9392505050565b5f81519050919050565b5f82825260208201905092915050565b5f614bf382614bcf565b614bfd8185614bd9565b9350614c0d81856020860161463d565b614c168161464b565b840191505092915050565b5f6020820190508181035f830152614c398184614be9565b905092915050565b7f4c6f772d6c6576656c206d696e74206661696c757265000000000000000000005f82015250565b5f614c75601683614bd9565b9150614c8082614c41565b602082019050919050565b5f6020820190508181035f830152614ca281614c69565b905091905056fea2646970667358221220d688f748c2988275c897b52e1a23dabceddc89286d58d1d04eb3567fb334dc1464736f6c634300081e0033",
        "linkReferences": {}
    },
    "methodIdentifiers": {
        "changeMintPrice(uint256)": "3fd17366",
        "checkUpkeep(bytes)": "6e04ff0d",
        "claimFailedRefunds()": "cbfbbbc2",
        "claimNftForWinner(uint256)": "0eb1f3b9",
        "getAuctionCounter()": "0bbba248",
        "getAuctionDuration()": "78cb51af",
        "getAuctionFromAuctionId(uint256)": "237c9552",
        "getChainlinkForwarderAddress()": "81137634",
        "getCurrentAuction()": "dcb66f12",
        "getCurrentAuctionPrice()": "51c7115b",
        "getDutchAuctionNumberOfIntervals()": "4b9c4ae1",
        "getDutchAuctionStartPriceMultiplier()": "96dcfac4",
        "getElegibilityForClaimingNft(uint256,address)": "eb8460e5",
        "getFailedRefundAmount(address)": "beb1a540",
        "getGracePeriod()": "dbd18388",
        "getMinimumBidChangeAmount()": "346fcf09",
        "getMinimumBidChangePercentage()": "7fb20304",
        "getMinimumPossibleMintPrice()": "02ba5a1a",
        "getNftContract()": "667c99de",
        "getPercentageDenominator()": "106f1f23",
        "getUpkeepId()": "1cf67e8b",
        "onERC721Received(address,address,uint256,bytes)": "150b7a02",
        "openNewAuction(uint256,uint8)": "4a8efd08",
        "owner()": "8da5cb5b",
        "performUpkeep(bytes)": "4585e33b",
        "placeBidOnAuction(uint256)": "aadd577e",
        "renounceOwnership()": "715018a6",
        "setChainlinkForwarder(address)": "d02c21b1",
        "setNftContract(address)": "52f5ad77",
        "setUpkeepId(uint256)": "1bcc3540",
        "transferOwnership(address)": "f2fde38b"
    },
    "id": 50
}