{"abi":[{"type":"constructor","inputs":[{"name":"_params","type":"tuple","internalType":"struct ConstructorParams","components":[{"name":"baseURI","type":"string","internalType":"string"},{"name":"auctionContract","type":"address","internalType":"address"},{"name":"basicMintPrice","type":"uint256","internalType":"uint256"}]}],"stateMutability":"nonpayable"},{"type":"fallback","stateMutability":"payable"},{"type":"receive","stateMutability":"payable"},{"type":"function","name":"MAX_NFT_SUPPLY","inputs":[],"outputs":[{"name":"","type":"uint256","internalType":"uint256"}],"stateMutability":"view"},{"type":"function","name":"approve","inputs":[{"name":"to","type":"address","internalType":"address"},{"name":"tokenId","type":"uint256","internalType":"uint256"}],"outputs":[],"stateMutability":"nonpayable"},{"type":"function","name":"balanceOf","inputs":[{"name":"owner","type":"address","internalType":"address"}],"outputs":[{"name":"","type":"uint256","internalType":"uint256"}],"stateMutability":"view"},{"type":"function","name":"deposit","inputs":[],"outputs":[],"stateMutability":"payable"},{"type":"function","name":"getAccountBalance","inputs":[{"name":"_account","type":"address","internalType":"address"}],"outputs":[{"name":"","type":"uint256","internalType":"uint256"}],"stateMutability":"view"},{"type":"function","name":"getApproved","inputs":[{"name":"tokenId","type":"uint256","internalType":"uint256"}],"outputs":[{"name":"","type":"address","internalType":"address"}],"stateMutability":"view"},{"type":"function","name":"getAuctionContract","inputs":[],"outputs":[{"name":"","type":"address","internalType":"address"}],"stateMutability":"view"},{"type":"function","name":"getBaseURI","inputs":[],"outputs":[{"name":"","type":"string","internalType":"string"}],"stateMutability":"view"},{"type":"function","name":"getBasicMintPrice","inputs":[],"outputs":[{"name":"","type":"uint256","internalType":"uint256"}],"stateMutability":"view"},{"type":"function","name":"getIfTokenIdIsMintable","inputs":[{"name":"_tokenId","type":"uint256","internalType":"uint256"}],"outputs":[{"name":"","type":"bool","internalType":"bool"}],"stateMutability":"view"},{"type":"function","name":"getOwnerFromTokenId","inputs":[{"name":"tokenId","type":"uint256","internalType":"uint256"}],"outputs":[{"name":"","type":"address","internalType":"address"}],"stateMutability":"view"},{"type":"function","name":"getTotalMinted","inputs":[],"outputs":[{"name":"","type":"uint256","internalType":"uint256"}],"stateMutability":"view"},{"type":"function","name":"isApprovedForAll","inputs":[{"name":"owner","type":"address","internalType":"address"},{"name":"operator","type":"address","internalType":"address"}],"outputs":[{"name":"","type":"bool","internalType":"bool"}],"stateMutability":"view"},{"type":"function","name":"mintNft","inputs":[{"name":"_to","type":"address","internalType":"address"},{"name":"_tokenId","type":"uint256","internalType":"uint256"}],"outputs":[],"stateMutability":"payable"},{"type":"function","name":"name","inputs":[],"outputs":[{"name":"","type":"string","internalType":"string"}],"stateMutability":"view"},{"type":"function","name":"owner","inputs":[],"outputs":[{"name":"","type":"address","internalType":"address"}],"stateMutability":"view"},{"type":"function","name":"ownerOf","inputs":[{"name":"tokenId","type":"uint256","internalType":"uint256"}],"outputs":[{"name":"","type":"address","internalType":"address"}],"stateMutability":"view"},{"type":"function","name":"renounceOwnership","inputs":[],"outputs":[],"stateMutability":"nonpayable"},{"type":"function","name":"safeTransferFrom","inputs":[{"name":"from","type":"address","internalType":"address"},{"name":"to","type":"address","internalType":"address"},{"name":"tokenId","type":"uint256","internalType":"uint256"}],"outputs":[],"stateMutability":"nonpayable"},{"type":"function","name":"safeTransferFrom","inputs":[{"name":"from","type":"address","internalType":"address"},{"name":"to","type":"address","internalType":"address"},{"name":"tokenId","type":"uint256","internalType":"uint256"},{"name":"data","type":"bytes","internalType":"bytes"}],"outputs":[],"stateMutability":"nonpayable"},{"type":"function","name":"setApprovalForAll","inputs":[{"name":"operator","type":"address","internalType":"address"},{"name":"approved","type":"bool","internalType":"bool"}],"outputs":[],"stateMutability":"nonpayable"},{"type":"function","name":"setBasicMintPrice","inputs":[{"name":"_newBasicPrice","type":"uint256","internalType":"uint256"}],"outputs":[],"stateMutability":"nonpayable"},{"type":"function","name":"setShouldFailMint","inputs":[{"name":"_shouldFail","type":"bool","internalType":"bool"},{"name":"_reason","type":"string","internalType":"string"}],"outputs":[],"stateMutability":"nonpayable"},{"type":"function","name":"setShouldPanic","inputs":[{"name":"_shouldPanic","type":"bool","internalType":"bool"}],"outputs":[],"stateMutability":"nonpayable"},{"type":"function","name":"supportsInterface","inputs":[{"name":"interfaceId","type":"bytes4","internalType":"bytes4"}],"outputs":[{"name":"","type":"bool","internalType":"bool"}],"stateMutability":"view"},{"type":"function","name":"symbol","inputs":[],"outputs":[{"name":"","type":"string","internalType":"string"}],"stateMutability":"view"},{"type":"function","name":"tokenURI","inputs":[{"name":"_tokenId","type":"uint256","internalType":"uint256"}],"outputs":[{"name":"","type":"string","internalType":"string"}],"stateMutability":"view"},{"type":"function","name":"transferFrom","inputs":[{"name":"from","type":"address","internalType":"address"},{"name":"to","type":"address","internalType":"address"},{"name":"tokenId","type":"uint256","internalType":"uint256"}],"outputs":[],"stateMutability":"nonpayable"},{"type":"function","name":"transferNft","inputs":[{"name":"_to","type":"address","internalType":"address"},{"name":"_tokenId","type":"uint256","internalType":"uint256"}],"outputs":[],"stateMutability":"nonpayable"},{"type":"function","name":"transferOwnership","inputs":[{"name":"newOwner","type":"address","internalType":"address"}],"outputs":[],"stateMutability":"nonpayable"},{"type":"function","name":"withdraw","inputs":[],"outputs":[],"stateMutability":"nonpayable"},{"type":"event","name":"Approval","inputs":[{"name":"owner","type":"address","indexed":true,"internalType":"address"},{"name":"approved","type":"address","indexed":true,"internalType":"address"},{"name":"tokenId","type":"uint256","indexed":true,"internalType":"uint256"}],"anonymous":false},{"type":"event","name":"ApprovalForAll","inputs":[{"name":"owner","type":"address","indexed":true,"internalType":"address"},{"name":"operator","type":"address","indexed":true,"internalType":"address"},{"name":"approved","type":"bool","indexed":false,"internalType":"bool"}],"anonymous":false},{"type":"event","name":"OwnershipTransferred","inputs":[{"name":"previousOwner","type":"address","indexed":true,"internalType":"address"},{"name":"newOwner","type":"address","indexed":true,"internalType":"address"}],"anonymous":false},{"type":"event","name":"Transfer","inputs":[{"name":"from","type":"address","indexed":true,"internalType":"address"},{"name":"to","type":"address","indexed":true,"internalType":"address"},{"name":"tokenId","type":"uint256","indexed":true,"internalType":"uint256"}],"anonymous":false},{"type":"event","name":"YoyoNft__DepositCompleted","inputs":[{"name":"amount","type":"uint256","indexed":false,"internalType":"uint256"},{"name":"timestamp","type":"uint256","indexed":false,"internalType":"uint256"}],"anonymous":false},{"type":"event","name":"YoyoNft__MintPriceUpdated","inputs":[{"name":"newBasicPrice","type":"uint256","indexed":false,"internalType":"uint256"},{"name":"timestamp","type":"uint256","indexed":false,"internalType":"uint256"}],"anonymous":false},{"type":"event","name":"YoyoNft__NftMinted","inputs":[{"name":"owner","type":"address","indexed":true,"internalType":"address"},{"name":"tokenId","type":"uint256","indexed":true,"internalType":"uint256"},{"name":"tokenURI","type":"string","indexed":false,"internalType":"string"},{"name":"timestamp","type":"uint256","indexed":false,"internalType":"uint256"}],"anonymous":false},{"type":"event","name":"YoyoNft__WithdrawCompleted","inputs":[{"name":"amount","type":"uint256","indexed":false,"internalType":"uint256"},{"name":"timestamp","type":"uint256","indexed":false,"internalType":"uint256"}],"anonymous":false},{"type":"error","name":"ERC721IncorrectOwner","inputs":[{"name":"sender","type":"address","internalType":"address"},{"name":"tokenId","type":"uint256","internalType":"uint256"},{"name":"owner","type":"address","internalType":"address"}]},{"type":"error","name":"ERC721InsufficientApproval","inputs":[{"name":"operator","type":"address","internalType":"address"},{"name":"tokenId","type":"uint256","internalType":"uint256"}]},{"type":"error","name":"ERC721InvalidApprover","inputs":[{"name":"approver","type":"address","internalType":"address"}]},{"type":"error","name":"ERC721InvalidOperator","inputs":[{"name":"operator","type":"address","internalType":"address"}]},{"type":"error","name":"ERC721InvalidOwner","inputs":[{"name":"owner","type":"address","internalType":"address"}]},{"type":"error","name":"ERC721InvalidReceiver","inputs":[{"name":"receiver","type":"address","internalType":"address"}]},{"type":"error","name":"ERC721InvalidSender","inputs":[{"name":"sender","type":"address","internalType":"address"}]},{"type":"error","name":"ERC721NonexistentToken","inputs":[{"name":"tokenId","type":"uint256","internalType":"uint256"}]},{"type":"error","name":"OwnableInvalidOwner","inputs":[{"name":"owner","type":"address","internalType":"address"}]},{"type":"error","name":"OwnableUnauthorizedAccount","inputs":[{"name":"account","type":"address","internalType":"address"}]},{"type":"error","name":"YoyoNft__CallValidFunctionToInteractWithContract","inputs":[]},{"type":"error","name":"YoyoNft__ContractBalanceIsZero","inputs":[]},{"type":"error","name":"YoyoNft__InvalidAddress","inputs":[]},{"type":"error","name":"YoyoNft__NftAlreadyMinted","inputs":[]},{"type":"error","name":"YoyoNft__NftMaxSupplyReached","inputs":[]},{"type":"error","name":"YoyoNft__NftNotMinted","inputs":[]},{"type":"error","name":"YoyoNft__NotAuctionContract","inputs":[]},{"type":"error","name":"YoyoNft__NotEnoughEtherSent","inputs":[]},{"type":"error","name":"YoyoNft__NotNftOwner","inputs":[]},{"type":"error","name":"YoyoNft__ThisContractDoesntAcceptDeposit","inputs":[]},{"type":"error","name":"YoyoNft__TokenIdDoesNotExist","inputs":[]},{"type":"error","name":"YoyoNft__ValueCantBeZero","inputs":[]},{"type":"error","name":"YoyoNft__WithdrawFailed","inputs":[]}],"bytecode":{"object":"0x60a060405234801561000f575f5ffd5b50604051613d27380380613d278339818101604052810190610031919061056a565b336040518060400160405280600f81526020017f596f796f20436f6c6c656374696f6e00000000000000000000000000000000008152506040518060400160405280600481526020017f594f594f00000000000000000000000000000000000000000000000000000000815250815f90816100ac91906107b8565b5080600190816100bc91906107b8565b5050505f73ffffffffffffffffffffffffffffffffffffffff168173ffffffffffffffffffffffffffffffffffffffff160361012f575f6040517f1e4fbdf70000000000000000000000000000000000000000000000000000000081526004016101269190610896565b60405180910390fd5b61013e8161024860201b60201c565b505f815f0151510361017c576040517ff6a9eca700000000000000000000000000000000000000000000000000000000815260040160405180910390fd5b5f73ffffffffffffffffffffffffffffffffffffffff16816020015173ffffffffffffffffffffffffffffffffffffffff16036101e5576040517f3156c01600000000000000000000000000000000000000000000000000000000815260040160405180910390fd5b805f0151600990816101f791906107b8565b505f600781905550806020015173ffffffffffffffffffffffffffffffffffffffff1660808173ffffffffffffffffffffffffffffffffffffffff16815250508060400151600881905550506108af565b5f60065f9054906101000a900473ffffffffffffffffffffffffffffffffffffffff1690508160065f6101000a81548173ffffffffffffffffffffffffffffffffffffffff021916908373ffffffffffffffffffffffffffffffffffffffff1602179055508173ffffffffffffffffffffffffffffffffffffffff168173ffffffffffffffffffffffffffffffffffffffff167f8be0079c531659141344cd1fd0a4f28419497f9722a3daafe3b4186f6b6457e060405160405180910390a35050565b5f604051905090565b5f5ffd5b5f5ffd5b5f5ffd5b5f601f19601f8301169050919050565b7f4e487b71000000000000000000000000000000000000000000000000000000005f52604160045260245ffd5b61036682610320565b810181811067ffffffffffffffff8211171561038557610384610330565b5b80604052505050565b5f61039761030b565b90506103a3828261035d565b919050565b5f5ffd5b5f5ffd5b5f5ffd5b5f67ffffffffffffffff8211156103ce576103cd610330565b5b6103d782610320565b9050602081019050919050565b8281835e5f83830152505050565b5f6104046103ff846103b4565b61038e565b9050828152602081018484840111156104205761041f6103b0565b5b61042b8482856103e4565b509392505050565b5f82601f830112610447576104466103ac565b5b81516104578482602086016103f2565b91505092915050565b5f73ffffffffffffffffffffffffffffffffffffffff82169050919050565b5f61048982610460565b9050919050565b6104998161047f565b81146104a3575f5ffd5b50565b5f815190506104b481610490565b92915050565b5f819050919050565b6104cc816104ba565b81146104d6575f5ffd5b50565b5f815190506104e7816104c3565b92915050565b5f606082840312156105025761050161031c565b5b61050c606061038e565b90505f82015167ffffffffffffffff81111561052b5761052a6103a8565b5b61053784828501610433565b5f83015250602061054a848285016104a6565b602083015250604061055e848285016104d9565b60408301525092915050565b5f6020828403121561057f5761057e610314565b5b5f82015167ffffffffffffffff81111561059c5761059b610318565b5b6105a8848285016104ed565b91505092915050565b5f81519050919050565b7f4e487b71000000000000000000000000000000000000000000000000000000005f52602260045260245ffd5b5f60028204905060018216806105ff57607f821691505b602082108103610612576106116105bb565b5b50919050565b5f819050815f5260205f209050919050565b5f6020601f8301049050919050565b5f82821b905092915050565b5f600883026106747fffffffffffffffffffffffffffffffffffffffffffffffffffffffffffffffff82610639565b61067e8683610639565b95508019841693508086168417925050509392505050565b5f819050919050565b5f6106b96106b46106af846104ba565b610696565b6104ba565b9050919050565b5f819050919050565b6106d28361069f565b6106e66106de826106c0565b848454610645565b825550505050565b5f5f905090565b6106fd6106ee565b6107088184846106c9565b505050565b5b8181101561072b576107205f826106f5565b60018101905061070e565b5050565b601f8211156107705761074181610618565b61074a8461062a565b81016020851015610759578190505b61076d6107658561062a565b83018261070d565b50505b505050565b5f82821c905092915050565b5f6107905f1984600802610775565b1980831691505092915050565b5f6107a88383610781565b9150826002028217905092915050565b6107c1826105b1565b67ffffffffffffffff8111156107da576107d9610330565b5b6107e482546105e8565b6107ef82828561072f565b5f60209050601f831160018114610820575f841561080e578287015190505b610818858261079d565b86555061087f565b601f19841661082e86610618565b5f5b8281101561085557848901518255600182019150602085019450602081019050610830565b86831015610872578489015161086e601f891682610781565b8355505b6001600288020188555050505b505050505050565b6108908161047f565b82525050565b5f6020820190506108a95f830184610887565b92915050565b6080516134526108d55f395f8181610ab501528181610c2801526111ee01526134525ff3fe6080604052600436106101da575f3560e01c8063714c539811610101578063b5077f4411610094578063d1194e2b11610063578063d1194e2b146106e9578063e985e9c514610705578063f2fde38b14610741578063fd8d02e81461076957610211565b8063b5077f4414610651578063b88d4fde1461067b578063c87b56dd146106a3578063d0e30db0146106df57610211565b806393423e9c116100d057806393423e9c1461058757806395d89b41146105c3578063a22cb465146105ed578063aac571e71461061557610211565b8063714c5398146104f3578063715018a61461051d578063754ea159146105335780638da5cb5b1461055d57610211565b806323b872dd1161017957806352dfd7851161014857806352dfd7851461042b57806360cc1121146104535780636352211e1461047b57806370a08231146104b757610211565b806323b872dd1461039b57806336c157f4146103c35780633ccfd60b146103ed57806342842e0e1461040357610211565b8063081812fc116101b5578063081812fc146102d1578063095ea7b31461030d5780630ca1c5c9146103355780632168509e1461035f57610211565b806258eff01461024357806301ffc9a71461026b57806306fdde03146102a757610211565b36610211576040517fba2b62bf00000000000000000000000000000000000000000000000000000000815260040160405180910390fd5b6040517f596ab9b500000000000000000000000000000000000000000000000000000000815260040160405180910390fd5b34801561024e575f5ffd5b50610269600480360381019061026491906127b2565b610791565b005b348015610276575f5ffd5b50610291600480360381019061028c9190612861565b6107be565b60405161029e919061289b565b60405180910390f35b3480156102b2575f5ffd5b506102bb61089f565b6040516102c89190612914565b60405180910390f35b3480156102dc575f5ffd5b506102f760048036038101906102f29190612967565b61092e565b60405161030491906129d1565b60405180910390f35b348015610318575f5ffd5b50610333600480360381019061032e9190612a14565b610949565b005b348015610340575f5ffd5b5061034961095f565b6040516103569190612a61565b60405180910390f35b34801561036a575f5ffd5b5061038560048036038101906103809190612967565b610968565b604051610392919061289b565b60405180910390f35b3480156103a6575f5ffd5b506103c160048036038101906103bc9190612a7a565b6109b3565b005b3480156103ce575f5ffd5b506103d7610ab2565b6040516103e491906129d1565b60405180910390f35b3480156103f8575f5ffd5b50610401610ad9565b005b34801561040e575f5ffd5b5061042960048036038101906104249190612a7a565b610c07565b005b348015610436575f5ffd5b50610451600480360381019061044c9190612967565b610c26565b005b34801561045e575f5ffd5b5061047960048036038101906104749190612a14565b610d27565b005b348015610486575f5ffd5b506104a1600480360381019061049c9190612967565b610e08565b6040516104ae91906129d1565b60405180910390f35b3480156104c2575f5ffd5b506104dd60048036038101906104d89190612aca565b610e19565b6040516104ea9190612a61565b60405180910390f35b3480156104fe575f5ffd5b50610507610ecf565b6040516105149190612914565b60405180910390f35b348015610528575f5ffd5b50610531610f5f565b005b34801561053e575f5ffd5b50610547610f72565b6040516105549190612a61565b60405180910390f35b348015610568575f5ffd5b50610571610f7b565b60405161057e91906129d1565b60405180910390f35b348015610592575f5ffd5b506105ad60048036038101906105a89190612aca565b610fa3565b6040516105ba9190612a61565b60405180910390f35b3480156105ce575f5ffd5b506105d7610fb4565b6040516105e49190612914565b60405180910390f35b3480156105f8575f5ffd5b50610613600480360381019061060e9190612af5565b611044565b005b348015610620575f5ffd5b5061063b60048036038101906106369190612967565b61105a565b60405161064891906129d1565b60405180910390f35b34801561065c575f5ffd5b5061066561106b565b6040516106729190612a61565b60405180910390f35b348015610686575f5ffd5b506106a1600480360381019061069c9190612bd1565b611070565b005b3480156106ae575f5ffd5b506106c960048036038101906106c49190612967565b611095565b6040516106d69190612914565b60405180910390f35b6106e7611170565b005b61070360048036038101906106fe9190612a14565b6111ec565b005b348015610710575f5ffd5b5061072b60048036038101906107269190612c51565b6114e1565b604051610738919061289b565b60405180910390f35b34801561074c575f5ffd5b5061076760048036038101906107629190612aca565b61156f565b005b348015610774575f5ffd5b5061078f600480360381019061078a9190612c8f565b6115f3565b005b81600a5f6101000a81548160ff02191690831515021790555080600b90816107b99190612eb7565b505050565b5f7f80ac58cd000000000000000000000000000000000000000000000000000000007bffffffffffffffffffffffffffffffffffffffffffffffffffffffff1916827bffffffffffffffffffffffffffffffffffffffffffffffffffffffff1916148061088857507f5b5e139f000000000000000000000000000000000000000000000000000000007bffffffffffffffffffffffffffffffffffffffffffffffffffffffff1916827bffffffffffffffffffffffffffffffffffffffffffffffffffffffff1916145b80610898575061089782611610565b5b9050919050565b60605f80546108ad90612ce7565b80601f01602080910402602001604051908101604052809291908181526020018280546108d990612ce7565b80156109245780601f106108fb57610100808354040283529160200191610924565b820191905f5260205f20905b81548152906001019060200180831161090757829003601f168201915b5050505050905090565b5f61093882611679565b50610942826116ff565b9050919050565b61095b8282610956611738565b61173f565b5050565b5f600754905090565b5f5f73ffffffffffffffffffffffffffffffffffffffff1661098983611751565b73ffffffffffffffffffffffffffffffffffffffff161480156109ac5750601482105b9050919050565b5f73ffffffffffffffffffffffffffffffffffffffff168273ffffffffffffffffffffffffffffffffffffffff1603610a23575f6040517f64a0ae92000000000000000000000000000000000000000000000000000000008152600401610a1a91906129d1565b60405180910390fd5b5f610a368383610a31611738565b61178a565b90508373ffffffffffffffffffffffffffffffffffffffff168173ffffffffffffffffffffffffffffffffffffffff1614610aac578382826040517f64283d7b000000000000000000000000000000000000000000000000000000008152600401610aa393929190612f86565b60405180910390fd5b50505050565b5f7f0000000000000000000000000000000000000000000000000000000000000000905090565b610ae1611995565b5f4790505f8103610b1e576040517f1f9e6f6100000000000000000000000000000000000000000000000000000000815260040160405180910390fd5b5f610b27610f7b565b73ffffffffffffffffffffffffffffffffffffffff1682604051610b4a90612fe8565b5f6040518083038185875af1925050503d805f8114610b84576040519150601f19603f3d011682016040523d82523d5f602084013e610b89565b606091505b505090508015610bd1577f244133ae393249b50158fcee03b2f90e952c950991943cfa0e921214ce225b528242604051610bc4929190612ffc565b60405180910390a1610c03565b6040517f38665e5700000000000000000000000000000000000000000000000000000000815260040160405180910390fd5b5050565b610c2183838360405180602001604052805f815250611070565b505050565b7f000000000000000000000000000000000000000000000000000000000000000073ffffffffffffffffffffffffffffffffffffffff163373ffffffffffffffffffffffffffffffffffffffff1614610cab576040517fcd91621f00000000000000000000000000000000000000000000000000000000815260040160405180910390fd5b5f8103610ce4576040517ff6a9eca700000000000000000000000000000000000000000000000000000000815260040160405180910390fd5b806008819055507f215fe26219f74f3af55712f111a1aed308c1eba8f9e7e6383a2e66396ae4b2c48142604051610d1c929190612ffc565b60405180910390a150565b5f73ffffffffffffffffffffffffffffffffffffffff168273ffffffffffffffffffffffffffffffffffffffff1603610d8c576040517f3156c01600000000000000000000000000000000000000000000000000000000815260040160405180910390fd5b3373ffffffffffffffffffffffffffffffffffffffff16610dac82610e08565b73ffffffffffffffffffffffffffffffffffffffff1614610df9576040517fcbf649cf00000000000000000000000000000000000000000000000000000000815260040160405180910390fd5b610e04338383611a1c565b5050565b5f610e1282611679565b9050919050565b5f5f73ffffffffffffffffffffffffffffffffffffffff168273ffffffffffffffffffffffffffffffffffffffff1603610e8a575f6040517f89c62b64000000000000000000000000000000000000000000000000000000008152600401610e8191906129d1565b60405180910390fd5b60035f8373ffffffffffffffffffffffffffffffffffffffff1673ffffffffffffffffffffffffffffffffffffffff1681526020019081526020015f20549050919050565b606060098054610ede90612ce7565b80601f0160208091040260200160405190810160405280929190818152602001828054610f0a90612ce7565b8015610f555780601f10610f2c57610100808354040283529160200191610f55565b820191905f5260205f20905b815481529060010190602001808311610f3857829003601f168201915b5050505050905090565b610f67611995565b610f705f611a3b565b565b5f600854905090565b5f60065f9054906101000a900473ffffffffffffffffffffffffffffffffffffffff16905090565b5f610fad82610e19565b9050919050565b606060018054610fc390612ce7565b80601f0160208091040260200160405190810160405280929190818152602001828054610fef90612ce7565b801561103a5780601f106110115761010080835404028352916020019161103a565b820191905f5260205f20905b81548152906001019060200180831161101d57829003601f168201915b5050505050905090565b61105661104f611738565b8383611afe565b5050565b5f61106482610e08565b9050919050565b601481565b61107b8484846109b3565b61108f611086611738565b85858585611c67565b50505050565b6060601482106110d1576040517fb7e0afa800000000000000000000000000000000000000000000000000000000815260040160405180910390fd5b5f73ffffffffffffffffffffffffffffffffffffffff166110f183611751565b73ffffffffffffffffffffffffffffffffffffffff160361113e576040517f20bd981e00000000000000000000000000000000000000000000000000000000815260040160405180910390fd5b600961114983611e13565b60405160200161115a929190613171565b6040516020818303038152906040529050919050565b611178611995565b5f34036111b1576040517ff6a9eca700000000000000000000000000000000000000000000000000000000815260040160405180910390fd5b7f7a9c845e9b89fb956712c5767475769f83e1839c0f96d6b42d4920954199b44134426040516111e2929190612ffc565b60405180910390a1565b7f000000000000000000000000000000000000000000000000000000000000000073ffffffffffffffffffffffffffffffffffffffff163373ffffffffffffffffffffffffffffffffffffffff1614611271576040517fcd91621f00000000000000000000000000000000000000000000000000000000815260040160405180910390fd5b600a60019054906101000a900460ff161561128857fe5b600a5f9054906101000a900460ff16156112da57600b6040517f08c379a00000000000000000000000000000000000000000000000000000000081526004016112d1919061322b565b60405180910390fd5b601460075403611316576040517fef11336c00000000000000000000000000000000000000000000000000000000815260040160405180910390fd5b5f73ffffffffffffffffffffffffffffffffffffffff1661133682611751565b73ffffffffffffffffffffffffffffffffffffffff1614611383576040517f2d2101f700000000000000000000000000000000000000000000000000000000815260040160405180910390fd5b601481106113bd576040517fb7e0afa800000000000000000000000000000000000000000000000000000000815260040160405180910390fd5b6008543410156113f9576040517fb2e0353400000000000000000000000000000000000000000000000000000000815260040160405180910390fd5b5f73ffffffffffffffffffffffffffffffffffffffff168273ffffffffffffffffffffffffffffffffffffffff160361145e576040517f3156c01600000000000000000000000000000000000000000000000000000000815260040160405180910390fd5b6114688282611edd565b5f61147282611095565b905060075f81548092919061148690613278565b9190505550818373ffffffffffffffffffffffffffffffffffffffff167fc26dcb63abbc06b32028a4124cebae9d3b28c43409e6831c99972c4fee8e25f383426040516114d49291906132bf565b60405180910390a3505050565b5f60055f8473ffffffffffffffffffffffffffffffffffffffff1673ffffffffffffffffffffffffffffffffffffffff1681526020019081526020015f205f8373ffffffffffffffffffffffffffffffffffffffff1673ffffffffffffffffffffffffffffffffffffffff1681526020019081526020015f205f9054906101000a900460ff16905092915050565b611577611995565b5f73ffffffffffffffffffffffffffffffffffffffff168173ffffffffffffffffffffffffffffffffffffffff16036115e7575f6040517f1e4fbdf70000000000000000000000000000000000000000000000000000000081526004016115de91906129d1565b60405180910390fd5b6115f081611a3b565b50565b80600a60016101000a81548160ff02191690831515021790555050565b5f7f01ffc9a7000000000000000000000000000000000000000000000000000000007bffffffffffffffffffffffffffffffffffffffffffffffffffffffff1916827bffffffffffffffffffffffffffffffffffffffffffffffffffffffff1916149050919050565b5f5f61168483611751565b90505f73ffffffffffffffffffffffffffffffffffffffff168173ffffffffffffffffffffffffffffffffffffffff16036116f657826040517f7e2732890000000000000000000000000000000000000000000000000000000081526004016116ed9190612a61565b60405180910390fd5b80915050919050565b5f60045f8381526020019081526020015f205f9054906101000a900473ffffffffffffffffffffffffffffffffffffffff169050919050565b5f33905090565b61174c8383836001611efa565b505050565b5f60025f8381526020019081526020015f205f9054906101000a900473ffffffffffffffffffffffffffffffffffffffff169050919050565b5f5f61179584611751565b90505f73ffffffffffffffffffffffffffffffffffffffff168373ffffffffffffffffffffffffffffffffffffffff16146117d6576117d58184866120b9565b5b5f73ffffffffffffffffffffffffffffffffffffffff168173ffffffffffffffffffffffffffffffffffffffff1614611861576118155f855f5f611efa565b600160035f8373ffffffffffffffffffffffffffffffffffffffff1673ffffffffffffffffffffffffffffffffffffffff1681526020019081526020015f205f82825403925050819055505b5f73ffffffffffffffffffffffffffffffffffffffff168573ffffffffffffffffffffffffffffffffffffffff16146118e057600160035f8773ffffffffffffffffffffffffffffffffffffffff1673ffffffffffffffffffffffffffffffffffffffff1681526020019081526020015f205f82825401925050819055505b8460025f8681526020019081526020015f205f6101000a81548173ffffffffffffffffffffffffffffffffffffffff021916908373ffffffffffffffffffffffffffffffffffffffff160217905550838573ffffffffffffffffffffffffffffffffffffffff168273ffffffffffffffffffffffffffffffffffffffff167fddf252ad1be2c89b69c2b068fc378daa952ba7f163c4a11628f55a4df523b3ef60405160405180910390a4809150509392505050565b61199d611738565b73ffffffffffffffffffffffffffffffffffffffff166119bb610f7b565b73ffffffffffffffffffffffffffffffffffffffff1614611a1a576119de611738565b6040517f118cdaa7000000000000000000000000000000000000000000000000000000008152600401611a1191906129d1565b60405180910390fd5b565b611a3683838360405180602001604052805f81525061217c565b505050565b5f60065f9054906101000a900473ffffffffffffffffffffffffffffffffffffffff1690508160065f6101000a81548173ffffffffffffffffffffffffffffffffffffffff021916908373ffffffffffffffffffffffffffffffffffffffff1602179055508173ffffffffffffffffffffffffffffffffffffffff168173ffffffffffffffffffffffffffffffffffffffff167f8be0079c531659141344cd1fd0a4f28419497f9722a3daafe3b4186f6b6457e060405160405180910390a35050565b5f73ffffffffffffffffffffffffffffffffffffffff168273ffffffffffffffffffffffffffffffffffffffff1603611b6e57816040517f5b08ba18000000000000000000000000000000000000000000000000000000008152600401611b6591906129d1565b60405180910390fd5b8060055f8573ffffffffffffffffffffffffffffffffffffffff1673ffffffffffffffffffffffffffffffffffffffff1681526020019081526020015f205f8473ffffffffffffffffffffffffffffffffffffffff1673ffffffffffffffffffffffffffffffffffffffff1681526020019081526020015f205f6101000a81548160ff0219169083151502179055508173ffffffffffffffffffffffffffffffffffffffff168373ffffffffffffffffffffffffffffffffffffffff167f17307eab39ab6107e8899845ad3d59bd9653f200f220920489ca2b5937696c3183604051611c5a919061289b565b60405180910390a3505050565b5f8373ffffffffffffffffffffffffffffffffffffffff163b1115611e0c578273ffffffffffffffffffffffffffffffffffffffff1663150b7a02868685856040518563ffffffff1660e01b8152600401611cc5949392919061333f565b6020604051808303815f875af1925050508015611d0057506040513d601f19601f82011682018060405250810190611cfd919061339d565b60015b611d81573d805f8114611d2e576040519150601f19603f3d011682016040523d82523d5f602084013e611d33565b606091505b505f815103611d7957836040517f64a0ae92000000000000000000000000000000000000000000000000000000008152600401611d7091906129d1565b60405180910390fd5b805181602001fd5b63150b7a0260e01b7bffffffffffffffffffffffffffffffffffffffffffffffffffffffff1916817bffffffffffffffffffffffffffffffffffffffffffffffffffffffff191614611e0a57836040517f64a0ae92000000000000000000000000000000000000000000000000000000008152600401611e0191906129d1565b60405180910390fd5b505b5050505050565b60605f6001611e21846121a1565b0190505f8167ffffffffffffffff811115611e3f57611e3e61268e565b5b6040519080825280601f01601f191660200182016040528015611e715781602001600182028036833780820191505090505b5090505f82602001820190505b600115611ed2578080600190039150507f3031323334353637383961626364656600000000000000000000000000000000600a86061a8153600a8581611ec757611ec66133c8565b5b0494505f8503611e7e575b819350505050919050565b611ef6828260405180602001604052805f8152506122f2565b5050565b8080611f3257505f73ffffffffffffffffffffffffffffffffffffffff168273ffffffffffffffffffffffffffffffffffffffff1614155b15612064575f611f4184611679565b90505f73ffffffffffffffffffffffffffffffffffffffff168373ffffffffffffffffffffffffffffffffffffffff1614158015611fab57508273ffffffffffffffffffffffffffffffffffffffff168173ffffffffffffffffffffffffffffffffffffffff1614155b8015611fbe5750611fbc81846114e1565b155b1561200057826040517fa9fbf51f000000000000000000000000000000000000000000000000000000008152600401611ff791906129d1565b60405180910390fd5b811561206257838573ffffffffffffffffffffffffffffffffffffffff168273ffffffffffffffffffffffffffffffffffffffff167f8c5be1e5ebec7d5bd14f71427d1e84f3dd0314c0f7b2291e5b200ac8c7c3b92560405160405180910390a45b505b8360045f8581526020019081526020015f205f6101000a81548173ffffffffffffffffffffffffffffffffffffffff021916908373ffffffffffffffffffffffffffffffffffffffff16021790555050505050565b6120c4838383612315565b612177575f73ffffffffffffffffffffffffffffffffffffffff168373ffffffffffffffffffffffffffffffffffffffff160361213857806040517f7e27328900000000000000000000000000000000000000000000000000000000815260040161212f9190612a61565b60405180910390fd5b81816040517f177e802f00000000000000000000000000000000000000000000000000000000815260040161216e9291906133f5565b60405180910390fd5b505050565b6121878484846123d5565b61219b612192611738565b85858585611c67565b50505050565b5f5f5f90507a184f03e93ff9f4daa797ed6e38ed64bf6a1f01000000000000000083106121fd577a184f03e93ff9f4daa797ed6e38ed64bf6a1f01000000000000000083816121f3576121f26133c8565b5b0492506040810190505b6d04ee2d6d415b85acef8100000000831061223a576d04ee2d6d415b85acef810000000083816122305761222f6133c8565b5b0492506020810190505b662386f26fc10000831061226957662386f26fc10000838161225f5761225e6133c8565b5b0492506010810190505b6305f5e1008310612292576305f5e1008381612288576122876133c8565b5b0492506008810190505b61271083106122b75761271083816122ad576122ac6133c8565b5b0492506004810190505b606483106122da57606483816122d0576122cf6133c8565b5b0492506002810190505b600a83106122e9576001810190505b80915050919050565b6122fc838361253d565b612310612307611738565b5f858585611c67565b505050565b5f5f73ffffffffffffffffffffffffffffffffffffffff168373ffffffffffffffffffffffffffffffffffffffff16141580156123cc57508273ffffffffffffffffffffffffffffffffffffffff168473ffffffffffffffffffffffffffffffffffffffff16148061238d575061238c84846114e1565b5b806123cb57508273ffffffffffffffffffffffffffffffffffffffff166123b3836116ff565b73ffffffffffffffffffffffffffffffffffffffff16145b5b90509392505050565b5f73ffffffffffffffffffffffffffffffffffffffff168273ffffffffffffffffffffffffffffffffffffffff1603612445575f6040517f64a0ae9200000000000000000000000000000000000000000000000000000000815260040161243c91906129d1565b60405180910390fd5b5f61245183835f61178a565b90505f73ffffffffffffffffffffffffffffffffffffffff168173ffffffffffffffffffffffffffffffffffffffff16036124c357816040517f7e2732890000000000000000000000000000000000000000000000000000000081526004016124ba9190612a61565b60405180910390fd5b8373ffffffffffffffffffffffffffffffffffffffff168173ffffffffffffffffffffffffffffffffffffffff1614612537578382826040517f64283d7b00000000000000000000000000000000000000000000000000000000815260040161252e93929190612f86565b60405180910390fd5b50505050565b5f73ffffffffffffffffffffffffffffffffffffffff168273ffffffffffffffffffffffffffffffffffffffff16036125ad575f6040517f64a0ae920000000000000000000000000000000000000000000000000000000081526004016125a491906129d1565b60405180910390fd5b5f6125b983835f61178a565b90505f73ffffffffffffffffffffffffffffffffffffffff168173ffffffffffffffffffffffffffffffffffffffff161461262b575f6040517f73c6ac6e00000000000000000000000000000000000000000000000000000000815260040161262291906129d1565b60405180910390fd5b505050565b5f604051905090565b5f5ffd5b5f5ffd5b5f8115159050919050565b61265581612641565b811461265f575f5ffd5b50565b5f813590506126708161264c565b92915050565b5f5ffd5b5f5ffd5b5f601f19601f8301169050919050565b7f4e487b71000000000000000000000000000000000000000000000000000000005f52604160045260245ffd5b6126c48261267e565b810181811067ffffffffffffffff821117156126e3576126e261268e565b5b80604052505050565b5f6126f5612630565b905061270182826126bb565b919050565b5f67ffffffffffffffff8211156127205761271f61268e565b5b6127298261267e565b9050602081019050919050565b828183375f83830152505050565b5f61275661275184612706565b6126ec565b9050828152602081018484840111156127725761277161267a565b5b61277d848285612736565b509392505050565b5f82601f83011261279957612798612676565b5b81356127a9848260208601612744565b91505092915050565b5f5f604083850312156127c8576127c7612639565b5b5f6127d585828601612662565b925050602083013567ffffffffffffffff8111156127f6576127f561263d565b5b61280285828601612785565b9150509250929050565b5f7fffffffff0000000000000000000000000000000000000000000000000000000082169050919050565b6128408161280c565b811461284a575f5ffd5b50565b5f8135905061285b81612837565b92915050565b5f6020828403121561287657612875612639565b5b5f6128838482850161284d565b91505092915050565b61289581612641565b82525050565b5f6020820190506128ae5f83018461288c565b92915050565b5f81519050919050565b5f82825260208201905092915050565b8281835e5f83830152505050565b5f6128e6826128b4565b6128f081856128be565b93506129008185602086016128ce565b6129098161267e565b840191505092915050565b5f6020820190508181035f83015261292c81846128dc565b905092915050565b5f819050919050565b61294681612934565b8114612950575f5ffd5b50565b5f813590506129618161293d565b92915050565b5f6020828403121561297c5761297b612639565b5b5f61298984828501612953565b91505092915050565b5f73ffffffffffffffffffffffffffffffffffffffff82169050919050565b5f6129bb82612992565b9050919050565b6129cb816129b1565b82525050565b5f6020820190506129e45f8301846129c2565b92915050565b6129f3816129b1565b81146129fd575f5ffd5b50565b5f81359050612a0e816129ea565b92915050565b5f5f60408385031215612a2a57612a29612639565b5b5f612a3785828601612a00565b9250506020612a4885828601612953565b9150509250929050565b612a5b81612934565b82525050565b5f602082019050612a745f830184612a52565b92915050565b5f5f5f60608486031215612a9157612a90612639565b5b5f612a9e86828701612a00565b9350506020612aaf86828701612a00565b9250506040612ac086828701612953565b9150509250925092565b5f60208284031215612adf57612ade612639565b5b5f612aec84828501612a00565b91505092915050565b5f5f60408385031215612b0b57612b0a612639565b5b5f612b1885828601612a00565b9250506020612b2985828601612662565b9150509250929050565b5f67ffffffffffffffff821115612b4d57612b4c61268e565b5b612b568261267e565b9050602081019050919050565b5f612b75612b7084612b33565b6126ec565b905082815260208101848484011115612b9157612b9061267a565b5b612b9c848285612736565b509392505050565b5f82601f830112612bb857612bb7612676565b5b8135612bc8848260208601612b63565b91505092915050565b5f5f5f5f60808587031215612be957612be8612639565b5b5f612bf687828801612a00565b9450506020612c0787828801612a00565b9350506040612c1887828801612953565b925050606085013567ffffffffffffffff811115612c3957612c3861263d565b5b612c4587828801612ba4565b91505092959194509250565b5f5f60408385031215612c6757612c66612639565b5b5f612c7485828601612a00565b9250506020612c8585828601612a00565b9150509250929050565b5f60208284031215612ca457612ca3612639565b5b5f612cb184828501612662565b91505092915050565b7f4e487b71000000000000000000000000000000000000000000000000000000005f52602260045260245ffd5b5f6002820490506001821680612cfe57607f821691505b602082108103612d1157612d10612cba565b5b50919050565b5f819050815f5260205f209050919050565b5f6020601f8301049050919050565b5f82821b905092915050565b5f60088302612d737fffffffffffffffffffffffffffffffffffffffffffffffffffffffffffffffff82612d38565b612d7d8683612d38565b95508019841693508086168417925050509392505050565b5f819050919050565b5f612db8612db3612dae84612934565b612d95565b612934565b9050919050565b5f819050919050565b612dd183612d9e565b612de5612ddd82612dbf565b848454612d44565b825550505050565b5f5f905090565b612dfc612ded565b612e07818484612dc8565b505050565b5b81811015612e2a57612e1f5f82612df4565b600181019050612e0d565b5050565b601f821115612e6f57612e4081612d17565b612e4984612d29565b81016020851015612e58578190505b612e6c612e6485612d29565b830182612e0c565b50505b505050565b5f82821c905092915050565b5f612e8f5f1984600802612e74565b1980831691505092915050565b5f612ea78383612e80565b9150826002028217905092915050565b612ec0826128b4565b67ffffffffffffffff811115612ed957612ed861268e565b5b612ee38254612ce7565b612eee828285612e2e565b5f60209050601f831160018114612f1f575f8415612f0d578287015190505b612f178582612e9c565b865550612f7e565b601f198416612f2d86612d17565b5f5b82811015612f5457848901518255600182019150602085019450602081019050612f2f565b86831015612f715784890151612f6d601f891682612e80565b8355505b6001600288020188555050505b505050505050565b5f606082019050612f995f8301866129c2565b612fa66020830185612a52565b612fb360408301846129c2565b949350505050565b5f81905092915050565b50565b5f612fd35f83612fbb565b9150612fde82612fc5565b5f82019050919050565b5f612ff282612fc8565b9150819050919050565b5f60408201905061300f5f830185612a52565b61301c6020830184612a52565b9392505050565b5f81905092915050565b5f815461303981612ce7565b6130438186613023565b9450600182165f811461305d5760018114613072576130a4565b60ff19831686528115158202860193506130a4565b61307b85612d17565b5f5b8381101561309c5781548189015260018201915060208101905061307d565b838801955050505b50505092915050565b7f2f000000000000000000000000000000000000000000000000000000000000005f82015250565b5f6130e1600183613023565b91506130ec826130ad565b600182019050919050565b5f613101826128b4565b61310b8185613023565b935061311b8185602086016128ce565b80840191505092915050565b7f2e6a736f6e0000000000000000000000000000000000000000000000000000005f82015250565b5f61315b600583613023565b915061316682613127565b600582019050919050565b5f61317c828561302d565b9150613187826130d5565b915061319382846130f7565b915061319e8261314f565b91508190509392505050565b5f81546131b681612ce7565b6131c081866128be565b9450600182165f81146131da57600181146131f057613222565b60ff198316865281151560200286019350613222565b6131f985612d17565b5f5b8381101561321a578154818901526001820191506020810190506131fb565b808801955050505b50505092915050565b5f6020820190508181035f83015261324381846131aa565b905092915050565b7f4e487b71000000000000000000000000000000000000000000000000000000005f52601160045260245ffd5b5f61328282612934565b91507fffffffffffffffffffffffffffffffffffffffffffffffffffffffffffffffff82036132b4576132b361324b565b5b600182019050919050565b5f6040820190508181035f8301526132d781856128dc565b90506132e66020830184612a52565b9392505050565b5f81519050919050565b5f82825260208201905092915050565b5f613311826132ed565b61331b81856132f7565b935061332b8185602086016128ce565b6133348161267e565b840191505092915050565b5f6080820190506133525f8301876129c2565b61335f60208301866129c2565b61336c6040830185612a52565b818103606083015261337e8184613307565b905095945050505050565b5f8151905061339781612837565b92915050565b5f602082840312156133b2576133b1612639565b5b5f6133bf84828501613389565b91505092915050565b7f4e487b71000000000000000000000000000000000000000000000000000000005f52601260045260245ffd5b5f6040820190506134085f8301856129c2565b6134156020830184612a52565b939250505056fea264697066735822122049b91d2bf28e21d73e5488d4051bb508339385463f9f182cc85f717f327487b564736f6c634300081e0033","linkReferences":{}},"methodIdentifiers":{"MAX_NFT_SUPPLY()":"b5077f44","approve(address,uint256)":"095ea7b3","balanceOf(address)":"70a08231","deposit()":"d0e30db0","getAccountBalance(address)":"93423e9c","getApproved(uint256)":"081812fc","getAuctionContract()":"36c157f4","getBaseURI()":"714c5398","getBasicMintPrice()":"754ea159","getIfTokenIdIsMintable(uint256)":"2168509e","getOwnerFromTokenId(uint256)":"aac571e7","getTotalMinted()":"0ca1c5c9","isApprovedForAll(address,address)":"e985e9c5","mintNft(address,uint256)":"d1194e2b","name()":"06fdde03","owner()":"8da5cb5b","ownerOf(uint256)":"6352211e","renounceOwnership()":"715018a6","safeTransferFrom(address,address,uint256)":"42842e0e","safeTransferFrom(address,address,uint256,bytes)":"b88d4fde","setApprovalForAll(address,bool)":"a22cb465","setBasicMintPrice(uint256)":"52dfd785","setShouldFailMint(bool,string)":"0058eff0","setShouldPanic(bool)":"fd8d02e8","supportsInterface(bytes4)":"01ffc9a7","symbol()":"95d89b41","tokenURI(uint256)":"c87b56dd","transferFrom(address,address,uint256)":"23b872dd","transferNft(address,uint256)":"60cc1121","transferOwnership(address)":"f2fde38b","withdraw()":"3ccfd60b"},"id":57}