{"abi":[{"type":"constructor","inputs":[{"name":"_auctionContractAddress","type":"address","internalType":"address"}],"stateMutability":"payable"},{"type":"receive","stateMutability":"payable"},{"type":"function","name":"auctionContract","inputs":[],"outputs":[{"name":"","type":"address","internalType":"contract IYoyoAuction"}],"stateMutability":"view"},{"type":"function","name":"claimRefund","inputs":[],"outputs":[],"stateMutability":"nonpayable"},{"type":"function","name":"placeBid","inputs":[{"name":"auctionId","type":"uint256","internalType":"uint256"},{"name":"bidAmount","type":"uint256","internalType":"uint256"}],"outputs":[],"stateMutability":"nonpayable"},{"type":"function","name":"setCanReceiveEth","inputs":[{"name":"_canReceive","type":"bool","internalType":"bool"}],"outputs":[],"stateMutability":"nonpayable"}],"bytecode":{"object":"0x60806040525f5f60146101000a81548160ff0219169083151502179055506040516105f13803806105f1833981810160405281019061003e91906100e1565b805f5f6101000a81548173ffffffffffffffffffffffffffffffffffffffff021916908373ffffffffffffffffffffffffffffffffffffffff1602179055505061010c565b5f5ffd5b5f73ffffffffffffffffffffffffffffffffffffffff82169050919050565b5f6100b082610087565b9050919050565b6100c0816100a6565b81146100ca575f5ffd5b50565b5f815190506100db816100b7565b92915050565b5f602082840312156100f6576100f5610083565b5b5f610103848285016100cd565b91505092915050565b6104d8806101195f395ff3fe608060405260043610610042575f3560e01c80630ab8afac1461009b578063350f2a2c146100c557806357c90de5146100ed578063b5545a3c1461011557610097565b36610097575f60149054906101000a900460ff16610095576040517f08c379a000000000000000000000000000000000000000000000000000000000815260040161008c906102f4565b60405180910390fd5b005b5f5ffd5b3480156100a6575f5ffd5b506100af61012b565b6040516100bc919061038c565b60405180910390f35b3480156100d0575f5ffd5b506100eb60048036038101906100e691906103de565b61014f565b005b3480156100f8575f5ffd5b50610113600480360381019061010e919061043c565b61016b565b005b348015610120575f5ffd5b506101296101f7565b005b5f5f9054906101000a900473ffffffffffffffffffffffffffffffffffffffff1681565b805f60146101000a81548160ff02191690831515021790555050565b5f5f9054906101000a900473ffffffffffffffffffffffffffffffffffffffff1673ffffffffffffffffffffffffffffffffffffffff1663aadd577e82846040518363ffffffff1660e01b81526004016101c59190610489565b5f604051808303818588803b1580156101dc575f5ffd5b505af11580156101ee573d5f5f3e3d5ffd5b50505050505050565b5f5f9054906101000a900473ffffffffffffffffffffffffffffffffffffffff1673ffffffffffffffffffffffffffffffffffffffff1663cbfbbbc26040518163ffffffff1660e01b81526004015f604051808303815f87803b15801561025c575f5ffd5b505af115801561026e573d5f5f3e3d5ffd5b50505050565b5f82825260208201905092915050565b7f4574685265667573654d6f636b5f5f54686973436f6e7472616374446f65736e5f8201527f7441636365707445746800000000000000000000000000000000000000000000602082015250565b5f6102de602a83610274565b91506102e982610284565b604082019050919050565b5f6020820190508181035f83015261030b816102d2565b9050919050565b5f73ffffffffffffffffffffffffffffffffffffffff82169050919050565b5f819050919050565b5f61035461034f61034a84610312565b610331565b610312565b9050919050565b5f6103658261033a565b9050919050565b5f6103768261035b565b9050919050565b6103868161036c565b82525050565b5f60208201905061039f5f83018461037d565b92915050565b5f5ffd5b5f8115159050919050565b6103bd816103a9565b81146103c7575f5ffd5b50565b5f813590506103d8816103b4565b92915050565b5f602082840312156103f3576103f26103a5565b5b5f610400848285016103ca565b91505092915050565b5f819050919050565b61041b81610409565b8114610425575f5ffd5b50565b5f8135905061043681610412565b92915050565b5f5f60408385031215610452576104516103a5565b5b5f61045f85828601610428565b925050602061047085828601610428565b9150509250929050565b61048381610409565b82525050565b5f60208201905061049c5f83018461047a565b9291505056fea26469706673582212204376cb6a01113a02ff7f512cce68def624a8b20099a0d3c4e202ca3dda26651064736f6c634300081e0033","linkReferences":{}},"methodIdentifiers":{"auctionContract()":"0ab8afac","claimRefund()":"b5545a3c","placeBid(uint256,uint256)":"57c90de5","setCanReceiveEth(bool)":"350f2a2c"},"id":54}