{"abi":[{"type":"constructor","inputs":[{"name":"_auctionContractAddress","type":"address","internalType":"address"},{"name":"_nftContractAddress","type":"address","internalType":"address"}],"stateMutability":"nonpayable"},{"type":"fallback","stateMutability":"payable"},{"type":"receive","stateMutability":"payable"},{"type":"function","name":"auctionContract","inputs":[],"outputs":[{"name":"","type":"address","internalType":"contract IYoyoAuction"}],"stateMutability":"view"},{"type":"function","name":"claimNftFromAuction","inputs":[{"name":"_auctionId","type":"uint256","internalType":"uint256"}],"outputs":[],"stateMutability":"nonpayable"},{"type":"function","name":"claimRefund","inputs":[],"outputs":[],"stateMutability":"nonpayable"},{"type":"function","name":"depositOnNftContract","inputs":[],"outputs":[],"stateMutability":"payable"},{"type":"function","name":"nftContract","inputs":[],"outputs":[{"name":"","type":"address","internalType":"contract IYoyoNft"}],"stateMutability":"view"},{"type":"function","name":"onERC721Received","inputs":[{"name":"","type":"address","internalType":"address"},{"name":"","type":"address","internalType":"address"},{"name":"","type":"uint256","internalType":"uint256"},{"name":"","type":"bytes","internalType":"bytes"}],"outputs":[{"name":"","type":"bytes4","internalType":"bytes4"}],"stateMutability":"nonpayable"},{"type":"function","name":"placeBid","inputs":[{"name":"auctionId","type":"uint256","internalType":"uint256"}],"outputs":[],"stateMutability":"payable"},{"type":"function","name":"setCanReceiveEth","inputs":[{"name":"_canReceive","type":"bool","internalType":"bool"}],"outputs":[],"stateMutability":"nonpayable"},{"type":"function","name":"setCanReceiveNft","inputs":[{"name":"_canReceive","type":"bool","internalType":"bool"}],"outputs":[],"stateMutability":"nonpayable"},{"type":"function","name":"setCauseOutOfGas","inputs":[{"name":"_causeOutOfGas","type":"bool","internalType":"bool"}],"outputs":[],"stateMutability":"nonpayable"},{"type":"function","name":"setThrowPanicError","inputs":[{"name":"_throwPanic","type":"bool","internalType":"bool"}],"outputs":[],"stateMutability":"nonpayable"},{"type":"function","name":"withdrawFromNftContract","inputs":[],"outputs":[],"stateMutability":"nonpayable"}],"bytecode":{"object":"0x60806040525f600160146101000a81548160ff0219169083151502179055505f600160156101000a81548160ff0219169083151502179055505f600160166101000a81548160ff0219169083151502179055505f600160176101000a81548160ff021916908315150217905550348015610077575f5ffd5b50604051610da6380380610da68339818101604052810190610099919061017d565b815f5f6101000a81548173ffffffffffffffffffffffffffffffffffffffff021916908373ffffffffffffffffffffffffffffffffffffffff1602179055508060015f6101000a81548173ffffffffffffffffffffffffffffffffffffffff021916908373ffffffffffffffffffffffffffffffffffffffff16021790555050506101bb565b5f5ffd5b5f73ffffffffffffffffffffffffffffffffffffffff82169050919050565b5f61014c82610123565b9050919050565b61015c81610142565b8114610166575f5ffd5b50565b5f8151905061017781610153565b92915050565b5f5f604083850312156101935761019261011f565b5b5f6101a085828601610169565b92505060206101b185828601610169565b9150509250929050565b610bde806101c85f395ff3fe6080604052600436106100aa575f3560e01c806391679c471161006357806391679c47146102575780639979ef451461027f578063b5545a3c1461029b578063d56d229d146102b1578063f8c608a3146102db578063fa1c77c1146102f157610100565b806304c85c83146101515780630ab8afac14610179578063150b7a02146101a3578063350f2a2c146101df5780634344058e146102075780635364da081461022f57610100565b3661010057600160149054906101000a900460ff166100fe576040517f08c379a00000000000000000000000000000000000000000000000000000000081526004016100f59061078c565b60405180910390fd5b005b600160149054906101000a900460ff1661014f576040517f08c379a00000000000000000000000000000000000000000000000000000000081526004016101469061078c565b60405180910390fd5b005b34801561015c575f5ffd5b50610177600480360381019061017291906107e5565b6102fb565b005b348015610184575f5ffd5b5061018d610384565b60405161019a919061088a565b60405180910390f35b3480156101ae575f5ffd5b506101c960048036038101906101c4919061093f565b6103a8565b6040516101d691906109fd565b60405180910390f35b3480156101ea575f5ffd5b5061020560048036038101906102009190610a4b565b61042c565b005b348015610212575f5ffd5b5061022d60048036038101906102289190610a4b565b610449565b005b34801561023a575f5ffd5b5061025560048036038101906102509190610a4b565b610466565b005b348015610262575f5ffd5b5061027d60048036038101906102789190610a4b565b610483565b005b610299600480360381019061029491906107e5565b6104a0565b005b3480156102a6575f5ffd5b506102af61052b565b005b3480156102bc575f5ffd5b506102c56105a8565b6040516102d29190610a96565b60405180910390f35b3480156102e6575f5ffd5b506102ef6105cd565b005b6102f961064b565b005b5f5f9054906101000a900473ffffffffffffffffffffffffffffffffffffffff1673ffffffffffffffffffffffffffffffffffffffff16630eb1f3b9826040518263ffffffff1660e01b81526004016103549190610abe565b5f604051808303815f87803b15801561036b575f5ffd5b505af115801561037d573d5f5f3e3d5ffd5b5050505050565b5f5f9054906101000a900473ffffffffffffffffffffffffffffffffffffffff1681565b5f600160179054906101000a900460ff16156103d1576103c66106cb565b5f60e01b9050610423565b600160159054906101000a900460ff1661041857600160169054906101000a900460ff161561040d576104026106f1565b5f60e01b9050610423565b5f60e01b9050610423565b63150b7a0260e01b90505b95945050505050565b80600160146101000a81548160ff02191690831515021790555050565b80600160176101000a81548160ff02191690831515021790555050565b80600160156101000a81548160ff02191690831515021790555050565b80600160166101000a81548160ff02191690831515021790555050565b5f5f9054906101000a900473ffffffffffffffffffffffffffffffffffffffff1673ffffffffffffffffffffffffffffffffffffffff1663aadd577e34836040518363ffffffff1660e01b81526004016104fa9190610abe565b5f604051808303818588803b158015610511575f5ffd5b505af1158015610523573d5f5f3e3d5ffd5b505050505050565b5f5f9054906101000a900473ffffffffffffffffffffffffffffffffffffffff1673ffffffffffffffffffffffffffffffffffffffff1663cbfbbbc26040518163ffffffff1660e01b81526004015f604051808303815f87803b158015610590575f5ffd5b505af11580156105a2573d5f5f3e3d5ffd5b50505050565b60015f9054906101000a900473ffffffffffffffffffffffffffffffffffffffff1681565b60015f9054906101000a900473ffffffffffffffffffffffffffffffffffffffff1673ffffffffffffffffffffffffffffffffffffffff16633ccfd60b6040518163ffffffff1660e01b81526004015f604051808303815f87803b158015610633575f5ffd5b505af1158015610645573d5f5f3e3d5ffd5b50505050565b60015f9054906101000a900473ffffffffffffffffffffffffffffffffffffffff1673ffffffffffffffffffffffffffffffffffffffff1663d0e30db0346040518263ffffffff1660e01b81526004015f604051808303818588803b1580156106b2575f5ffd5b505af11580156106c4573d5f5f3e3d5ffd5b5050505050565b5b6001156106ef5760025f8154809291906106e590610b04565b91905055506106cc565b565b5f600190505f5f905080826107069190610b78565b91505050565b5f82825260208201905092915050565b7f4574685265667573654d6f636b5f5f54686973436f6e7472616374446f65736e5f8201527f7441636365707445746800000000000000000000000000000000000000000000602082015250565b5f610776602a8361070c565b91506107818261071c565b604082019050919050565b5f6020820190508181035f8301526107a38161076a565b9050919050565b5f5ffd5b5f5ffd5b5f819050919050565b6107c4816107b2565b81146107ce575f5ffd5b50565b5f813590506107df816107bb565b92915050565b5f602082840312156107fa576107f96107aa565b5b5f610807848285016107d1565b91505092915050565b5f73ffffffffffffffffffffffffffffffffffffffff82169050919050565b5f819050919050565b5f61085261084d61084884610810565b61082f565b610810565b9050919050565b5f61086382610838565b9050919050565b5f61087482610859565b9050919050565b6108848161086a565b82525050565b5f60208201905061089d5f83018461087b565b92915050565b5f6108ad82610810565b9050919050565b6108bd816108a3565b81146108c7575f5ffd5b50565b5f813590506108d8816108b4565b92915050565b5f5ffd5b5f5ffd5b5f5ffd5b5f5f83601f8401126108ff576108fe6108de565b5b8235905067ffffffffffffffff81111561091c5761091b6108e2565b5b602083019150836001820283011115610938576109376108e6565b5b9250929050565b5f5f5f5f5f60808688031215610958576109576107aa565b5b5f610965888289016108ca565b9550506020610976888289016108ca565b9450506040610987888289016107d1565b935050606086013567ffffffffffffffff8111156109a8576109a76107ae565b5b6109b4888289016108ea565b92509250509295509295909350565b5f7fffffffff0000000000000000000000000000000000000000000000000000000082169050919050565b6109f7816109c3565b82525050565b5f602082019050610a105f8301846109ee565b92915050565b5f8115159050919050565b610a2a81610a16565b8114610a34575f5ffd5b50565b5f81359050610a4581610a21565b92915050565b5f60208284031215610a6057610a5f6107aa565b5b5f610a6d84828501610a37565b91505092915050565b5f610a8082610859565b9050919050565b610a9081610a76565b82525050565b5f602082019050610aa95f830184610a87565b92915050565b610ab8816107b2565b82525050565b5f602082019050610ad15f830184610aaf565b92915050565b7f4e487b71000000000000000000000000000000000000000000000000000000005f52601160045260245ffd5b5f610b0e826107b2565b91507fffffffffffffffffffffffffffffffffffffffffffffffffffffffffffffffff8203610b4057610b3f610ad7565b5b600182019050919050565b7f4e487b71000000000000000000000000000000000000000000000000000000005f52601260045260245ffd5b5f610b82826107b2565b9150610b8d836107b2565b925082610b9d57610b9c610b4b565b5b82820490509291505056fea2646970667358221220a2b90edb34abf66ec92334c8804aadd38f354447aa1a6b7310e020759c981cbf64736f6c634300081e0033","linkReferences":{}},"methodIdentifiers":{"auctionContract()":"0ab8afac","claimNftFromAuction(uint256)":"04c85c83","claimRefund()":"b5545a3c","depositOnNftContract()":"fa1c77c1","nftContract()":"d56d229d","onERC721Received(address,address,uint256,bytes)":"150b7a02","placeBid(uint256)":"9979ef45","setCanReceiveEth(bool)":"350f2a2c","setCanReceiveNft(bool)":"5364da08","setCauseOutOfGas(bool)":"4344058e","setThrowPanicError(bool)":"91679c47","withdrawFromNftContract()":"f8c608a3"},"id":59}