{"abi":[{"type":"constructor","inputs":[{"name":"linkToken","type":"address","internalType":"address"},{"name":"registrar","type":"address","internalType":"address"}],"stateMutability":"nonpayable"},{"type":"function","name":"i_link","inputs":[],"outputs":[{"name":"","type":"address","internalType":"contract LinkTokenInterface"}],"stateMutability":"view"},{"type":"function","name":"i_registrar","inputs":[],"outputs":[{"name":"","type":"address","internalType":"contract AutomationRegistrarInterface"}],"stateMutability":"view"},{"type":"function","name":"registerAndFundUpkeep","inputs":[{"name":"upkeepContract","type":"address","internalType":"address"},{"name":"name","type":"string","internalType":"string"},{"name":"gasLimit","type":"uint32","internalType":"uint32"},{"name":"adminAddress","type":"address","internalType":"address"},{"name":"fundingAmount","type":"uint96","internalType":"uint96"}],"outputs":[{"name":"","type":"uint256","internalType":"uint256"}],"stateMutability":"nonpayable"},{"type":"error","name":"AutomationRegistration__InvalidParameters","inputs":[]},{"type":"error","name":"AutomationRegistration__LinkTransferFailed","inputs":[]},{"type":"error","name":"AutomationRegistration__UpkeepRegistrationFailed","inputs":[]}],"bytecode":{"object":"0x60c060405234801561000f575f5ffd5b50604051610ded380380610ded833981810160405281019061003191906100fe565b8173ffffffffffffffffffffffffffffffffffffffff1660808173ffffffffffffffffffffffffffffffffffffffff16815250508073ffffffffffffffffffffffffffffffffffffffff1660a08173ffffffffffffffffffffffffffffffffffffffff1681525050505061013c565b5f5ffd5b5f73ffffffffffffffffffffffffffffffffffffffff82169050919050565b5f6100cd826100a4565b9050919050565b6100dd816100c3565b81146100e7575f5ffd5b50565b5f815190506100f8816100d4565b92915050565b5f5f60408385031215610114576101136100a0565b5b5f610121858286016100ea565b9250506020610132858286016100ea565b9150509250929050565b60805160a051610c756101785f395f818160b1015281816102cd015261044a01525f81816101ba01528181610291015261052e0152610c755ff3fe608060405234801561000f575f5ffd5b506004361061003f575f3560e01c8063442b1278146100435780636c3ac758146100615780637d253aff14610091575b5f5ffd5b61004b6100af565b60405161005891906105ca565b60405180910390f35b61007b600480360381019061007691906107e5565b6100d3565b6040516100889190610890565b60405180910390f35b61009961052c565b6040516100a691906108c9565b60405180910390f35b7f000000000000000000000000000000000000000000000000000000000000000081565b5f5f73ffffffffffffffffffffffffffffffffffffffff168673ffffffffffffffffffffffffffffffffffffffff16148061013957505f73ffffffffffffffffffffffffffffffffffffffff168373ffffffffffffffffffffffffffffffffffffffff16145b15610170576040517f9901faba00000000000000000000000000000000000000000000000000000000815260040160405180910390fd5b5f826bffffffffffffffffffffffff16036101b7576040517f9901faba00000000000000000000000000000000000000000000000000000000815260040160405180910390fd5b5f7f000000000000000000000000000000000000000000000000000000000000000073ffffffffffffffffffffffffffffffffffffffff166323b872dd8530866040518463ffffffff1660e01b815260040161021593929190610921565b6020604051808303815f875af1158015610231573d5f5f3e3d5ffd5b505050506040513d601f19601f82011682018060405250810190610255919061098b565b90508061028e576040517ff9fbc74200000000000000000000000000000000000000000000000000000000815260040160405180910390fd5b5f7f000000000000000000000000000000000000000000000000000000000000000073ffffffffffffffffffffffffffffffffffffffff1663095ea7b37f0000000000000000000000000000000000000000000000000000000000000000866040518363ffffffff1660e01b815260040161030a9291906109b6565b6020604051808303815f875af1158015610326573d5f5f3e3d5ffd5b505050506040513d601f19601f8201168201806040525081019061034a919061098b565b905080610383576040517ff9fbc74200000000000000000000000000000000000000000000000000000000815260040160405180910390fd5b5f60405180610140016040528089815260200160405180602001604052805f81525081526020018a73ffffffffffffffffffffffffffffffffffffffff1681526020018863ffffffff1681526020018773ffffffffffffffffffffffffffffffffffffffff1681526020015f60ff16815260200160405180602001604052805f815250815260200160405180602001604052805f815250815260200160405180602001604052805f8152508152602001866bffffffffffffffffffffffff1681525090505f7f000000000000000000000000000000000000000000000000000000000000000073ffffffffffffffffffffffffffffffffffffffff16633f678e11836040518263ffffffff1660e01b81526004016104a19190610bca565b6020604051808303815f875af11580156104bd573d5f5f3e3d5ffd5b505050506040513d601f19601f820116820180604052508101906104e19190610c14565b90505f810361051c576040517fd0e5d6f600000000000000000000000000000000000000000000000000000000815260040160405180910390fd5b8094505050505095945050505050565b7f000000000000000000000000000000000000000000000000000000000000000081565b5f73ffffffffffffffffffffffffffffffffffffffff82169050919050565b5f819050919050565b5f61059261058d61058884610550565b61056f565b610550565b9050919050565b5f6105a382610578565b9050919050565b5f6105b482610599565b9050919050565b6105c4816105aa565b82525050565b5f6020820190506105dd5f8301846105bb565b92915050565b5f604051905090565b5f5ffd5b5f5ffd5b5f6105fe82610550565b9050919050565b61060e816105f4565b8114610618575f5ffd5b50565b5f8135905061062981610605565b92915050565b5f5ffd5b5f5ffd5b5f601f19601f8301169050919050565b7f4e487b71000000000000000000000000000000000000000000000000000000005f52604160045260245ffd5b61067d82610637565b810181811067ffffffffffffffff8211171561069c5761069b610647565b5b80604052505050565b5f6106ae6105e3565b90506106ba8282610674565b919050565b5f67ffffffffffffffff8211156106d9576106d8610647565b5b6106e282610637565b9050602081019050919050565b828183375f83830152505050565b5f61070f61070a846106bf565b6106a5565b90508281526020810184848401111561072b5761072a610633565b5b6107368482856106ef565b509392505050565b5f82601f8301126107525761075161062f565b5b81356107628482602086016106fd565b91505092915050565b5f63ffffffff82169050919050565b6107838161076b565b811461078d575f5ffd5b50565b5f8135905061079e8161077a565b92915050565b5f6bffffffffffffffffffffffff82169050919050565b6107c4816107a4565b81146107ce575f5ffd5b50565b5f813590506107df816107bb565b92915050565b5f5f5f5f5f60a086880312156107fe576107fd6105ec565b5b5f61080b8882890161061b565b955050602086013567ffffffffffffffff81111561082c5761082b6105f0565b5b6108388882890161073e565b945050604061084988828901610790565b935050606061085a8882890161061b565b925050608061086b888289016107d1565b9150509295509295909350565b5f819050919050565b61088a81610878565b82525050565b5f6020820190506108a35f830184610881565b92915050565b5f6108b382610599565b9050919050565b6108c3816108a9565b82525050565b5f6020820190506108dc5f8301846108ba565b92915050565b6108eb816105f4565b82525050565b5f61090b610906610901846107a4565b61056f565b610878565b9050919050565b61091b816108f1565b82525050565b5f6060820190506109345f8301866108e2565b61094160208301856108e2565b61094e6040830184610912565b949350505050565b5f8115159050919050565b61096a81610956565b8114610974575f5ffd5b50565b5f8151905061098581610961565b92915050565b5f602082840312156109a05761099f6105ec565b5b5f6109ad84828501610977565b91505092915050565b5f6040820190506109c95f8301856108e2565b6109d66020830184610912565b9392505050565b5f81519050919050565b5f82825260208201905092915050565b8281835e5f83830152505050565b5f610a0f826109dd565b610a1981856109e7565b9350610a298185602086016109f7565b610a3281610637565b840191505092915050565b5f81519050919050565b5f82825260208201905092915050565b5f610a6182610a3d565b610a6b8185610a47565b9350610a7b8185602086016109f7565b610a8481610637565b840191505092915050565b610a98816105f4565b82525050565b610aa78161076b565b82525050565b5f60ff82169050919050565b610ac281610aad565b82525050565b610ad1816107a4565b82525050565b5f61014083015f8301518482035f860152610af28282610a05565b91505060208301518482036020860152610b0c8282610a57565b9150506040830151610b216040860182610a8f565b506060830151610b346060860182610a9e565b506080830151610b476080860182610a8f565b5060a0830151610b5a60a0860182610ab9565b5060c083015184820360c0860152610b728282610a57565b91505060e083015184820360e0860152610b8c8282610a57565b915050610100830151848203610100860152610ba88282610a57565b915050610120830151610bbf610120860182610ac8565b508091505092915050565b5f6020820190508181035f830152610be28184610ad7565b905092915050565b610bf381610878565b8114610bfd575f5ffd5b50565b5f81519050610c0e81610bea565b92915050565b5f60208284031215610c2957610c286105ec565b5b5f610c3684828501610c00565b9150509291505056fea26469706673582212202c6f0d595b3c8e4b466e0fc3249b73dcfa3cb2e09b7878ff5789e410ce8dd4f864736f6c634300081e0033","linkReferences":{}},"methodIdentifiers":{"i_link()":"7d253aff","i_registrar()":"442b1278","registerAndFundUpkeep(address,string,uint32,address,uint96)":"6c3ac758"},"id":46}